:020000040802F0
:1000000028CA0020C5010208CD500208AD3F0208F1
:100010009945020889090208775402080000000087
:10002000000000000000000000000000D75002089F
:100030009109020800000000D5500208D9500208BA
:10004000DF010208DF010208DF010208DF01020808
:10005000DF010208DF010208310E02083B0E020830
:10006000450E02084F0E0208590E0208DF01020871
:10007000DF010208DF010208DF010208DF010208D8
:10008000DF010208DF010208DF010208DF010208C8
:10009000DF010208DF010208DF010208630E020827
:1000A000DF010208A9510208DF010208DF0102088E
:1000B000DF010208DF010208DF010208DF01020898
:1000C000DF010208DF010208DF010208DF01020888
:1000D000DF010208DF010208DF010208DF01020878
:1000E000DF010208DF010208DF010208DF01020868
:1000F000DF010208DF010208DF010208DF01020858
:10010000DF010208DF010208B9510208DF0102081D
:10011000DF010208DF010208DF010208DF01020837
:10012000DF010208DF010208DF010208DF01020827
:10013000DF010208DF010208DF010208DF01020817
:10014000DF010208DF010208DF010208DF01020807
:10015000DF010208DF010208DF010208DF010208F7
:10016000DF010208DF010208DF010208DF010208E7
:10017000DF010208DF010208DF01020800000000C1
:10018000DF010208DF010208DF010208DF010208C7
:10019000DF010208DF010208DF010208DF010208B7
:1001A000DF010208DF010208DF010208DFF810D0DA
:1001B00000F030FB00480047DD910208AFF30080FB
:1001C00028CA00200648804706480047FEE7FEE7A9
:1001D000FEE7FEE7FEE7FEE7FEE7FEE7FEE7FEE7F7
:1001E00095510208AD0102082DE9F05F0546002097
:1001F00092469B4688460646814640241BE0284698
:1002000041464746224600F0EEF853465A46C01A89
:10021000914110D311461846224600F0D5F82D1A08
:1002200067EB01084F4622460120002100F0CCF880
:1002300017EB00094E41201EA4F10104DFDC484603
:1002400031462A464346BDE8F09F0000004870470B
:10025000D41504080649074A0868504343F2390296
:10026000104408604008704701490860704700006A
:10027000280100206D4EC64110B5431A934209D2A1
:100280008318881803E010F8011D03F8011D521EA1
:10029000F9D210BD40EA01039B0703D009E008C969
:1002A000121F08C0042AFAD203E011F8013B00F83B
:1002B000013B521EF9D210BDD2B201E000F8012B71
:1002C000491EFBD270470022F6E710B513460A46D6
:1002D00004461946FFF7F0FF204610BD421C10F8F7
:1002E000011B0029FBD1801A704730B5044600205D
:1002F000034600E05B1C934203D2E05CCD5C401BF4
:10030000F8D030BD2DE9F05F93460F468046044695
:10031000002605F015F9D0F80090824614F8015B2C
:100320002DB1FFF793FF0068405DC007F6D12B2D7C
:1003300002D02D2D1AD0641E0021CAF800105A4692
:100340003946204600F05FF8014627B13868A042E0
:1003500001D1C7F80080DAF80000022809D0CAF8F5
:100360000090700505D54842BDE8F09F46F48066D0
:10037000E2E70846F8E700F0004230F000400AD01B
:10038000C10D01F56071C0F3160042EA0151C208C7
:1003900040071143704700200146704730B50B46B7
:1003A000014600202022012409E021FA02F59D42A5
:1003B00005D303FA02F5491B04FA02F52844151E79
:1003C000A2F10102F1DC30BD202A04DB203A00FA60
:1003D00002F1002070479140C2F1200320FA03F39C
:1003E000194390407047202A04DB203A21FA02F09A
:1003F0000021704721FA02F3D040C2F1200291405F
:100400000843194670472DE9F05F824600780027BF
:1004100015468B460AF10104B946302801D09DB13A
:1004200013E014F8010B0127782803D0582801D0D5
:1004300045B10AE00DB1102D07D10027102514F8A1
:10044000010B02E0082500E00A250026B0460EE078
:1004500005FB080005FB06F1012701EB10461FFA1A
:1004600080F8B6F5803F00D3B94614F8010B294651
:1004700000F0F4F90028EBDABBF1000F05D00FB162
:10048000641E00E05446CBF80040B9F1000F06D0DE
:1004900005F056F802210160C81EBDE8F09F48EA49
:1004A0000640FAE72DE9FE4F804681EA0300C00FBF
:1004B0000C46009021F0004123F00045B8EB02000B
:1004C000A94105D24046214690461C460B460246AD
:1004D00023F00040104347D0270DC7F30A00C3F3B1
:1004E0000A510290401A019040286BDAC3F31300BE
:1004F00040F4801B0098924620B10023D2EB030AFF
:1005000063EB0B0B01985946C0F140025046FFF7D0
:100510005BFF06460D4650465946019A00F08CF99D
:1005200010EB08006141002487EA115284EAE77366
:100530001A4340D0009A62B3019A012A4FEA075247
:1005400015DC001B61EB02014FF0004202EA07528A
:10055000CDE90042001C41F5801132462B4600F0E7
:100560009AF903B0BDE8F08F40462146F9E7001B39
:1005700061EB0201001C41F5801300185B4120185B
:10058000A2F5001747EB030140EAD570B6196D419B
:1005900011E06D084FEA360645EAC0754FEA07528A
:1005A000001B61EB0201001C41F5801149084FEA74
:1005B00030000019514132462B4603B0BDE8F04FE0
:1005C00000F05AB90098012240000023D0EB02024B
:1005D00063EBE073009821464FEAE074B8EB00004B
:1005E00061EB0401E9E783F000435BE781F0004140
:1005F00058E72DE9FE4F81EA030404F0004421F09E
:10060000004100944FF0000B23F0004350EA010436
:100610005ED052EA03045BD0C3F30A54C1F30A5517
:100620002C44A4F2F3340194A0FB0254C1F313014F
:1006300041F48011C3F3130343F4801301FB02441C
:1006400000FB034E840A970A44EA815447EA835721
:10065000A4FB076802958D0A05FB07854FEA932CDA
:1006600004FB0C542705029D4FEA065847EA16374B
:10067000B5EB08056EEB070C870E920E47EA811763
:1006800042EA8312A7FB0201B6EB0B0164EB000404
:100690002B0D43EA0C335E1844EB1C50DA465146EE
:1006A000E7FB0201C5F313044FEA0B3343EA14538B
:1006B0004FEA0432019C43EA0603A4F10C040294BD
:1006C000009CCDE900B400F0E6F803B0BDE8F08F7F
:1006D00000200146F9E72DE9F04D81EA030404F01A
:1006E000004B21F0004514464FF0000A23F0004172
:1006F00050EA050220D054EA01021DD0C5F30A5782
:100700000246C5F31303C1F31300C1F30A5640F4C4
:10071000801543F48013A7EB0608101BD64608F299
:10072000FD3873EB050002D308F1010801E09218CF
:100730005B41B8F1000F03DA00200146BDE8F08DFF
:1007400000204FF48011064684460EE0171B73EB21
:10075000050705D3121B63EB050306434CEA010CA6
:1007600049084FEA300092185B4150EA0107EDD189
:1007700052EA030012D082EA040083EA050108432A
:1007800005D0101BAB4106D20122002306E0002257
:100790004FF0004302E06FF0010253101AEB060025
:1007A0004CEB085110EB0A0041EB0B01BDE8F04D9A
:1007B00000F062B8C1F30A52C1F3130140F2FF33F3
:1007C00041F480119A4202DA00200146704740F25B
:1007D00033439A42A2F2334202DC5242FFF703BE95
:1007E000FFF7F2BD30B5041E71F1000404DB4FF0D9
:1007F0000044404264EB0101141E73F1000405DB68
:100800001C464FF00043524263EB0403994208BF79
:10081000904230BD064C074D06E0E06840F0010311
:1008200094E8070098471034AC42F6D3FFF7C2FCB7
:10083000841A0408A41A0408202A06DBCB17203ADD
:1008400041FA02F043EAE07306E041FA02F3D040D5
:10085000C2F1200291400843194670473A2800D25D
:10086000303820F02002412A01D3A2F1370088421B
:1008700001D34FF0FF30704710B5141E73F1000420
:1008800008DA401C41F1000192185B411A4301D182
:1008900020F0010010BD2DE9F04D92469B4611B1AC
:1008A000B1FA81F202E0B0FA80F220329046FFF70E
:1008B0008BFD04460F4640EA0A0041EA0B0153460D
:1008C0005A46084313D0114653EA010019D0C8F123
:1008D00040025046FFF787FD05460E4650465946F2
:1008E0004246FFF771FD084305D0012004E0204691
:1008F0003946BDE8F08D0020054346EAE0762C43FA
:1009000037430A986305E40AA0EB08000022FD0AB9
:1009100044EA47540A3002D500200146E9E70105C0
:1009200010196941DDE9084500196941BDE8F04D3C
:10093000A2E770B58C1810F8015B15F0070301D120
:1009400010F8013B2A1106D110F8012B03E010F832
:10095000016B01F8016B5B1EF9D12B0705D4002355
:10096000521E0DD401F8013BFAE710F8013BCB1AF7
:10097000921C03E013F8015B01F8015B521EF9D5EC
:10098000A142D8D3002070BD01F00CFD00BFFEE7EE
:10099000704700002DE9F04106460C4617461D46FB
:1009A000DDF8188000202080288047E02188881901
:1009B000032227A1FFF799FC40B97B212A88501C0C
:1009C0002880B9542088C01C208037E021888819ED
:1009D000032220A1FFF789FC40B922212A88501C5C
:1009E0002880B9542088C01C208027E021888819DD
:1009F000032219A1FFF779FC40B97D212A88501CF8
:100A00002880B9542088C01C208017E021888819CC
:100A1000032212A1FFF769FC40B920212A88501C4B
:100A20002880B9542088C01C208007E02188481CF9
:100A30002080715C2A88501C2880B9542088305C42
:100A40000D2802D020884045B0DBBDE8F0810000D1
:100A50002537420025323200253744002532300048
:100A6000016801F58051896921F00202016801F5F0
:100A700080518A617047016801F58051896941F0B0
:100A80000202016801F580518A617047016801F531
:100A90008051896921F40052016801F580518A6111
:100AA0007047016801F58051896941F4005201687D
:100AB00001F580518A61704708B508490968C9087D
:100AC0004FF47A72B1FBF2F14143009100BF00BFD5
:100AD00000994A1E00920029F9D108BD800000202B
:100AE00038B5044600200090206800F580508069E9
:100AF00040F48011206800F580508161206800F585
:100B00008050806900900120FFF7D6FF009920688F
:100B100000F58050816138BD30B5034614795579B0
:100B200044EA0520084C0C442064D47824069578C7
:100B300044EA0544557844EA0524157844EA05005A
:100B4000014C0C44606430BD0080024070B5AEB012
:100B500004460E46002526B14FF40061E160C9004D
:100B6000A16000201190129013901490159016908F
:100B7000E06918B94FF48060179001E000201790E9
:100B80004FF400701890002019901A901B901C9040
:100B90001D9040201E9000201F90209021902290B8
:100BA0002390249025902690802027900020289044
:100BB00029902A902B902C902D90206805687148E0
:100BC0000540DDE9110108431399084314990843CE
:100BD000A16808431599084316990843E16808433A
:100BE0001799084318990843199908431A99084313
:100BF0001B990843054320680560206805680120AB
:100C000000F0BCFA20680560DDE91C0108431E996C
:100C100008431F99084320990843219908432299C2
:100C200008432399084321684860206845680120EB
:100C300000F0A4FA2068456024982168886025980F
:100C40002168C860206885694FF641700540DDE97C
:100C5000261040EA014028990843299908432A9917
:100C600008432B99084305432068856120688569FE
:100C7000012000F083FA20688561DDE92C0108433A
:100C80002168C8612068C569012000F077FA2068F2
:100C9000C561002001904FF0007002900020039089
:100CA0004FF40010049000200590069007900890E3
:100CB00004200990C0050A9040120B9080010C900E
:100CC00040120D9080200E9000200F901090206810
:100CD00000F5805085692C480540DDE90101084395
:100CE0000399084304990843059908430699084362
:100CF0000799084308990843099908430543206860
:100D000000F580508561206800F5805085690120DC
:100D100000F034FA206800F580508561DDE90A01B1
:100D200008430C9908430D9908430E9908430F99FD
:100D300040EA81001099084340F40001206800F562
:100D400080500160206800F580500568012000F0A7
:100D500015FA206800F580500560A069012809D1C6
:100D6000206800F58050C06908490843216801F5F2
:100D70008051C861002120466269FFF7CDFE2EB088
:100D800070BD00000F8120FF233FDEF8400001000E
:100D900038B50446002000902068006820F0040068
:100DA000216808602068006800900120FFF784FE39
:100DB00000982168086038BD38B5044600200090CE
:100DC0002068006840F0040021680860206800681E
:100DD00000900120FFF770FE00982168086038BD80
:100DE00038B50446002000902068006820F0080014
:100DF000216808602068006800900120FFF75CFE11
:100E000000982168086038BD38B50446002000907D
:100E10002068006840F008002168086020680068C9
:100E200000900120FFF748FE00982168086038BD57
:100E300010B5012001F08EF810BD10B5022001F0B0
:100E400089F810BD10B5042001F084F810BD10B56C
:100E5000082001F07FF810BD10B5102001F07AF8DD
:100E600010BD10B5202001F075F810BD72B600BF9E
:100E7000FEE7000010B5002201B909E0012901D107
:100E80000A0205E0022901D10A0201E04FF4407292
:100E90000B2800D9001D0E4B1B6823F440730C4C2B
:100EA000236023461B681343236023461B6823F0FB
:100EB000F803236023461B68022444EAC00423434A
:100EC000034C236023461B6843F48033236010BD2A
:100ED000103C02401C48006800F40070B0B11A4891
:100EE000006820F400701849086000BF08460068D8
:100EF00040F4006008600846006820F40060086064
:100F000000BF0846006840F4007008600E480068A2
:100F100000F48060B0B10C48006820F480600A4999
:100F2000086000BF0846006840F48050086008462A
:100F3000006820F48050086000BF0846006840F454
:100F40008060086070470000003C0240134A12684D
:100F500022F44072114B1A60032906D11A46126816
:100F6000DB131A430D4B1A600EE0012906D10B4A20
:100F7000126842F00402094B1A6005E0074A126841
:100F800042F40042054B1A60044A12684FF4803361
:100F900043EA00231A43014B1A607047103C024099
:100FA000074A126822F44072054B1A601A4612680A
:100FB0001A601A46126842F001021A600170704706
:100FC000103C024010B50D49096821F440710B4CEA
:100FD00021602146096841F4407121602146096879
:100FE00041F001012160026000BF00BF00BFBFF3FC
:100FF0006F8F00BF00BF00BF436010BD103C0240B8
:10100000084A126822F44072064B1A601A461268A7
:1010100042F480721A601A46126842F001021A60A5
:1010200001807047103C0240084A126822F4407266
:10103000064B1A601A46126842F400721A601A4689
:10104000126842F001021A6001607047103C0240D1
:101050002A48006800F0100040B12948C06940F0FB
:1010600010002749C86110202449086023480068FF
:1010700000F0200040B12248C06940F0080020493B
:10108000C86120201D4908601C48006800F040002D
:1010900040B11B48C06940F004001949C8614020B4
:1010A000164908601548006800F0800040B11448F7
:1010B000C06940F002001249C86180200F490860F1
:1010C0000E48006800F4807048B10D48C06940F0D7
:1010D00001000B49C8614FF4807008490860074857
:1010E000006800F0020040B10548C06940F02000EF
:1010F0000349C86102200149086070470C3C024066
:101100008438002070B50446002500201449C861C9
:1011100001F04CF8054609E0601C38B124B101F03B
:1011200045F8401BA04201D9032070BD0D4800685E
:1011300000F480300028EFD10A48006800F0010078
:1011400010B10120074908600648006800F4F970F2
:1011500018B1FFF77DFF0120E7E70020E5E7000079
:10116000843800200C3C024002468A4201D2881A90
:101170007047C2F1FF300844401CF9E770B50446DF
:1011800001F014F806462546681C10B104480078A2
:10119000054400BF01F00AF8801BA842FAD370BDD5
:1011A0007C00002070B505460C46002600BF95F86F
:1011B0004500012801D1022070BD012085F84500BD
:1011C00000BF022085F84400002C6DD02868066816
:1011D00043480640D4E900010843A1680843E16898
:1011E0000843A96808432169084361690843E9681D
:1011F0000843A1690843E1690843216A0843616A19
:101200000843A16A08430643286806602868066800
:101210000120FFF7B3FF28680660D4E90B010843FB
:10122000616B0843A16B0843E16B0843216C0843E1
:10123000616C0843A16C08432968486028684668C7
:101240000120FFF79BFF28684660E06C29688860F2
:10125000206D2968C860286886694FF6417006408D
:10126000B4F85410A06D40EA0140E16D0843216ECE
:101270000843616E0843A16E0843064328688661EF
:10128000286886690120FFF779FF28688661D4E91C
:101290001B0108432968C8612868C6690120FFF757
:1012A0006DFF2868C66110E02868066826F490463D
:1012B000D5E90201084306432868066028680668E5
:1012C0000120FFF75BFF28680660012085F84400D5
:1012D00000BF002085F8450000BF00BF6CE700009C
:1012E0000F8120FF70B504460D461646002200BF50
:1012F00094F84500012801D1022070BD012084F836
:10130000450000BF022084F84400A56200221FE0CF
:1013100005EB42114FF00040086044F2F450486081
:10132000C2EBC21000EB400006EB80008860A069B1
:10133000012803D1486820F000404860581E9042C0
:1013400004D905EB42102030C86000E0CD60521C8B
:101350009A42DDD3206800F58050C560012084F8F2
:10136000440000BF002084F8450000BF00BFC4E770
:1013700070B504460D461646002200BF94F845009D
:10138000012801D1022070BD012084F8450000BF72
:10139000022084F84400E56200221BE005EB4211C4
:1013A0004FF480100860C2EBC21000EB400006EB67
:1013B00080008860E06918B9086840F4400008605F
:1013C000581E904204D905EB42102030C86000E05E
:1013D000CD60521C9A42E1D3206800F5805005612F
:1013E000012084F8440000BF002084F8450000BFBD
:1013F00000BFC8E70146002200BF91F84500012860
:1014000001D102207047012081F8450000BF022071
:1014100081F84400886A006800F00040002838D154
:10142000886A006800F48070F0B1886B401C8863A3
:10143000886B012801D1886A08638B6A4B63886ACC
:101440000068C0F30D40021FCA63086B83680B6419
:10145000886AC0688862012081F8440000BF0020CB
:1014600081F8450000BFCDE7886A006800F400708D
:1014700048B1886A086300234B6301238B63886A41
:10148000C068886205E0886B401C8863886AC06811
:101490008862012081F8440000BF002081F84500E7
:1014A00000BF0120AEE700002DE9FC410446002505
:1014B000002001909D4E0027804614B90120BDE810
:1014C000FC8194F8440028B9002084F845002046A7
:1014D00000F03AF900BF002000909548006840F401
:1014E0008040934908600846006800F480400090FE
:1014F00000BF00BF8F48006820F400008D490860DD
:1015000008460068216A08438A490860206800F597
:101510008050006840F00101206800F580500160B3
:1015200000F044FE07460FE000F040FEC01BB0F59F
:10153000FA7F09D9032084F8440000BF002084F812
:10154000450000BF0320BAE7206800F5805000681E
:1015500000F001000028E7D12068056925F01C058E
:1015600001F026F806467448864205D37348864241
:1015700002D245F008051AE07048864205D36B4850
:10158000864202D245F00C0511E06848864203D33A
:101590006B48864200D20AE06948864205D3694812
:1015A000864202D245F0040501E045F010052068AE
:1015B00005614FF400420021204600F0C1FA48B115
:1015C0004FF0010841462046FFF7C0FA012084F899
:1015D000440074E7FF20FFF7D1FD6068002871D058
:1015E00000F0E4FD074600BF01AA0121204600F0FB
:1015F0006DF900F0DBFDC01B41F2883188420FD944
:101600004FF0010841462046FFF7A0FA012084F878
:10161000440000BF002084F8450000BF03204EE7CF
:10162000019800F004000428DED182020021204647
:1016300000F086FA48B14FF0010841462046FFF716
:1016400085FA012084F8440039E700F0AFFD074631
:1016500000BF01AA0121204600F038F900F0A6FDE4
:10166000C01B41F2883188420FD94FF00108414632
:101670002046FFF76BFA012084F8440000BF0020E9
:1016800084F8450000BF032019E7019800F020000E
:101690002028DED101AA1021204600F017F948B118
:1016A0004FF0010841462046FFF750FA012084F828
:1016B000440004E7019800F0040020B14FF40061F9
:1016C000E16002E00DE00021E160019800F002001D
:1016D000022802D10021A1601EE04FF48041A160E8
:1016E0001AE0E068C0F3CF00A168C1F34F0140EAFF
:1016F00001020021204600F023FA48B14FF0010812
:1017000041462046FFF722FA012084F84400D6E63D
:1017100040F6FF70FFF732FD41462046FFF716FA0C
:10172000012084F844000020C9E6000000879303EC
:101730004438024004380140002D3101C00E160229
:1017400000E1F50580D1F00810B586B004461421FB
:1017500001A8FEF7B8FD5749206888427ED100BF36
:1017600000BF002000905448006840F000705249CB
:1017700008600846006800F00070009000BF00BFDD
:1017800000BF002000900846006840F080600860BC
:101790000846006800F08060009000BF00BF00BFF6
:1017A000002000900846006840F00060086008468D
:1017B000006800F00060009000BF00BF00BF00BFE5
:1017C000002000900846006840F0040008600846C9
:1017D000006800F00400009000BF00BF00BF0020C0
:1017E00000900846006840F0010008600846006864
:1017F00000F00100009000BF00BF00BF002000907B
:101800000846006840F0020008600846006800F0E2
:101810000200009000BF00BF00BF002000900846FB
:10182000006840F0400008600846006800F0400092
:10183000009000BF00BF32200190022002900020E3
:101840000390032004900B20059001A91B4800F091
:101850008FFB862001900220029000E027E000200C
:101860000390032004900B20059001A9144800F078
:101870007FFB4FF400500190022002900020039063
:10188000032004900B20059001A90E4800F070FB86
:101890004FF420500190022002900020039003207A
:1018A00004900B20059001A9074800F061FB06B0E9
:1018B00010BD0000008002403038024000080240A5
:1018C0000000024000040240001802402DE9F041EF
:1018D00004460E4617460025A84694F84400822880
:1018E00002D10220BDE8F081822084F84400206803
:1018F000056905F01C05208A4FF4784101EAC020F3
:101900000543481100EA8610054325F0020545F01D
:1019100001052068056100F049FC804612E000F0F6
:1019200045FCA0EB0800B0F5803F09D3012084F806
:10193000440000BF002084F8450000BF0320D1E729
:101940002068056905F001000028E8D12068406999
:1019500080B23860012084F844000020C2E710B54E
:10196000044600BF94F84500012801D1022010BDB3
:10197000012084F8450000BF022084F8440020467E
:10198000FFF742FA2046FFF717FA2046FFF7A8F8BC
:101990002046FFF786F82046FFF76DF8012084F80F
:1019A000440000BF002084F8450000BF00BFDEE710
:1019B00010B5044600BF94F84500012801D102206B
:1019C00010BD012084F8450000BF022084F84400C7
:1019D0002046FFF75BF82046FFF742F82046FFF766
:1019E000D7F92046FFF77CF82046FFF7F9F90120E8
:1019F00084F8440000BF002084F8450000BF00BF09
:101A0000DEE770B5024600230025002400BF92F8EF
:101A10004500012801D1022070BD012082F8450057
:101A200000BF022082F8440049B9012082F8440036
:101A300000BF002082F8450000BF0120ECE7D06A1B
:101A4000006800F0004048B1122082F8440000BF56
:101A5000002082F8450000BF0120DDE740F2F4508D
:101A6000814208D9B1FBF0F3B1FBF0F600FB161090
:101A700010B15B1C00E00123012B13D1D06A006878
:101A800040F04050D66A3060C1F30C00D66A7060F6
:101A9000D06A006840F00040D66A3060D06AC06802
:101AA000D06232E000242EE0D06A006820F040507E
:101AB000D66A30602CB9D06A006840F08050D66A8F
:101AC000306040F2F450D66A7060581EA04210D1C7
:101AD000D06A006840F00050D66A3060581EC0EBF3
:101AE000C01000EB4000A1EB8005C5F30C00D66AE6
:101AF0007060D06A006840F00040D66A3060D06AFA
:101B0000C068D062641C9C42CED3106800F580503F
:101B1000406900F0040048B10426106800F58050C8
:101B200046610026106800F580504660012082F86A
:101B3000440000BF002082F8450000BF00BF6BE7F3
:101B40002DE9F04104460E4617460025A84694F8B4
:101B50004400422802D10220BDE8F081422084F8EE
:101B600044002068056905F01C05208A4FF478417F
:101B700001EAC0200543481100EA8610054345F0FC
:101B8000020545F00105B8B2216848612068056189
:101B900000F00CFB804612E000F008FBA0EB080010
:101BA000B0F5803F09D3012084F8440000BF002035
:101BB00084F8450000BF0320CEE72068056905F0E2
:101BC00001000028E8D1012084F844000020C3E788
:101BD0002DE9F04104460E460127002500BF2648A6
:101BE000007E012802D10220BDE8F08101202249B7
:101BF000087600BF4CF25030FFF784FA0746002FFA
:101C000032D1401E30602068012810D1207C6168EC
:101C1000FFF79CF94CF25030FFF774FA074617486B
:101C2000006848F204018843144908601AE0A56876
:101C300012E0217C2846FFF71DF94CF25030FFF7E7
:101C400061FA07460D48006820F0FA000B49086069
:101C50000FB1356005E06D1CD4E902100844A842BC
:101C6000E7D800BFFFF736F900BF00200249087629
:101C700000BF3846B8E7000084380020103C02401E
:101C80000348006840F000400149086000207047A8
:101C9000103C02402DE9F04106460F4614461D4611
:101CA0004FF0010800BF1F48007E012802D102202A
:101CB000BDE8F08101201B49087600BF4CF250308E
:101CC000FFF720FA8046B8F1000F23D126B9E1B220
:101CD0003846FFF765F912E0012E04D1A1B238466B
:101CE000FFF78EF90BE0022E04D121463846FFF7AC
:101CF0009BF904E022462B463846FFF763F94CF285
:101D00005030FFF7FFF980460748006820F00100D7
:101D10000549086000BF00200249087600BF404620
:101D2000C6E7000084380020103C0240002009492A
:101D3000096801F0004159B10749064A0C3A11609F
:101D4000064911600349096801F0004101B1012011
:101D500070470000103C024023016745AB89EFCD7E
:101D600000B50346012B26D1794890F84803C8B145
:101D7000774890F84503012814D07548807900F021
:101D8000800018B181207249887105E001207049F6
:101D90008871002004F032F86D480069401C6C49DD
:101DA0000861D4E06A4890F8440340F001006849B3
:101DB00081F84403CBE0022B26D1654890F8480314
:101DC000C8B1634890F84503022814D06048C07930
:101DD00000F0800018B181215D48C17105E001214A
:101DE0005B48C171012004F009F859480069401CA2
:101DF00057490861ABE0564890F8440340F00200B0
:101E0000534981F84403A2E0042B26D1504890F8AE
:101E10004803C8B14E4890F84503032814D04C48F5
:101E2000007A00F0800018B181214948017205E074
:101E3000012147480172022003F0E0FF4448006995
:101E4000401C4349086182E0414890F8440340F057
:101E500004003F4981F8440379E0082B26D13C482F
:101E600090F84803C8B13A4890F84503042814D0C4
:101E70003748407A00F0800018B18121344841721F
:101E800005E0012132484172032003F0B7FF3048DA
:101E90000069401C2E49086159E02D4890F8440320
:101EA00040F008002A4981F8440350E0102B26D165
:101EB000274890F84803C8B1254890F845030528FD
:101EC00014D02348807A00F0800018B18121204886
:101ED000817205E001211E488172042003F08EFF0B
:101EE0001B480069401C1A49086130E0184890F806
:101EF000440340F01000164981F8440327E0202BEA
:101F000025D1134890F84803C8B1114890F845030B
:101F1000062814D00E48C07A00F0800018B1812144
:101F20000B48C17205E001210948C172052003F088
:101F300065FF07480069401C0549086107E004483F
:101F400090F8440340F02000014981F8440300BDAB
:101F5000C801002010B5044604480068204020B1A4
:101F6000024804602046FFF7FBFE10BD143C014010
:101F7000F8B502460B460025002400200021DFE0D2
:101F8000012606FA01F51E6806EA0504AC4274D182
:101F90001E7906F00306012E04D01E7906F0030612
:101FA000022E13D190684F000326BE40B0434F006D
:101FB000DE68BE4030439060506801268E40B043DA
:101FC0001E79C6F300168E40304350601E7906F02D
:101FD0000306032E09D0D0684F000326BE40B0434D
:101FE0004F009E68BE403043D0601E7906F0030665
:101FF000022E13D1CF0802F1200656F827004E0713
:10200000F70E0F26BE40B0434F07FF0E1E69BE40BD
:102010003043CF0802F1200646F8270010684F0031
:102020000326BE40B0431E7906F003064F00BE40B3
:10203000304310605E6806F44036002E7FD000BF4B
:1020400000260096404E366846F480463E4F3E607D
:102050003E46366806F48046009600BF00BF3B4E01
:102060008F0856F827008E07370F0F26BE40B04363
:10207000374EB24202D100262EE060E0354EB24229
:1020800001D1012628E0344EB24201D1022623E0DC
:10209000324EB24201D103261EE0314EB24201D18E
:1020A000042619E02F4EB24201D1052614E02E4E2F
:1020B000B24201D106260FE02C4EB24201D10726D2
:1020C0000AE02B4EB24201D1082605E0294EB24269
:1020D00001D1092600E00A268F073F0FBE4030439A
:1020E0001A4E8F0846F82700234E3068A0435E68DA
:1020F00006F4803606B120431F4E3060361D30682E
:10210000A0435E6806F4003606B120431A4E361D21
:102110003060361D3068A0435E6806F4801606B154
:102120002043154E08363060361D3068A0435E6887
:1021300006F4001606B120430F4E0C363060491CE1
:102140001029FFF41DAFF8BD4438024008380140A3
:10215000000002400004024000080240000C02405F
:10216000001002400014024000180240001C02400F
:102170000020024000240240003C01400246136956
:102180000B400BB1012000E00020704710B5426900
:1021900021EA020302EA010443EA0443836110BD19
:1021A0000AB1816101E00B04836170470148006856
:1021B0007047000074000020034800680349097854
:1021C0000844014908607047740000207C0000202A
:1021D00010B50D48006840F400700B4908600846CF
:1021E000006840F4806008600846006840F4807031
:1021F0000860032000F0C2F8002000F007F800F0AB
:102200004BF8002010BD0000003C024070B588B0C3
:1022100004460025002600222146192000F070F80F
:10222000192000F05DF800BF0020019016480068FA
:1022300040F40030144908600846006800F400309B
:10224000019000BF00BF02A903A800F08FF900F0C1
:10225000B5F945000D48B5FBF0F0461E0C480D4998
:10226000086040F2E7310B48C1604660002101611F
:10227000816000F0B5FC20B9064800F02FFD08B0E1
:1022800070BD0120FBE700004438024040420F00CF
:10229000004401402007002008B500BF0020009046
:1022A0000E48006840F480400C4908600846006809
:1022B00000F48040009000BF00BF00BF00200090ED
:1022C000081F006840F08050091F08600846006839
:1022D00000F08050009000BF00BF08BD44380240AD
:1022E00001460846002809DB00F01F0301229A403E
:1022F00043099B0003F1E023C3F8002100BF7047AE
:102300002DE9F05F80460D461646002703F0DCF805
:10231000074639462A46334601F00700C0F1070A4E
:10232000BAF1040F02D94FF0040A01E0C0F1070A24
:10233000D14600F1040ABAF1070F02D24FF0000AA9
:1023400001E0A0F1030AD4464FF0010A0AFA09FAA3
:10235000AAF1010A0AEA020A0AFA0CFA4FF0010B82
:102360000BFA0CFBABF1010B0BEA030B4AEA0B0473
:102370002146404603F0B0F8BDE8F09F00BF00F0F2
:102380000702064B19684FF6FF031940044B0B4335
:1023900043EA0221014B196000BF70470CED00E0D9
:1023A0000000FA0500BF00BF00BF00BF00BFBFF3C1
:1023B0004F8F00BF00BF00BF0948006800F4E06015
:1023C00008490843001D0649086000BF00BF00BF60
:1023D000BFF34F8F00BF00BF00BF00BF00BFFDE7CE
:1023E0000CED00E00000FA0570B504460D460CB98E
:1023F000012070BD5848006800F00F00A84209D2C3
:1024000055490D700846006800F00F00A84201D041
:102410000120EEE7207800F0020002281DD120788C
:1024200000F00400042805D14C48006840F4E05056
:102430004A490860207800F00800082805D147487C
:10244000006840F46040454908604448006820F056
:10245000F000A168084341490860207800F00100BD
:10246000A8B36068012807D13C4808380068C0F369
:102470004040B8B90120BCE76068022802D060681B
:10248000032807D1354808380068C0F3406048B9D0
:102490000120AEE7314808380068C0F3400008B9B1
:1024A0000120A6E72D48006820F00300616808437A
:1024B0002A490860FFF77AFE064609E0FFF776FE34
:1024C000801B41F28831884202D9032091E707E05E
:1024D0002248006800F00C006168B0EB810FEDD17C
:1024E0001D48006800F00F00A84209D91A490D7074
:1024F0000846006800F00F00A84201D0012078E7EC
:10250000207800F00400042807D11448006820F463
:10251000E050E168084311490860207800F00800A5
:10252000082808D10D48006820F46040216940EA7D
:10253000C1000A49086000F051F808490968C1F370
:102540000311074A515CC840064908600648006804
:10255000FFF75CFE00204CE7003C024008380240D8
:102560002814040880000020780000200F22026058
:102570000D4A126802F0030242600B4A126802F030
:10258000F0028260084A126802F4E052C260064A11
:10259000126802F46042D2080261044A126802F032
:1025A0000F020A607047000008380240003C0240F9
:1025B00001480068704700008000002000B5FFF768
:1025C000F7FF04490968C1F34231034A515CC8402E
:1025D00000BD000008380240381404082DE9F04717
:1025E000002400250026A1462548006800F00C00C4
:1025F00020B1042805D008283AD105E0DFF88490FE
:1026000039E0DFF8849036E01D48001F006800F0D4
:102610003F041B48001F006800F4800078B11A488E
:102620001749091F0968C1F38811A0FB0170014611
:10263000224600233846FDF7D7FD05460EE0114837
:102640000F49091F0968C1F38811A0FB01700146F9
:10265000224600233846FDF7C7FD05460848001FFF
:102660000068C0F30140401C4600B5FBF6F902E0EB
:10267000DFF8109000BF00BF4846BDE8F0870000BB
:10268000083802400024F40000127A00F8B504462D
:102690000CB90120F8BD207800F00100002874D0AA
:1026A000F948006800F00C0004280DD0F6480068D6
:1026B00000F00C00082813D1F348001F006800F454
:1026C0008000B0F5800F0BD1EF4808380068C0F3E8
:1026D0004040002859D06068002856D10120D9E731
:1026E00000BF6068B0F5803F08D1E748083800684F
:1026F00040F48030E449083908601EE06068B0F5B5
:10270000A02F0DD1E0480838006840F48020DE4951
:10271000083908600846006840F4803008600CE022
:10272000D9480838006820F48030D7490839086053
:102730000846006820F48020086000BF606890B1FF
:10274000FFF734FD054606E0FFF730FD401B642827
:1027500001D903209EE7CC4808380068C0F3404008
:102760000028F1D011E0FFF721FD054606E0FFF754
:102770001DFD401B642801D903208BE7C24808389F
:102780000068C0F340400028F1D1207800F002003A
:1027900002285FD1BC48006800F00C0058B1BA486C
:1027A000006800F00C0008281CD1B748001F006822
:1027B00000F48000B0B9B44808380068C0F34000A5
:1027C00020B1E068012801D0012063E7AE48083855
:1027D000006820F0F800216940EAC100AA490839E0
:1027E000086037E0E06800B30120A8490860FFF7FF
:1027F000DDFC054606E0FFF7D9FC401B022801D9A5
:10280000032047E7A04808380068C0F340000028CC
:10281000F1D09D480838006820F0F800216940EAAE
:10282000C10099490839086014E000209749086000
:10283000FFF7BCFC054606E0FFF7B8FC401B02288A
:1028400001D9032026E7904808380068C0F340000B
:102850000028F1D1207800F0080008282CD1606908
:10286000A8B101208A490860FFF7A0FC054606E0F0
:10287000FFF79CFC401B022801D903200AE782488D
:102880006C300068C0F340000028F1D014E0002054
:102890007F490860FFF78AFC054606E0FFF786FCE3
:1028A000401B022801D90320F4E677486C30006809
:1028B000C0F340000028F1D1207800F00400042883
:1028C00070D1002770483830006800F0805090B90F
:1028D00000BF002000906C483830006840F0805005
:1028E0006949383108600846006800F0805000905F
:1028F00000BF00BF01276748006800F48070B0B9CE
:102900006448006840F4807062490860FFF74EFC3C
:10291000054606E0FFF74AFC401B022801D90320C8
:10292000B8E65C48006800F480700028F2D000BF70
:10293000A068012808D154486830006840F00100C0
:102940005149683108601DE0A06805280DD14E4846
:102950006830006840F004004B4968310860084660
:10296000006840F0010008600CE0474868300068EB
:1029700020F001004449683108600846006820F0F2
:102980000400086000BFA068A8B1FFF70FFC05466F
:1029900009E0FFF70BFC401B41F28831884202D965
:1029A000032077E626E0384868300068C0F340002E
:1029B0000028EED013E0FFF7F9FB054608E0FFF72B
:1029C000F5FB401B41F28831884201D9032061E6C2
:1029D0002D4868300068C0F340000028EFD1012F77
:1029E00007D129483830006820F080502649383116
:1029F000086000BFA069002845D02348006800F0A7
:102A00000C0008285DD0A069022845D100201F498C
:102A10000866FFF7CBFB054606E0FFF7C7FB401B48
:102A2000022801D9032035E6174808380068C0F3AA
:102A300040600028F1D1D4E907010843616A40EA07
:102A400081110122A06AC2EB500041EA00412C2012
:102A5000005D41EA00600C49091F086001200B4934
:102A60000866FFF7A3FB054606E0FFF79FFB401B48
:102A7000022801D903200DE6034808380068C0F396
:102A800040600028F1D049E0083802400000474289
:102A9000800E474200700040002021490866FFF781
:102AA00085FB054606E0FFF781FB401B022801D9A4
:102AB0000320EFE51B480068C0F340600028F2D116
:102AC0002CE0A069012800D1E4E51648001D066845
:102AD000A069012820D006F48001E06981421BD161
:102AE00006F03F01206A814216D147F6C07030409F
:102AF000616AB0EB811F0FD106F440310122A06A58
:102B0000C2EB5000B1EB004F06D106F070612C20F3
:102B1000005DB1EB006F01D00120BBE50020B9E5FD
:102B200000004742003802407047704730B5024607
:102B30000B4600BF92F83C00012801D1022030BDB5
:102B4000012082F83C0000BF022082F83D0010689E
:102B500044681068816824F07004186804431068A1
:102B60004460184D1068A8421BD01068B0F1804F27
:102B700017D0154D1068A84213D0144D1068A84204
:102B80000FD0134D1068A8420BD0124D1068A84208
:102B900007D0114D1068A84203D0104D1068A8420C
:102BA00005D121F08001586801431068816001203F
:102BB00082F83D0000BF002082F83C0000BF00BF4B
:102BC000BDE7000000000140000400400008004094
:102BD000000C00400004014000400140001800408B
:102BE00010B504460CB9012010BD94F83D0028B979
:102BF000002084F83C00204600F026F8022084F8EB
:102C00003D00211D206802F0DFFA012084F8460013
:102C100000BF84F83E0001213F20015540200155AE
:102C20004120015500BF00BF012084F8420043202D
:102C30000155442001554520015500BF012084F86D
:102C40003D000020D0E7000010B586B004461421F6
:102C500001A8FDF738FB1E492068884236D100BF25
:102C6000002000901B48006840F0080019490860E7
:102C70000846006800F00800009000BF00BF00BFD9
:102C80000020009013481038006840F001001149FE
:102C9000103908600846006800F00100009000BF8D
:102CA00000BF0920019002200290039003200490AD
:102CB0000220059001A90848FFF75AF900221146A1
:102CC0003220FFF71DFB3220FFF70AFB06B010BDD4
:102CD000000C00404038024000000240014691F8DC
:102CE0003D00012801D001207047022081F83D00FD
:102CF0000868C06840F001000B68D8601A4B08688B
:102D000098421BD00868B0F1804F17D0174B086865
:102D1000984213D0164B086898420FD0154B08689C
:102D200098420BD0144B0868984207D0134B0868A0
:102D3000984203D0124B086898420CD1086880680A
:102D400000F00702062A0CD00868006840F0010075
:102D50000B68186005E00868006840F001000B6827
:102D600018600020C0E7000000000140000400409F
:102D700000080040000C00400004014000400140F9
:102D8000001800402DE9F04104460D46002700BF21
:102D900094F83C00012802D10220BDE8F081012016
:102DA00084F83C0000BF022084F83D00206886685B
:102DB00026F0770626F47F4620688660286850282B
:102DC00033D00CDC202850D004DC00284BD0102855
:102DD00051D149E0302849D040284CD139E0602811
:102DE0002DD0702807D0B0F5805F03D0B0F5005F1C
:102DF00041D10DE041E0D5E902136A68206802F094
:102E000060FA2068866846F077062068866034E0BD
:102E1000D5E902136A68206802F053FA20688068D6
:102E200040F480402168886027E0EA68696820688B
:102E300002F05BFA5021206802F04EFA1DE0EA68C9
:102E40006968206802F0ACFA6021206802F044FA58
:102E500013E0EA686968206802F047FA40212068B8
:102E600002F03AFA09E000BF00BF00BF29682068FD
:102E700002F032FA01E0012700BF00BF012084F810
:102E80003D0000BF002084F83C0000BF384684E7C6
:102E900070B5BCB00546FE492868096888427BD1F8
:102EA000287F012879D10021284600F045FFF94903
:102EB00091F849232C3141F82200F64890F8490353
:102EC00018B9F448D0F8140107E0F24890F8490323
:102ED000401EF0492C3151F820000646ED4890F88C
:102EE00049232C3050F822103046FEF73DF9E949CD
:102EF00091F8492301F59A7141F82200E54890F8CC
:102F0000491300F59A7050F8210000EE100AB8EE4F
:102F1000400ADFEDE10A20EE200ADFEDE00A80EE54
:102F2000201ADC4890F8491300F50F7000EB81007F
:102F300080ED001A0020DA490860DA490860D548B7
:102F400090F84903D8490860002016E0D749D64ACE
:102F5000126851F82210D34A12681144D14A116004
:102F6000D149096819B93A21CF4A116004E0CE4924
:102F70000968491ECC4A1160401C3B28E6DBC94861
:102F800000683C21B0FBF1F0C5490860C84890EDED
:102F9000000AB8EE400A01E0E2E2E2E2DFEDC50A33
:102FA00060EE200A084690ED000AB8EE400AF4EE02
:102FB000C00AF1EE10FA76D2BD4890ED000AB8EEE4
:102FC000400ADFEDBD0A60EE200A084690ED000AD7
:102FD000B8EE400AF4EEC00AF1EE10FA63DD002408
:102FE00063E0AF4890ED000AB8EE400ADFEDB30AA7
:102FF00060EE200AAD4850F8240000EE100AB8EE4A
:10300000400AF4EEC00AF1EE10FA4DD2A44890ED59
:10301000000AB8EE400ADFEDAA0A60EE200AA348D3
:1030200050F8240000EE100AB8EE400AF4EEC00A90
:10303000F1EE10FA38DD002C34DD9B4804603B22B1
:103040009A4901A8FDF718F9002013E096490A688B
:103050000968491C944B196001A951F82220934931
:1030600041F82020194609683B2902D100211A465F
:103070001160401C3B28E9DB864890F84903A042D8
:1030800008DA844890F849033B30001B814981F8F5
:10309000490306E07F4890F84903001B7D4981F809
:1030A000490300BF03E048E2641C3B2C99DB00BFEE
:1030B0003B2C14D1774890F84903401CC0B27549A5
:1030C00081F849033B2802D1002081F849033F20C1
:1030D000704981F8460302F0F1FF3CB070BD6D48C5
:1030E00090F8480398B96B4890F84903401CC0B267
:1030F000684981F849033B2802D1002081F849033F
:103100003F20644981F8460302F0D8FFE5E700203C
:10311000604981F84603084690F84903322847D1B0
:10312000084690F84503032810D1084690F8440358
:1031300000F0040030B9012088700846C068401CC7
:10314000C86019E000205349887015E0514890F894
:103150004503042810D14F4890F8440300F00800BC
:1031600038B901204B49C8700846C068401CC86087
:1031700002E000204749C870464890F845030128FE
:1031800008D1444890F8440320F00100414981F8F7
:103190004403D1E13F4890F845030628F9D13D4862
:1031A00090F8440320F020003A4981F84403C3E139
:1031B000384890F84903052857D1364890F8450318
:1031C000012826D10121334A82F8461300203221FA
:1031D00004E0364A52F821201044491C3B29F8DB10
:1031E000002104E0314A52F821201044491C0529ED
:1031F000F8DB00EE100AB8EE400ADFED270A20EEF9
:10320000200ADFED260A80EE201A224981ED081AF5
:1032100092E1204890F845030628BAD120211D4AA2
:1032200082F846130020322104E0204A52F821207F
:103230001044491C3B29F8DB002104E01B4A52F8EA
:1032400021201044491C0529F8DB00EE100AB8EED5
:10325000400ADFED110A20EE200ADFED100A80EEB1
:10326000201A0C4981ED071A66E10A4890F84903D3
:103270000A2863D1074890F8450301282CD1054856
:1032800090F8440300F0010010BB0120014919E04F
:1032900038010020C801002000007A44A037A04C6B
:1032A00044000020480000204C000020FC020020C8
:1032B000340000209A99593F3333933FCDCCCC3F13
:1032C0009A99194008700846C068401CC86019E007
:1032D0000020FE49087015E0FC4890F845030628D8
:1032E00010D1FA4890F8440300F0200038B90120CA
:1032F000F64948710846C068401CC86002E00020DA
:10330000F2494871F14890F84503022808D1EF4886
:1033100090F8440320F00200EC4981F844030BE1EB
:10332000EA4890F8450305289ED1E84890F8440300
:1033300020F01000E54981F84403FDE0E34890F8EF
:103340004903192845D1E14890F8450302281DD1C9
:103350000221DE4A82F8461300200A2104E0DC4AFA
:1033600052F821201044491C1929F8DB00EE100AFC
:10337000B8EE400A5FED380A20EE200A5FED390A08
:1033800080EE201AD14981ED0A1AD5E0CF4890F895
:1033900045030528C3D11021CC4A82F846130020EA
:1033A0000A2104E0CA4A52F821201044491C192974
:1033B000F8DB00EE100AB8EE400A5FED490A20EE95
:1033C000200A5FED4A0A80EE201AC04981ED051AF5
:1033D000B2E0BE4890F849031E2848D1BB4890F897
:1033E0004503022811D1B94890F8440300F00200C7
:1033F00038B90120B54948700846C068401CC8600B
:1034000019E00020B149487015E0B04890F8450334
:10341000052810D1AD4890F8440300F0100038B9E9
:103420000120AA4908710846C068401CC86002E033
:103430000020A6490871A54890F84503032808D143
:10344000A24890F8440320F00400A04981F8440306
:1034500072E09E4890F8450304286DD19B4890F88F
:10346000440320F00800994981F8440364E0974838
:1034700090F849032D2845D1944890F84503032836
:103480001DD10421914A82F8461300201E2104E038
:103490008F4A52F821201044491C2D29F8DB00EEF8
:1034A000100AB8EE400A5FED840A20EE200A5FEDB4
:1034B000850A80EE201A854981ED091A3CE083488F
:1034C00090F84503042837D10821804A82F8461332
:1034D00000201E2104E07E4A52F821201044491C9D
:1034E0002D29F8DB00EE100AB8EE400A5FED960ACF
:1034F00020EE200A5FED970A80EE201A734981EDD5
:10350000061A19E0714890F849033A2814D16F4817
:1035100090F84503032805D1EC226E496E48FCF76C
:10352000ABFE09E0694890F84503042804D1EC2279
:1035300068496A48FCF7A0FE03E03F20634981F830
:103540004603624890F84903401CC0B25F4981F8C5
:1035500049033B2802D1002081F8490302F0AEFD67
:103560008FE1287F0828FBD10C21284600F0E4FBDE
:10357000564991F84A2301F58C7141F822005348CD
:1035800090F84A0318B95148D0F8300107E04F4885
:1035900090F84A03401E4E491C3951F82000064657
:1035A0004A4890F84A2300F58C7050F822103046B3
:1035B000FDF7DAFD454991F84A2301F5087141F814
:1035C0002200424890F84A1300F5087050F8210094
:1035D00000EE100AB8EE400A5FEDD10A20EE200A94
:1035E0005FEDD20A80EE201A384890F84A1300F5B1
:1035F0004A7000EB810080ED001A00203849086015
:10360000324890F84A0337490860002017E03149F2
:103610001C39344A126851F82210314A1268114498
:103620002F4A11602F49096819B906212D4A1160E6
:1036300004E02C490968491E2A4A1160401C0728E9
:10364000E5DB294890ED000AB8EE400A5FEDE70A95
:1036500060EE200A224890ED000AB8EE400AF4EE2F
:10366000C00AF1EE10FA72D21F4890ED000AB8EECF
:10367000400A5FEDEF0A60EE200A194890ED000A5B
:10368000B8EE400AF4EEC00AF1EE10FA5FDD012058
:103690000E4981F84803002488E00E481C3850F891
:1036A000240000EE100AF8EE400A0D4890ED000AE2
:1036B000B8EE400A9FED0D1A20EE010A9FED0C1A9C
:1036C00020EE010AF4EEC00A14E00000C801002058
:1036D000FC02002004040020140500200006002045
:1036E000500000205400002038000020398E633D37
:1036F0003333733FF1EE10FA57DD634850F824007E
:1037000000EE100AF8EE400A604890ED000AB8EEAC
:10371000400A1FED0A1A20EE010A9FED5D1A20EE05
:10372000010AF4EEC00AF1EE10FA3ED2002C3BDDA5
:103730005848046054482038016A3591818CADF8AE
:10374000D81090F826008DF8DA00002014E086E00A
:1037500050490A680968491C4E4B196035A951F84F
:103760002220494941F8202019460968072902D139
:1037700000211A461160401C0728E9DB464890F8F2
:103780004A03A04208DA444890F84A03C01D001BCF
:10379000414981F84A0306E03F4890F84A03001B7C
:1037A0003D4981F84A0300BF03E0641C072CFFF683
:1037B00074AF00BF072C16D1374890F84A03401C5D
:1037C000C0B2354981F84A03072802D1002081F8A8
:1037D0004A030020304981F848033F2081F846031E
:1037E00002F06CFC79E42C4890F84A03012804D1DB
:1037F0000520294981F8450330E0274890F84A031D
:10380000022804D10320244981F8450326E02248F8
:1038100090F84A03032804D106201F4981F8450384
:103820001CE01D4890F84A03042804D102201A49DC
:1038300081F8450312E0184890F84A03052804D19E
:103840000420154981F8450308E0134890F84A031D
:10385000062803D10120104981F8450303E0002028
:103860000D4981F848030C4890F84A03401CC0B247
:10387000094981F84A03072802D1002081F84A0348
:1038800000BF00BF29E40000E80300205000002032
:103890006666863F54000020C80100202DE9F041F3
:1038A00004460D461646002700BF94F83C00012848
:1038B00002D10220BDE8F081012084F83C0000BF65
:1038C00096B9EB68D5E90012206801F021FD206867
:1038D000806920F00C002168886120688069A968EF
:1038E00008432168886141E0042E13D1EB68D5E9D3
:1038F0000012206801F068FD2068806920F44060B3
:103900002168886120688069A96840EA01202168EF
:1039100088612BE0082E12D1EB68D5E900122068EF
:1039200001F06FFD2068C06920F00C002168C861BB
:103930002068C069A96808432168C86116E00C2E98
:1039400013D1EB68D5E90012206801F076FD2068FC
:10395000C06920F440602168C8612068C069A96816
:1039600040EA01202168C86100E0012700BF002073
:1039700084F83C0000BF38469CE710B504460CB9FB
:10398000012010BD94F83D0028B9002084F83C00C7
:10399000204600F025F8022084F83D00211D206813
:1039A00001F012FC012084F8460000BF84F83E00BC
:1039B00001213F200155402001554120015500BF04
:1039C00000BF012084F842004320015544200155E6
:1039D0004520015500BF012084F83D000020D0E7BC
:1039E000704700002DE9F04304460D46002615B946
:1039F00094F83E000BE0042D02D13F20005D06E06C
:103A0000082D02D14020005D01E04120005D80468C
:103A100015B994F842000BE0042D02D14320005D5B
:103A200006E0082D02D14420005D01E04520005D44
:103A30008146B8F1010F02D1B9F1010F02D0012086
:103A4000BDE8F0831DB9022084F83E000EE0042D8D
:103A500003D102213F20015508E0082D03D10221A6
:103A60004020015502E00221412001551DB90220EC
:103A700084F842000EE0042D03D1022143200155B9
:103A800008E0082D03D102214420015502E0022163
:103A90004520015535B1042D0BD0082D10D00C2D2B
:103AA0001CD114E02068C06840F002002168C860A2
:103AB00016E02068C06840F004002168C8600FE08C
:103AC0002068C06840F008002168C86008E02068ED
:103AD000C06840F010002168C86001E0012600BF06
:103AE00000BF86BB01222946206801F0D9FB1A4994
:103AF000206888421BD02068B0F1804F17D017494A
:103B00002068884213D01649206888420FD0154992
:103B1000206888420BD014492068884207D0134996
:103B20002068884203D01249206888420CD120685E
:103B3000806800F00707062F0CD02068006840F06E
:103B400001002168086005E02068006840F001007D
:103B500021680860304673E700000140000400401F
:103B600000080040000C00400004014000400140FB
:103B70000018004010B5044620680069C0F34000FA
:103B8000D8B12068C068C0F34000B0B16FF0020047
:103B900021680861012020772068806900F0030017
:103BA00018B12046FFF774F905E0204600F0ADF8A3
:103BB000204600F0ABF80020207720680069C0F3B1
:103BC0008000D8B12068C068C0F38000B0B16FF049
:103BD000040021680861022020772068806900F4D1
:103BE000407018B12046FFF753F905E0204600F079
:103BF0008CF8204600F08AF80020207720680069C1
:103C0000C0F3C000D8B12068C068C0F3C000B0B134
:103C10006FF0080021680861042020772068C069DF
:103C200000F0030018B12046FFF732F905E0204606
:103C300000F06BF8204600F069F80020207720683B
:103C40000069C0F30010D8B12068C068C0F300104C
:103C5000B0B16FF01000216808610820207720685B
:103C6000C06900F4407018B12046FFF711F905E073
:103C7000204600F04AF8204600F048F8002020775F
:103C80002068006900F0010058B12068C06800F0A9
:103C9000010030B16FF0010021680861204600F09A
:103CA00037F820680069C0F3C01058B12068C068B8
:103CB000C0F3C01030B16FF0800021680861204669
:103CC000FEF732FF20680069C0F3801058B1206809
:103CD000C068C0F3801030B16FF040002168086107
:103CE000204600F042F820680069C0F3401058B147
:103CF0002068C068C0F3401030B16FF02000216828
:103D000008612046FEF711FF10BD704770470000A4
:103D100010B5044606492068884201D1FEF74CFAE6
:103D2000044920680968884200D100BF10BD000026
:103D300000440140380100200246002031B104292E
:103D400007D0082908D00C290CD108E01368586B5B
:103D500009E01368986B06E01368D86B03E01368FA
:103D6000186C00E000BF00BF704770472DE9F047B6
:103D700007468846914600263D46287806280ADDF3
:103D800036A001F07DFB404609F006F9FEF70AFB7C
:103D9000701EBDE8F08700264DE0281D50F8260073
:103DA000002846D1202005F009FB044654B937A06D
:103DB00001F066FB404609F0EFF8FEF7F3FA4FF02A
:103DC000FF30E6E7384820616560C4F800800020D5
:103DD000207236480088401C80B23449088018B9E7
:103DE00008460088401C088030480088A083287856
:103DF000401C2870281D40F826402146404609F006
:103E00000FF82B4940460DF011FC2A4940460EF0B0
:103E100019FA2949404609F045FD02222749404642
:103E20000CF01CF9FEF7C2F9E060002060616083CD
:103E300003E0701C86B2072EAFDB00BF072E0AD14D
:103E4000404609F0A9F81EA001F01AFBFEF7AAFAF5
:103E50004FF0FF309DE700209BE70000485454508E
:103E6000206E756D626572206F6620616C6C6F7775
:103E7000656420636F6E6E656374696F6E73206531
:103E8000786365656465642E0D0A0000636F6E6E6D
:103E9000656374696F6E206D616C6C6F6320657211
:103EA000726F722E0D0A0000E09304007000002073
:103EB0004D5F020821600208295E0208B95E02080F
:103EC000693D3D4D454D505F4E554D5F5443505FEC
:103ED0005043422D310D0A0070B504460020207079
:103EE00000BF05E00022211D41F82020411C88B2BE
:103EF0000728F7DB0AF09AFF206218B911A001F039
:103F0000BFFA70BD50221949206A08F08DFF051EC6
:103F100006D017A001F0B4FA284607F0F3FDF0E749
:103F20002146206A08F07CFFFF21206A0AF004FE87
:103F300020621749206A08F0B6FE16A001F0A0FA28
:103F400000BFDEE755505F544350205365727665DD
:103F500072206D61696E20706362206372656174A6
:103F600065206572726F720D0A0000004815040822
:103F700055505F54435020536572766572206D61D1
:103F8000696E207063622062696E642E000000001A
:103F90006D3D020848545450205365727665722076
:103FA000737461727465642E0D0A0000FEF7FAF9ED
:103FB00000BFFEE730B502460B464FF6FF7000210A
:103FC000002400BF11E0555C684000240AE000F0C6
:103FD000010525B140104AF20105684000E040109B
:103FE000651CECB2082CF2DB491C9942EBD330BDC6
:103FF00000B587B0142102A8FCF765F900BF0020C6
:1040000001908148006840F010007F490860084630
:10401000006800F01000019000BF00BF00BF00204A
:1040200001900846006840F00400086008460068F7
:1040300000F00400019000BF00BF00BF002001900D
:104040000846006840F0800008600846006800F0FC
:104050008000019000BF00BF00BF00200190084613
:10406000006840F0010008600846006800F00100A8
:10407000019000BF00BF00BF00200190084600680B
:1040800040F0020008600846006800F0020001905D
:1040900000BF00BF00BF002001900846006840F04C
:1040A000400008600846006800F04000019000BF32
:1040B00000BF00BF002001900846006840F00800E3
:1040C00008600846006800F00800019000BF00BFCB
:1040D00001223F214D48FEF763F8002244F281019E
:1040E0004B48FEF75DF8002240214A48FEF758F899
:1040F0003F2002900120039004900220059002A925
:104100004248FDF735FF4FF4005002900020039025
:10411000049002A94048FDF72BFF44F28100029071
:104120000120039000200490059002A93848FDF773
:104130001FFF402002900120039000200490059072
:1041400002A93448FDF714FF80200290002003905C
:10415000049002A92F48FDF70BFF4FF4E85002909E
:104160000220039000200490032005900A2006906E
:1041700002A92A48FDF7FCFE4FF4007002900020CF
:104180000390049002A92548FDF7F2FE3F2002901B
:104190004FF4041003900120049002A92048FDF779
:1041A000E7FE002211460620FEF7AAF80620FEF7D9
:1041B00097F8002211460720FEF7A2F80720FEF725
:1041C0008FF8002211460820FEF79AF80820FEF723
:1041D00087F8002211460920FEF792F80920FEF721
:1041E0007FF8002211460A20FEF78AF80A20FEF71F
:1041F00077F8002211461720FEF782F81720FEF705
:104200006FF807B000BD00003038024000100240D7
:104210000004024000180240000802400000024072
:10422000000C02400EB5C0209E490870A8204870BE
:1042300004208870FB20C870FF209B4908704870DC
:1042400088700020C870C02098490870A820487065
:10425000042088700120C870954800680079914951
:1042600008709348006840794870914800688079E8
:1042700088708F480068C079C8708D480068007ADF
:10428000894908708A480068407A48708848006800
:10429000807A887086480068C07AC8708448006850
:1042A000007B8249087082480068407B48708048E3
:1042B0000068807B88707E480068C07BC87004F00E
:1042C0003FFF7848007800067649497840EA014087
:1042D0007449897840EA01207249C9780843020686
:1042E0007048007800066F49497840EA01406D49FE
:1042F000897840EA01206B49C978084300F47F407F
:1043000042EA00226748007800066649497840EA98
:1043100001416448807841EA00206249C978084335
:1043200000F47F0042EA10225E48007801065D48F2
:10433000407841EA00415B48807841EA00205949D1
:10434000C978084342EA10605A4908605648007824
:1043500000065549497840EA01405349897840EAC6
:1043600001205149C978084302064F4800780006E9
:104370004D49497840EA01404B49897840EA01209B
:104380004949C978084300F47F4042EA0022464880
:10439000007800064449497840EA01414248807863
:1043A00041EA00204049C978084300F47F0042EA0E
:1043B00010223D48007801063B48407841EA004120
:1043C0003948807841EA00203749C978084342EAF1
:1043D000106039490860354800780006334949784B
:1043E00040EA01403149897840EA01202F49C978E3
:1043F000084302062D48007800062C49497840EA17
:1044000001402A49897840EA01202849C9780843AF
:1044100000F47F4042EA0022244800780006234945
:10442000497840EA01412148807841EA00201F494B
:10443000C978084300F47F0042EA10221B48007844
:1044400001061A48407841EA00411848807841EA5C
:1044500000201649C978084342EA106017490860ED
:10446000174818490022154BCDE900210290124A45
:104470001049154805F06CFF134806F0DBF91248A7
:1044800090F82D00C0F3800018B10F4806F042FAF2
:1044900002E00D4806F0D4F90C490B4806F036FA54
:1044A0000EBD000064000020680000206C000020A9
:1044B00008000020580000205C0000206000002060
:1044C000E1710208A9730208503800206D740208D7
:1044D00010B5034802F0B4FF07F076FC10BD0000F1
:1044E0005038002000B58BB000200790089009904C
:1044F0000A90059006900190029003900490244841
:104500002449086000204860002122488160491E3B
:10451000C160002101618161FEF762FB08B1FCF717
:10452000A5FC4FF48050079007A91A48FEF72AFC13
:1045300008B1FCF79BFC1748FFF71FFA08B1FCF71E
:1045400095FC00200590069005A91248FEF7EEFAAA
:1045500008B1FCF78BFC02200190012002900020A2
:10456000039004200490002201A90A48FFF796F95D
:1045700008B1FCF77BFC002001900C2201A9054842
:10458000FFF78CF908B1FCF771FC0BB000BD00001F
:10459000000C004038010020FDF704FF00BFFEE7DB
:1045A0002DE9F0438BB04FF480416448FFF702FDE2
:1045B00005464FF480416248FFF7FCFC0646002D9B
:1045C00062D0002E60D0DFF8748100200490FDF7E7
:1045D000ADFB0020059002200790012008900220EA
:1045E00009900AA905A8FDF7F3FA8146554B0FCBB0
:1045F0008DE80F000020049010E004985DF8207012
:1046000008F104000423049A03FB02013A46002344
:104610000220FDF73FFB0498401C049004980428F6
:10462000EBD343F6FE714548FFF7C4FC044622462F
:1046300000234349891E0120FDF72CFB0020059033
:104640000320079001200890022009900AA905A8DC
:10465000FDF7BEFA002004900FE03849049851F8A5
:104660002070374A042303FB00213A46002302202E
:10467000FDF710FB0498401C04900498B0F5805F8F
:10468000EBD3FDF7FDFA55E04DB300200490FDF7A4
:104690004DFB002005900220079001200890022089
:1046A00009900AA905A8FDF793FA002004900FE0ED
:1046B0002349049851F82040204A042303FB002199
:1046C000224600230220FDF7E5FA0498401C0490DE
:1046D0000498B0F5805FEBD3FDF7D2FA2AE04EB331
:1046E00000200490FDF722FB002005900320079096
:1046F00001200890022009900AA905A8FDF768FA90
:10470000002004900FE00D49049851F820400C4A15
:10471000042303FB0021224600230220FDF7BAFAFE
:104720000498401C04900498B0F5805FEBD3FDF72B
:10473000A7FA00BF0BB0BDE8F083000000800008BE
:1047400000C00008D43F03082DE9FF5F8046914672
:1047500044464D46207828706078687000200390A9
:10476000607801287ED1FD48808848B9607840F0A3
:10477000800068700120A870032004B0BDE8F09F9D
:10478000E078A17840EA01266179207941EA0027A2
:10479000F2488088F119884207DA607840F080009A
:1047A00068700220A8700320E7E7F91707EB517142
:1047B000C910A7EBC10100296AD03846F91707EBE9
:1047C0005171C910491CCBB2AB70D81C03900020AA
:1047D0000290029048E030464FEAE67A06EB5A7AB9
:1047E000DDF808B00BEBEA0ADFF870B3DBF800B0D5
:1047F0001BF80AA031464FEAE67B06EB5B7B4FEAEB
:10480000EB0BA6EBCB0B4AFA0BFA32464FEAE67BF0
:1048100006EB5B7BDDF808E00EEBEB0B0BF1010B1D
:10482000DFF838E3DEF800E01EF80BB0B4464FEADC
:10483000E67E06EB5E7E4FEAEE0EA6EBCE0ECEF1E6
:10484000080E0BFA0EFB4AEA0B0A0AF0FF0BDDF822
:1048500008A00AF1010A05F1020E0EF80AB002984A
:10486000401C00E096E0029002989842B3DBC7EB50
:10487000C300C0B20190FF21019841FA00F00090FE
:10488000A91C029A8818027800990A4002707AE0FE
:104890003846F91707EB5171C1F3C703AB70D81C49
:1048A000039000200290F11706EB5171C910A6EB9E
:1048B000C101E1B3029048E030464FEAE67A06EBE8
:1048C0005A7ADDF808B00BEBEA0ADFF890B2DBF8B1
:1048D00000B01BF80AA031464FEAE67B06EB5B7B93
:1048E0004FEAEB0BA6EBCB0B4AFA0BFA32464FEA38
:1048F000E67B06EB5B7BDDF808E00EEBEB0B0BF1E8
:10490000010BDFF858E2DEF800E01EF80BB0B44609
:104910004FEAE67E06EB5E7E4FEAEE0EA6EBCE0E8B
:10492000CEF1080E0BFA0EFB4AEA0B0A00E010E08B
:104930000AF0FF0BDDF808A00AF1010A05F1020EEA
:104940000EF80AB00298401C029002989842B3DB1D
:1049500018E00020029012E03046F11706EB51718A
:10496000029A02EBE1017D4A126812F801C0029935
:10497000491CAA1C02F801C00298401C029002982F
:104980009842E9DB00BF3A463146012005F0D6FAED
:104990000398F2E6607802287ED17148808838B9A1
:1049A000607840F0800068700120A8700320E4E681
:1049B000E078A17840EA01266179207941EA002770
:1049C00067488088F119884207DA607840F08000F3
:1049D00068700220A8700320CFE6F91707EB517129
:1049E000C910A7EBC10100296AD03846F91707EBB7
:1049F0005171C910491CCBB2AB70D81C0390002078
:104A00000290029046E030464FEAE67A06EB5A7A88
:104A1000DDF808B00BEBEA0ADFF844B1DBF800B0D0
:104A20001BF80AA031464FEAE67B06EB5B7B4FEAB8
:104A3000EB0BA6EBCB0B4AFA0BFA32464FEAE67BBE
:104A400006EB5B7BDDF808E00EEBEB0B0BF1010BEB
:104A5000DFF80CE1DEF800E01EF80BB0B4464FEAD8
:104A6000E67E06EB5E7E4FEAEE0EA6EBCE0ECEF1B4
:104A7000080E0BFA0EFB4AEA0B0A0AF0FF0BDDF8F0
:104A800008A00AF1010A05F1020E0EF80AB0029818
:104A9000401C0290029800E098E09842B3DBC7EB1C
:104AA000C300C0B20190FF21019841FA00F00090CC
:104AB000A91C029A8818027800990A4002707EE0C8
:104AC0003846F91707EB5171C1F3C703AB70D81C17
:104AD000039000200290F11706EB5171C910A6EB6C
:104AE000C101D1B302904CE030464FEAE67A06EBC2
:104AF0005A7ADDF808B00BEBEA0ADFF864B0DBF8AD
:104B000000B01BF80AA031464FEAE67B06EB5B7B60
:104B10004FEAEB0BA6EBCB0B4AFA0BFA32464FEA05
:104B2000E67B06EB5B7BDDF808E00EEBEB0B0BF1B5
:104B3000010BDFF82CE0DEF800E01EF80BB0B44605
:104B40004FEAE67E06EB5E7E4FEAEE0EA6EBCE0E59
:104B5000CEF1080E0BFA0EFB04E016E02C0000204C
:104B6000240000204AEA0B0A0AF0FF0BDDF808A037
:104B70000AF1010A05F1020E0EF80AB00298401C73
:104B8000029002989842AFDB18E00020029012E0F9
:104B90003046F11706EB5171029A02EBE101FB4A34
:104BA000126812F801C00299491CAA1C02F801C03F
:104BB0000298401C029002989842E9DB00BF3A46F6
:104BC0003146022005F0BAF90398D6E5607803284B
:104BD0004FD1EF48808838B9607840F08000687025
:104BE0000120A8700320C8E5E078A17840EA0126FA
:104BF0006179207941EA0027E5488088F1198842E7
:104C000007DA687840F0800068700220A8700320FE
:104C1000B3E57906080EA870C11C0391002102912A
:104C200002911BE0DA490968029A324411F8122015
:104C30000123029903EB4103A91CCA54D449096812
:104C4000029A324431F812100A120223029903EB3D
:104C50004103A91CCA540299491C02910299B94204
:104C6000E0DB00BF3A463146032005F067F90398C0
:104C700083E5607804284FD1C648808838B96078C9
:104C800040F0800068700120A870032075E5E0788E
:104C9000A17840EA01266179207941EA0027BD48E0
:104CA0008088F119884207DA607840F080006870E7
:104CB0000220A870032060E57906080EA870C11CC8
:104CC00003910021029102911BE0B2490968029A06
:104CD000324411F812200123029903EB4103A91C6D
:104CE000CA54AC490968029A324431F812100A12C7
:104CF0000223029903EB4103A91CCA540299491CDF
:104D000002910299B942E0DB00BF3A4631460420E5
:104D100005F014F9039830E5607805284CD19E48D9
:104D2000808838B9607840F0800068700120A870F1
:104D3000032022E5E078A17840EA012696488088A1
:104D4000B04207DC607840F0800068700220A870F4
:104D5000032012E56179207941EA002B3046F117F2
:104D600006EB5171C1F3C707F11706EB5171C9107A
:104D7000A6EBC101C9B2029101200299884000F05E
:104D8000FF0ABBF57F4F08D183480068C05D40EA49
:104D90000A0081490968C85507E07F480068C05D7E
:104DA00020EA0A007C490968C855012231460520DD
:104DB00005F0C4F80620E0E460780F286BD176484F
:104DC000808838B9607840F0800068700120A87051
:104DD0000320D2E4E078A17840EA012761792079C4
:104DE00041EA002A6C48808807EB0A01884207DA0A
:104DF000607840F0800068700220A8700320BCE456
:104E00000020029002903CE002997818C11700EB54
:104E10005171C1F3C70602997818C11700EB51719F
:104E2000C910A0EBC101C9B20191012001998840CC
:104E300000F0FF0B0299CA1701EB5272D210521DFB
:104E4000A31C9A5CCB1701EB5373DB10A1EBC30CD3
:104E5000012303FA0CF31A4042B14F480068805D09
:104E600040EA0B004C490968885507E04A48006849
:104E7000805D20EA0B004849096888550298401C6B
:104E8000029002985045BFDB524639460F2005F08C
:104E900055F8062071E4607810284FD13C4880888E
:104EA00038B9607840F0800068700120A870032055
:104EB00063E4E078A17840EA012B6179207941EA46
:104EC0000026334880880BEB0601884207DA6078B9
:104ED00040F0800068700220A87003204DE4B246C4
:104EE0004FEA4A0004F06AFA07460020029013E0F5
:104EF0000521029801EB4001A01C415C06220298AA
:104F000002EB4002A01C805C41EA0020029927F8D5
:104F100011000298401C02900298B042E8DB324631
:104F20005946384604F03CFE32465946102005F0FA
:104F300005F8384602F016FB06201EE460781128BA
:104F40002ED11648007938B9607840F0800068703A
:104F50000120A870032010E410480079A8700020F8
:104F6000029009E00D4800680299425C481CA91CA7
:104F70000A540298401C029008480079029988421D
:104F8000F0DC06480079C01C0EE40000240000207C
:104F90001C000020140000202C0000200C00002029
:104FA000607840F0800068700120A8700320F0E471
:104FB0007CB504460020207000BF05E00022211DC2
:104FC00041F82020411C88B20528F7DB09F02EFFAC
:104FD000206218B91AA000F053FA7CBD62882249F9
:104FE000206A07F021FF051E06D020A000F048FA35
:104FF000284606F039FEF0E72146206A07F010FF48
:10500000FF21206A09F098FD20622049206A07F0FC
:105010004AFE1F480068008A1D490968C979CDE920
:1050200000101B48006883791948006842791848C5
:105030000068017917A000F023FA00BFCDE7000057
:105040004D6F646275735443505365727665722078
:105050006D61696E207063622063726561746520A2
:105060006572726F720D0A00481504084D6F646214
:105070007573544350536572766572206D61696E25
:10508000207063622062696E642E0000F9A102083C
:10509000080000204D6F646275735443505365726D
:1050A00076657220737461727465642E2049503A7B
:1050B0002025752E25752E25752E25753B20506FC4
:1050C00072743A2025750D0A00000000FDF76AF998
:1050D00000BFFEE7704770477047000000B593B00F
:1050E000302107A8FBF7EFF8142102A8FBF7EBF833
:1050F00000BF002001902548006840F080502349FF
:1051000008600846006800F08050019000BF00BFB2
:1051100000BF002001901E48006840F440401C4938
:1051200008600846006800F44040019000BF00BFDE
:10513000092007904FF4A020089001200C90022035
:105140000D9041050E9104210F91A821109102218B
:1051500011910721129107A8FDF798FA08B1FBF702
:1051600085FE0F20029002200390002004904FF44F
:10517000A05005904FF480500690052102A8FDF73D
:1051800033F908B1FBF772FE13B000BD403802409E
:10519000007000400348006840F470000149086056
:1051A0007047000088ED00E010B50248FEF7E2FC11
:1051B00010BD00002007002010B50248FEF7DAFC01
:1051C00010BD00003801002010B50268294B98423C
:1051D0000ED0B0F1804F0BD0274B984208D0274B10
:1051E000984205D0264B984202D0264B984203D1D4
:1051F00022F070024B681A431E4B984220D0B0F147
:10520000804F1DD01C4B98421AD01C4B984217D08F
:105210001B4B984214D01B4B984211D01A4B98420A
:105220000ED01A4B98420BD0194B984208D0194B0C
:10523000984205D0184B984202D0184B984203D19F
:1052400022F44072CB681A4322F080034C6943EA8F
:10525000040202608B68C3620B688362054B98424C
:1052600002D0084B984201D10B69036301234361CB
:1052700010BD000000000140000400400008004094
:10528000000C004000040140004001400044014087
:105290000048014000180040001C00400020004071
:1052A00030B501F01F05012404FA05F3046A9C439C
:1052B0000462046A01F01F0502FA05F52C4304623A
:1052C00030BD30B50C46816821F47F4142EA0325A8
:1052D00025432943816030BD0A46816821F0700171
:1052E00042F0070319438160704730B50B461446FE
:1052F000026A056A25F001050562816921F0F00165
:1053000041EA041122F00A021A438161026230BDAF
:1053100070B50C461546066A26F0010606628169DC
:10532000026A184EB04214D0B0F1804F11D0164E20
:10533000B0420ED0154EB0420BD0154EB04208D040
:10534000144EB04205D0144EB04202D0134EB042BB
:1053500001D1012600E000261EB121F003012943FE
:1053600001E041F0010121F0F001F02606EA031608
:10537000314322F00A0204F00A06324381610262DC
:1053800070BD000000000140000400400008004023
:10539000000C0040000401400040014000180040A3
:1053A00030B50B461446056A25F010050562816983
:1053B000026A21F4704141EA043122F0A00242EA7B
:1053C00003128161026230BD70B50C461546066A53
:1053D00026F0100606628169026A21F4407141EAF2
:1053E000052121F470414FF4704606EA033631433B
:1053F00022F0A002A02606EA04163243816102626E
:1054000070BD70B50C461546066A26F480760662B5
:10541000C169026A21F00301294321F0F001F0265D
:1054200006EA0316314322F420624FF4206606EAAE
:1054300004263243C161026270BD70B50C46154648
:10544000066A26F480560662C169026A21F4407138
:1054500041EA052121F470414FF4704606EA033613
:10546000314322F420424FF4204606EA0436324308
:10547000C161026270BDFCF795FF00BFFEE700004E
:105480000FB4054B10B503A9044A029800F02EF999
:1054900010BC5DF814FB00004175020800000020FC
:1054A0000FB4084B10B504A902AA039800F01EF926
:1054B000044602A9002000F09CFC204610BC5DF8C8
:1054C00014FB0000F35D020802480068C0F30220EC
:1054D000704700000CED00E010B5002804DB0A075F
:1054E000130E054A135406E00A07140E034A00F08F
:1054F0000F031B1FD45410BD00E400E018ED00E0C2
:1055000000BF00BF00BFBFF34F8F00BF00BF00BF91
:105510000948006800F4E06008490843001D064996
:10552000086000BF00BF00BFBFF34F8F00BF00BFC8
:1055300000BF00BF00BFFDE70CED00E00000FA0572
:10554000004870473401002002E008C8121F08C15B
:10555000002AFAD170477047002001E001C1121FF4
:10556000002AFBD1704700002DE9FF5F82B00021C7
:10557000DDE90430020DDDF840B0034318D044F6F5
:105580001050A2F2FF3242431514119801281FD087
:10559000A5EB0B00401C5FEA000A4FF000064E4FDF
:1055A000DFF83891B046504615D5CAF1000413E033
:1055B000119801244AA3012801D16FEA0B01029836
:1055C000119AC0E90031C0E9024206B0BDE8F09F7F
:1055D000CBF10000DFE704460021404A491842EBC6
:1055E0000450CDE9001012E0E00707D032463B46F8
:1055F00040464946FAF7FDFF8046894632463B461B
:1056000010461946FAF7F5FF06460F466410002CBF
:10561000EAD1DDE90401DDE90023BAF1000F06DA81
:10562000FAF7E7FF42464B46FAF7E3FF05E0FBF7E0
:1056300052F842464B46FBF74EF804460E4600220F
:10564000284BFBF7CFF803D84FF0FF30014607E0B7
:105650000022254B20463146FAF724FFFBF7AAF833
:10566000102409E0002C0ADB0A220023FAF7BCFD13
:10567000039B30321A55641E50EA0102F2D1641CB9
:10568000039AC4F111031444119A012A03D0012290
:1056900008430DD10AE0084304D000204FF0110B5D
:1056A000119072E7A3EB0B056D1E0DE05B4504DD69
:1056B0004FF0000205F1010504E003DA4FF00002AB
:1056C000A5F10105002AECD002981199C0E9023138
:1056D000C0E9004579E70000000014400000F03FF9
:1056E000300000000000F0430000E03F2DE9FF4FD4
:1056F00095B09A46884606460025EEE1252877D1E2
:1057000000242746F94A0121039400E0044316F8D7
:10571000013F203B01FA03F01042F7D130782A28EC
:1057200011D06FF02F033078A0F13002092A16D87B
:10573000039A44F0020402EB820203EB420210449B
:10574000761C0390EFE758F8042B0392002A03DA43
:10575000504244F40054039044F00204761C307824
:105760002E2816D116F8010F44F004042A280DD073
:105770006FF02F023078A0F13003092B09D807EB26
:10578000870302EB4303C718761CF3E758F8047B42
:10579000761C30786C280FD006DC4C2817D068288F
:1057A0000DD06A2814D104E0742810D07A280FD1C3
:1057B0000DE044F400140AE044F4801401E044F4E1
:1057C00040147278824202D104F58014761C761C53
:1057D000307866280BD013DC582877D009DC0028F5
:1057E00075D04528F6D04628F4D047281AD193E141
:1057F00018E0632835D0642879D0652812D18BE170
:10580000702873D008DC6728F1D069286FD06E2823
:105810000DD06F2806D1ACE073282CD0752874D039
:10582000782853D05246179990476D1C54E1C4F321
:105830000250022809D003280DD0D8F800100428FF
:105840000DD00D6008F1040846E1D8F80010EA1701
:10585000C1E90052F6E7D8F800100D80F2E70D70AC
:10586000F0E718F8041B8DF8001000208DF80100F7
:10587000EB46012003E058F804BB4FF0FF3061070E
:105880004FF0000102D40DE009F101018946B9424F
:105890000FDA8145F8DB1BF809100029F4D108E084
:1058A00009F1010189468142FADB1BF80910002940
:1058B000F6D103985346A0EB090721463846179ABC
:1058C00000F080FA284400EB090507E044E008E115
:1058D0000DE01BF8010B524617999047B9F10109E9
:1058E000F7D2534621463846179AF2E039E00A21AA
:1058F000C4F302524FF0000B0091022A06D058F870
:10590000040BC117032A09D00AE023E008F10700BD
:1059100020F00702F2E80201904605E000B2C1174C
:10592000042A01D140B2C117002906DA0A46002133
:10593000404261EB02012D2202E0220504D52B2218
:105940008DF80420012203E0E20701D02022F7E7CE
:10595000914657E00A2100E010214FF0000B009122
:105960000BE010214FF0000B44F0040408270091D5
:1059700003E008204FF0000B0090C4F30252022A0B
:1059800005D058F8040B0021032A08D008E008F1DC
:10599000070020F00702F2E80201904603E080B21F
:1059A000042A00D1C0B24FF0000922072AD532786C
:1059B000702A07D0DDF800C08CF0100C5CEA0B0CEC
:1059C00005D00EE040228DF80420012208E050EAC4
:1059D000010306D030238DF804308DF80520022213
:1059E0009146009B83F0080353EA0B030AD150EA67
:1059F000010201D1620705D530228DF804204FF055
:105A000001097F1E3278582A04D039A20C920CAAC0
:105A100002920BE03BA2F9E75B46009AFAF7E4FB3F
:105A20000C9B9B5C029A521E0292137050EA010278
:105A3000F2D1029804A9081A00F1200B600702D5E0
:105A400024F4803400E001275F4502DDA7EB0B0062
:105A500000E0002000EB0B01009003984944401A3D
:105A60000390E00306D453462146179A039800F0AA
:105A7000A9F90544002706E001A85246C05D179920
:105A800090476D1C7F1C4F45F6DBE0030CD5534659
:105A90002146179A039800F095F9054404E0302058
:105AA0005246179990476D1C0099481E0090002996
:105AB000F5DC08E00298029952460078491C0291F0
:105AC000179990476D1CBBF10001ABF1010BF1DCA4
:105AD0005BE100F065F90544761C307800287FF41E
