:020000040800F2
:10000000B8A80020C501000895100008D90E000806
:10001000F91A010817010108151B0108000000006A
:10002000000000000000000000000000FD1A0108B0
:100030001B01010800000000991000089B10000837
:10004000DF010008DF010008DF010008DF01000810
:10005000DF010008DF010008DF010008DF01000800
:10006000DF010008DF010008DF010008DF010008F0
:10007000DF010008DF010008DF010008DF010008E0
:10008000DF010008DF010008DF010008DF010008D0
:10009000DF010008DF010008DF010008DF010008C0
:1000A000DF010008DF010008DF010008DF010008B0
:1000B000DF010008DF010008DF010008DF010008A0
:1000C000DF010008DF010008DF010008DF01000890
:1000D000DF010008DF010008DF010008DF01000880
:1000E000DF010008DF010008DF010008DF01000870
:1000F000DF010008DF010008DF010008DF01000860
:10010000DF010008DF010008DF010008DF0100084F
:10011000DF010008DF010008DF010008DF0100083F
:10012000DF010008DF010008DF010008DF0100082F
:10013000DF010008DF010008DF010008DF0100081F
:10014000DF010008DF010008DF010008DF0100080F
:10015000DF010008DF010008DF010008DF010008FF
:10016000DF010008DF010008DF010008DF010008EF
:10017000DF010008DF010008DF01000800000000C7
:10018000DF010008DF010008DF010008DF010008CF
:10019000DF010008DF010008DF010008DF010008BF
:1001A000DF010008DF010008DF010008DFF810D0E0
:1001B00000F0E8F80048004755410108AFF300801F
:1001C000B8A800200648804706480047FEE7FEE73B
:1001D000FEE7FEE7FEE7FEE7FEE7FEE7FEE7FEE7F7
:1001E000011B0108AD01000810B5431A934209D262
:1001F0008318881803E010F8011D03F8011D521E32
:10020000F9D210BD40EA01039B0703D009E008C9F9
:10021000121F08C0042AFAD203E011F8013B00F8CB
:10022000013B521EF9D210BDD2B201E000F8012B01
:10023000491EFBD270470022F6E710B513460A4666
:1002400004461946FFF7F0FF204610BD421C10F887
:10025000011B0029FBD1801A704730B504460020ED
:10026000034600E05B1C934203D2E05CCD5C401B84
:10027000F8D030BD2DE9F04791460F468046044640
:10028000002614F8015B2DB10FF0ECFE0068405D14
:10029000C007F6D12B2D02D02D2D18D0641E4A4652
:1002A0003946204600F01EF827B13968A14201D135
:1002B000C7F8008071054FF002040BD540420028BA
:1002C00003DD00F061FF0460A007BDE8F08746F49D
:1002D0008066E4E70028F8DA00F056FF04606FF06B
:1002E0000040F2E72DE9F05F8246007800271546CE
:1002F0008B460AF10104B946302801D09DB113E0C4
:1003000014F8010B0127782803D0582801D045B1F3
:100310000AE00DB1102D07D10027102514F8010BAC
:1003200002E0082500E00A250026B0460EE005FBA5
:10033000080005FB06F1012701EB10461FFA80F8C3
:10034000B6F5803F00D3B94614F8010B29460FF0EB
:10035000D4FE0028EBDABBF1000F05D00FB1641E0C
:1003600000E05446CBF80040B9F1000F06D000F091
:100370000BFF02210160C81EBDE8F09F48EA06405D
:10038000FAE70000064C074D06E0E06840F0010384
:1003900094E8070098471034AC42F6D3FFF70AFF01
:1003A0008C580008AC580008016801F58051896933
:1003B00041F00202016801F580518A6170470168CD
:1003C00001F58051896941F40052016801F58051BD
:1003D0008A61704738B5044600200090206800F517
:1003E0008050806940F48011206800F58050816160
:1003F000206800F580508069009001200FF0A4FE75
:100400000099206800F58050816138BD70B5AEB0AC
:1004100004460E46002526B14FF40061E160C90094
:10042000A1600020119012901390149015901690D6
:10043000E06918B94FF48060179001E00020179030
:100440004FF400701890002019901A901B901C9087
:100450001D9040201E9000201F90209021902290FF
:10046000239024902590269080202790002028908B
:1004700029902A902B902C902D9020680568714827
:100480000540DDE911010843139908431499084315
:10049000A16808431599084316990843E168084381
:1004A0001799084318990843199908431A9908435A
:1004B0001B990843054320680560206805680120F2
:1004C00000F09AF920680560DDE91C0108431E99D7
:1004D00008431F990843209908432199084322990A
:1004E0000843239908432168486020684568012033
:1004F00000F082F92068456024982168886025987A
:100500002168C860206885694FF641700540DDE9C3
:10051000261040EA014028990843299908432A995E
:1005200008432B9908430543206885612068856945
:10053000012000F061F920688561DDE92C010843A4
:100540002168C8612068C569012000F055F920685C
:10055000C561002001904FF00070029000200390D0
:100560004FF400100490002005900690079008902A
:1005700004200990C0050A9040120B9080010C9055
:1005800040120D9080200E9000200F901090206857
:1005900000F5805085692C480540DDE901010843DC
:1005A00003990843049908430599084306990843A9
:1005B00007990843089908430999084305432068A7
:1005C00000F580508561206800F580508569012024
:1005D00000F012F9206800F580508561DDE90A011C
:1005E00008430C9908430D9908430E9908430F9945
:1005F00040EA81001099084340F40001206800F5AA
:1006000080500160206800F580500568012000F0EE
:10061000F3F8206800F580500560A069012809D131
:10062000206800F58050C06908490843216801F539
:100630008051C8610021204662690FF099FD2EB0FB
:1006400070BD00000F8120FF233FDEF84000010055
:1006500038B50446002000902068006820F00400AF
:100660002168086020680068009001200FF06CFD90
:1006700000982168086038BD38B504460020009015
:100680002068006820F00800216808602068006881
:10069000009001200FF058FD00982168086038BDD7
:1006A00010B5002201B909E0012901D10A0205E0D3
:1006B000022901D10A0201E04FF440720B2800D94F
:1006C000001D0E4B1B6823F440730C4C2360234623
:1006D0001B681343236023461B6823F0F803236041
:1006E00023461B68022444EAC0042343034C2360CE
:1006F00023461B6843F48033236010BD103C024046
:100700001C48006800F40070B0B11A48006820F47A
:1007100000701849086000BF0846006840F4006097
:1007200008600846006820F40060086000BF0846C2
:10073000006840F4007008600E48006800F48060B3
:10074000B0B10C48006820F480600A49086000BF1E
:100750000846006840F4805008600846006820F4AD
:100760008050086000BF0846006840F48060086060
:1007700070470000003C0240084A126822F44072B0
:10078000064B1A601A46126842F480721A601A46C2
:10079000126842F001021A6001807047103C02406A
:1007A00002468A4201D2881A7047C2F1FF300844DB
:1007B000401CF9E710B54FF0FF300E4908600020EB
:1007C0000860401E091D086000200860401E09499D
:1007D0001039086000200860401E091D08600020D4
:1007E0000860401E091D08600020086010F096FA9D
:1007F000002010BD2038024070B5044610F056FAB3
:1008000006462546681C10B104480078054400BF20
:1008100010F04CFA801BA842FAD370BD48000020AB
:1008200070B504460D461646002200BF94F84500F8
:10083000012801D1022070BD012084F8450000BFCD
:10084000022084F84400E56200221BE005EB42111F
:100850004FF480100860C2EBC21000EB400006EBC2
:1008600080008860E06918B9086840F440000860BA
:10087000581E904204D905EB42102030C86000E0B9
:10088000CD60521C9A42E1D3206800F5805005618A
:10089000012084F8440000BF002084F8450000BF18
:1008A00000BFC8E70146002200BF91F845000128BB
:1008B00001D102207047012081F8450000BF0220CD
:1008C00081F84400886A006800F00040002838D1B0
:1008D000886A006800F48070F0B1886B401C8863FF
:1008E000886B012801D1886A08638B6A4B63886A28
:1008F0000068C0F30D40021FCA63086B83680B6475
:10090000886AC0688862012081F8440000BF002026
:1009100081F8450000BFCDE7886A006800F40070E8
:1009200048B1886A086300234B6301238B63886A9C
:10093000C068886205E0886B401C8863886AC0686C
:100940008862012081F8440000BF002081F8450042
:1009500000BF0120AEE7000010B586B004461421A8
:1009600001A8FFF768FC5749206888427ED100BF84
:1009700000BF002000905448006840F000705249C9
:1009800008600846006800F00070009000BF00BFDB
:1009900000BF002000900846006840F080600860BA
:1009A0000846006800F08060009000BF00BF00BFF4
:1009B000002000900846006840F00060086008468B
:1009C000006800F00060009000BF00BF00BF00BFE3
:1009D000002000900846006840F0040008600846C7
:1009E000006800F00400009000BF00BF00BF0020BE
:1009F00000900846006840F0010008600846006862
:100A000000F00100009000BF00BF00BF0020009078
:100A10000846006840F0020008600846006800F0E0
:100A20000200009000BF00BF00BF002000900846F9
:100A3000006840F0400008600846006800F0400090
:100A4000009000BF00BF32200190022002900020E1
:100A50000390032004900B20059001A91B4810F07F
:100A600017F8862001900220029000E027E0002085
:100A70000390032004900B20059001A9144810F066
:100A800007F84FF4005001900220029000200390DC
:100A9000032004900B20059001A90E480FF0F8FFE9
:100AA0004FF4205001900220029000200390032078
:100AB00004900B20059001A907480FF0E9FF06B04C
:100AC00010BD0000008002403038024000080240A3
:100AD0000000024000040240001802402DE9F041ED
:100AE00004460E4617460025A84694F8440082287E
:100AF00002D10220BDE8F081822084F84400206801
:100B0000056905F01C05208A4FF4784101EAC020F0
:100B10000543481100EA8610054325F0020545F01B
:100B200001052068056110F0C1F8804612E010F060
:100B3000BDF8A0EB0800B0F5803F09D3012084F890
:100B4000440000BF002084F8450000BF0320D1E727
:100B50002068056905F001000028E8D12068406997
:100B600080B23860012084F844000020C2E710B54C
:100B7000044600BF94F84500012801D1022010BDB1
:100B8000012084F8450000BF022084F8440020467C
:100B90000FF0CFFA20460FF0C1FA2046FFF758FDBC
:100BA0002046FFF717FC2046FFF766FD012084F87A
:100BB000440000BF002084F8450000BF00BFDEE70E
:100BC0002DE9F04104460E460127002500BF2648C6
:100BD000007E012802D10220BDE8F08101202249D7
:100BE000087600BF4CF250300FF0D0FB0746002FC4
:100BF00032D1401E30602068012810D1207C61680D
:100C00000FF0FCFA4CF250300FF0C0FB07461748CB
:100C1000006848F204018843144908601AE0A56896
:100C200012E0217C2846FFF73BFD4CF250300FF0DC
:100C3000ADFB07460D48006820F0FA000B4908603C
:100C40000FB1356005E06D1CD4E902100844A842DC
:100C5000E7D800BFFFF754FD00BF00200249087627
:100C600000BF3846B8E7000068320020103C024060
:100C70002DE9F04106460F4614461D464FF0010887
:100C800000BF1F48007E012802D10220BDE8F0818C
:100C900001201B49087600BF4CF250300FF076FB64
:100CA0008046B8F1000F23D126B9E1B238460FF0E3
:100CB000CFFA12E0012E04D1A1B23846FFF75CFD55
:100CC0000BE0022E04D1214638460FF0F1FA04E081
:100CD00022462B4638460FF0CDFA4CF250300FF03A
:100CE00055FB80460748006820F001000549086070
:100CF00000BF00200249087600BF4046C6E700005A
:100D000068320020103C024000200949096801F0C7
:100D1000004159B10749064A0C3A11600649116071
:100D20000349096801F0004101B10120704700004A
:100D3000103C024023016745AB89EFCD10B54269F5
:100D400021EA020302EA010443EA0443836110BD7D
:100D50000AB1816101E00B048361704710B50D4851
:100D6000006840F400700B4908600846006840F4D1
:100D7000806008600846006840F4807008600320C6
:100D800000F00AF800200FF0A3FF0FF0C9FF0020C9
:100D900010BD0000003C024000BF00F00702064BFF
:100DA00019684FF6FF031940044B0B4343EA022135
:100DB000014B196000BF70470CED00E00000FA0520
:100DC00000BF00BF00BF00BF00BFBFF34F8F00BF19
:100DD00000BF00BF0948006800F4E060084908430C
:100DE000001D0649086000BF00BF00BFBFF34F8F62
:100DF00000BF00BF00BF00BF00BFFDE70CED00E07B
:100E00000000FA0570B504460020207000BF05E020
:100E10000022211D41F82020411C88B20428F7DB64
:100E200016F052FA606118B911A000F095F970BD82
:100E300050221949606915F01FF8051E06D017A049
:100E400000F08AF9284602F063FAF0E7214660696B
:100E500002F0A8FDFF21606903F008FA60611749FC
:100E6000606902F0E3FC16A000F076F900BFDEE74F
:100E700055505F54435020536572766572206D6102
:100E8000696E2070636220637265617465206572AB
:100E9000726F720D0A0000005856000855505F54DA
:100EA000435020536572766572206D61696E2070C3
:100EB00063622062696E642E00000000F514010870
:100EC0004854545020536572766572207374617271
:100ED0007465642E0D0A000000BFFEE7024800683A
:100EE00000F0010070470000F0ED00E02DE9F04354
:100EF0008BB04FF48041644810F0B2FB05464FF4CC
:100F00008041624810F0ACFB0646002D62D0002EF6
:100F100060D0DFF8748100200490FFF7F5FE002018
:100F200005900220079001200890022009900AA94C
:100F300005A8FFF745FE8146554B0FCB8DE80F0006
:100F40000020049010E004985DF8207008F104007F
:100F50000423049A03FB02013A4600230220FFF710
:100F600087FE0498401C049004980428EBD343F6B1
:100F7000FE71454810F074FB0446224600234349A5
:100F8000891E0120FFF774FE0020059003200790C2
:100F900001200890022009900AA905A8FFF710FE79
:100FA000002004900FE03849049851F82070374A27
:100FB000042303FB00213A4600230220FFF758FEDA
:100FC0000498401C04900498B0F5805FEBD30FF0B8
:100FD00055FD55E04DB300200490FFF795FE00202D
:100FE00005900220079001200890022009900AA98C
:100FF00005A8FFF7E5FD002004900FE023490498C1
:1010000051F82040204A042303FB002122460023FC
:101010000220FFF72DFE0498401C04900498B0F5C0
:10102000805FEBD30FF02AFD2AE04EB3002004903E
:10103000FFF76AFE0020059003200790012008902A
:10104000022009900AA905A8FFF7BAFD0020049024
:101050000FE00D49049851F820400C4A042303FB8B
:101060000021224600230220FFF702FE0498401CC4
:1010700004900498B0F5805FEBD30FF0FFFC00BF45
:101080000BB0BDE8F08300000080000800C000083D
:1010900068B5010800BFFEE7704710B50FF00CFE01
:1010A00010BD000000B593B0302107A8FFF7C3F8CA
:1010B000142102A8FFF7BFF800BF002001902448C8
:1010C000006840F08050224908600846006800F03F
:1010D0008050019000BF00BF00BF002001901D485C
:1010E000006840F440401B4908600846006800F46E
:1010F0004040019000BF00BF012007904FF4A020A6
:10110000089002200D9041050E9104210F91A82115
:101110001091022111910721129107A80FF082FF6F
:1011200008B10FF067F80F20029002200390002012
:1011300004904FF4A05005904FF480500690052184
:1011400002A80FF04FFE08B10FF054F813B000BD25
:1011500040380240007000400FB4054B10B503A9A1
:10116000044A029810F000FD10BC5DF814FB00006A
:10117000512B01080000002002480068C0F3022043
:10118000704700000CED00E00048704700010020AF
:1011900002E008C8121F08C1002AFAD17047704740
:1011A000002001E001C1121F002AFBD1704700009E
:1011B00070B504460D4600BF05F00300002808D0B6
:1011C00000BF08A34FF4B67212A11AA0FFF7C4FF24
:1011D00000BF00BF2E46A06800683060A0680660AF
:1011E00070BD00002E2E2F4D6964646C65776172AE
:1011F00065732F54686972645F50617274792F4C03
:101200007749502F7372632F636F72652F6D656D11
:10121000702E63006D656D705F667265653A206D56
:10122000656D2070726F7065726C7920616C696792
:101230006E656400417373657274696F6E20222558
:101240007322206661696C6564206174206C696E2C
:101250006520256420696E2025730A0070B5054657
:10126000A8680468002C13D02068A968086000BF33
:1012700004F00300002808D000BF06A34FF48C72CE
:1012800010A119A0FFF768FF00BF00BF204670BD86
:101290000020FCE72E2E2F4D6964646C6577617227
:1012A00065732F54686972645F50617274792F4C52
:1012B0007749502F7372632F636F72652F6D656D61
:1012C000702E63006D656D705F6D616C6C6F633A5D
:1012D000206D656D702070726F7065726C79206121
:1012E0006C69676E65640000417373657274696F41
:1012F0006E2022257322206661696C65642061740A
:10130000206C696E6520256420696E2025730A00B3
:1013100010B586B0044600200090B4F1006F00D1F3
:1013200032E01F48844201D101202DE01D48844253
:1013300001D1022028E01C48844201D1032023E08F
:101340001A48844201D104201EE01948844201D188
:10135000052019E01748844201D1062014E0164800
:10136000844201D107200FE01448844201D10820B3
:101370000AE01348844201D1092005E01148844263
:1013800001D10A2000E00B200290012003900220EE
:10139000049005A96846FFF713FC06B010BD0000D5
:1013A000004000080080000800C00008000001089C
:1013B00000000208000004080000060800000808F9
:1013C00000000A0800000C0870B50546002411E072
:1013D00004EB4400094901EBC000067D4EB104EB6B
:1013E000440001EBC0008068A84202D1204600F012
:1013F00007F8641C0A2CEBDB70BD0000C4670020FA
:1014000010B5044604EB44000C4951F8300060B1BB
:1014100004EB4401094A52F8310001F09DFC002020
:1014200004EB4401054A42F83100002004EB44017A
:10143000024A02EBC101087510BD0000C46700201C
:10144000F0B587B007460D4600BF002D0AD100BF9A
:101450002EA340F28A223BA13EA0FFF77DFE00BFF3
:1014600007B0F0BD00BF7C682088B0F5807F08D150
:101470002079062805D16079042802D160880828DF
:1014800003D0384601F068FCEAE7D4F80E00069075
:10149000A0690590686808B9002607E005986968A2
:1014A000884201D1012000E0002006460EB1012053
:1014B00000E00220034604F1080206A9284600F0D5
:1014C000FFF9E088B0F5807F03D0B0F5007F15D13B
:1014D00013E086B1022206AB04F10800291DCDE914
:1014E0000232CDE9001005F12603024622312846DA
:1014F00011F0BAF900E000BF01E000E000BF00BF5A
:10150000384601F029FC00BFAAE700002E2E2F4D1F
:101510006964646C6577617265732F54686972647D
:101520005F50617274792F4C7749502F7372632F1B
:10153000636F72652F697076342F6574686172709D
:101540002E6300006E6574696620213D204E554C67
:101550004C000000417373657274696F6E20222520
:101560007322206661696C6564206174206C696E09
:101570006520256420696E2025730A002DE9FE434D
:1015800004460F461546A94600BF002C08D100BFEF
:101590005DA340F21E326AA16DA0FFF7DDFD00BF22
:1015A00000BF00BF47B900BF57A340F21F3272A16E
:1015B00067A0FFF7D1FD00BF00BF00BF002D08D11D
:1015C00000BF51A34FF448726EA161A0FFF7C4FDA4
:1015D00000BF00BF2146286811F00CFD10B1DFF8F4
:1015E000B48186E0287800F0F000E02816D10120D0
:1015F0008DF8040000208DF805005E208DF80600AF
:10160000687800F07F008DF80700A8788DF8080052
:10161000E8788DF809000DF1040869E02868A168F0
:101620000840D4E90112114088420ED0288880B2C7
:101630004FF6A961884208D0E06810B104F10C09A6
:1016400003E06FF00300BDE8FE835348007800EB31
:101650004000524901EBC000007D02281BDB4E48D0
:10166000007800EB400001EBC0008068A04212D17E
:101670004949097801EB4101484A02EBC101D9F817
:1016800000004968884206D143480278394620461E
:1016900010F0E4FED7E7002622E006EB46003F49C3
:1016A00001EBC000007D022818DB06EB460001EBD1
:1016B000C0008068A04211D106EB4601374A02EB18
:1016C000C101D9F800004968884207D13248067044
:1016D00032463946204610F0C1FEB4E7701CC6B24F
:1016E0000A2EDADB3A464946204610F06BFFAAE79D
:1016F00000BF4FF40060434604F1260239460090D3
:10170000204600F08BF99EE72E2E2F4D6964646C05
:101710006577617265732F54686972645F50617296
:1017200074792F4C7749502F7372632F636F7265F2
:101730002F697076342F6574686172702E630000B3
:101740006E6574696620213D204E554C4C000000AA
:10175000417373657274696F6E202225732220664F
:1017600061696C6564206174206C696E6520256414
:1017700020696E2025730A007120213D204E554CB2
:101780004C00000069706164647220213D204E5558
:101790004C4C00004F550008E8000020C4670020B2
:1017A00070B504460D46034A2946204600F004F869
:1017B00070BD00004F5500087FB504460D46164623
:1017C0000121074A201D04F126038DE8250003911D
:1017D00032461946204611F047F804B070BD0000AB
:1017E0005555000870B5002464E004EB440033490B
:1017F00001EBC000057D002D5BD004EB440001EB44
:10180000C000408A401C04EB44012C4A02EBC10199
:10181000488204EB4400114601EBC000408AB0F559
:10182000967F0DDA04EB440001EBC000007D012837
:101830000AD104EB440001EBC000408A052803DB19
:101840002046FFF7DDFD34E004EB44001B4901EBCB
:10185000C000007D032807D1042004EB4401174A8F
:1018600002EBC101087524E004EB4400134901EBCD
:10187000C000007D042807D1022004EB44010F4A78
:1018800002EBC101087514E004EB44000B4901EBC5
:10189000C000007D01280CD104EB44020B4603EB91
:1018A000C202111D04EB440203EBC2029068FFF771
:1018B00077FF641C0A2C98DB70BD0000C467002011
:1018C0002DE9F84305460E461746984600BF95F8A1
:1018D0002C00062808D000BF2EA340F2A9123BA17D
:1018E00043A0FFF739FC00BF00BF5EB1306848B1CC
:1018F0002946306811F07EFB20B9307800F0F00006
:10190000E02803D16FF00F00BDE8F8832A46414676
:10191000304610F023FC0446002C01DA60B2F3E7F5
:10192000022004EB44013C4A02EBC101087504EBC0
:101930004400114601EBC000856004EB440001EB5C
:10194000C0003968C160B9880182002004EB4401FD
:1019500002EBC101488204EB4400114651F830000B
:10196000B0B104EB440051F83090002004EB440186
:1019700042F831004FF400603B4605F1260249462B
:101980000090284600F04AF8484601F0E5F900BF0B
:101990000020B9E72E2E2F4D6964646C6577617263
:1019A00065732F54686972645F50617274792F4C4B
:1019B0007749502F7372632F636F72652F6970764A
:1019C000342F6574686172702E6300006E657469EF
:1019D000662D3E6877616464725F6C656E203D3D84
:1019E000204554485F4857414444525F4C454E009F
:1019F000417373657274696F6E20222573222066AD
:101A000061696C6564206174206C696E6520256471
:101A100020696E2025730A00C46700202DE9F04775
:101A200005460E4617469846DDF82090484612F0C7
:101A30003DFB82460E21304601F066F800B122E0FF
:101A40007468A4F80CA0D8F800002060B8F804006E
:101A5000A0803868C4F80600B888608100BF95F897
:101A60002C00062808D000BF08A34FF4997215A1D6
:101A700021A0FFF771FB00BF00BF31462846AA69CD
:101A80009047BDE8F0876FF00100FAE72E2E2F4D4A
:101A90006964646C6577617265732F5468697264F8
:101AA0005F50617274792F4C7749502F7372632F96
:101AB0006E657469662F65746865726E65742E63F1
:101AC000000000006E657469662D3E68776164648D
:101AD000725F6C656E206D757374206265203620B0
:101AE000666F722065746865726E65745F6F757479
:101AF0007075742100000000417373657274696F22
:101B00006E2022257322206661696C6564206174F1
:101B1000206C696E6520256420696E2025730A009B
:101B200070B50446204612F017FA064606B970BD95
:101B3000214630462269904705461DB1304601F0E6
:101B40000BF9002600BFF2E7704700001CB5044601
:101B500000200190009094F82D00C0F38000002830
:101B600054D02E484068A0B34FF4805200212B4837
:101B70000EF03CFF0FF09AF8019000BF6A46012179
:101B80002648FEF7ABFF0FF091F80199401AB0F527
:101B90007A7F00D924E0009800F020002028EDD1C1
:101BA0006A4610211D48FEF799FF009800F00400D6
:101BB00020B14FF400611948C16002E000211748CC
:101BC000C160009800F0020020B10021134881603C
:101BD00014E004E04FF48041104881600EE000BF43
:101BE0000E48C068C0F3CF000C498968C1F34F01AB
:101BF00040EA0102002109480EF0F8FE00210748E2
:101C00000EF0F6FB05480EF029FE02E00348FEF751
:101C1000AEFF2046FFF798FF1CBD0000BC3100203E
:101C200010B5002821D0114B0022001F196803E0D5
:101C3000814203D80A4649680029F9D152B1136894
:101C4000841A9C4204D1006818441060104602E0D7
:101C5000506000E0186039B102680B1A934203D15A
:101C60000B681A4402604968416010BDF80000200A
:101C70002DE9F04105460E460E4C17E06068FEF770
:101C8000E5FA07463A4630466168FEF7E6FA60B97B
:101C9000A0682860E0686860E068A8600020E860EC
:101CA000207C28740020BDE8F0812468002CE5D158
:101CB000A01FF8E7C4D601082DE9FF47074688466C
:101CC00091464FF420722421222013F00BF905468F
:101CD0000DB9BDE8FF8700BF6889242808D200BF7E
:101CE00019A34FF4B47226A130A0FFF735FA00BF54
:101CF00000BFD7F804A06C6884F8008084F80190D5
:101D00000020A080E08079686A6802F108001C2247
:101D1000FEF76AFADAF80C00039003A811F07AFDD6
:101D200006465EB10020608001200021FF2303AA47
:101D3000CDE901060091284611F0D2FB284601F0BA
:101D40000BF800BFC5E700002E2E2F4D6964646CB0
:101D50006577617265732F54686972645F50617250
:101D600074792F4C7749502F7372632F636F7265AC
:101D70002F697076342F69636D702E630000000048
:101D8000636865636B20746861742066697273743C
:101D900020706275662063616E20686F6C642069D4
:101DA000636D70206D657373616765004173736562
:101DB0007274696F6E2022257322206661696C65DA
:101DC00064206174206C696E6520256420696E2032
:101DD00025730A0070B505460C4622460B2128469D
:101DE000FFF76AFF70BD00002DE9F84F05460F466A
:101DF00090469A46DDF828B00C9E00BFA87B0128CB
:101E000008D000BF37A34FF4557243A145A0FFF798
:101E1000A3F900BF00BFB8F1000F46D04FF014097E
:101E20001421284600F070FE18B16FF00100BDE8E3
:101E3000F88F6C6800BF6889142808D200BF29A3F6
:101E40004FF4627241A137A0FFF786F900BF00BFCF
:101E500084F808A00B986072D8F80000206148460A
:101E60004FEAE97109EB9171C1F3870141F040013B
:101E7000217084F801B0288912F018F960800020E0
:101E8000E0803E48008812F011F9A0803B480088AD
:101E9000401C3A4908801FB939480068E06001E0F9
:101EA0003868E0600020608109E06889142802DA5F
:101EB0006FF00100BBE76C6820690090E846B08CC9
:101EC00048B12889B18C884205DD42463146284612
:101ED00011F0B8F8ABE74246294630467369984797
:101EE000A5E700002E2E2F4D6964646C6577617242
:101EF00065732F54686972645F50617274792F4CF6
:101F00007749502F7372632F636F72652F697076F4
:101F1000342F6970342E6300702D3E726566203D4B
:101F20003D203100417373657274696F6E20222504
:101F30007322206661696C6564206174206C696E2F
:101F40006520256420696E2025730A006368656337
:101F50006B20746861742066697273742070627596
:101F6000662063616E20686F6C64207374727563A1
:101F7000742069705F68647200000000EA0000204D
:101F80005856000810B5052000F0C2FB10BD000037
:101F900070B504460D460E480068A04203D10C49B6
:101FA000206808600EE000BF002D08D100BF09A323
:101FB00040F2451216A11DA0FFF7CEF800BF00BFEA
:101FC000206828602146042012F088FD70BD0000C2
:101FD000EC0000202E2E2F4D6964646C65776172D1
:101FE00065732F54686972645F50617274792F4C05
:101FF0007749502F7372632F636F72652F69707604
:10200000342F6970345F667261672E6300000000D0
:1020100073616E69747920636865636B206C696EA7
:102020006B6564206C697374000000004173736514
:102030007274696F6E2022257322206661696C6557
:1020400064206174206C696E6520256420696E20AF
:1020500025730A0070B505460E46042000F058FBB3
:10206000044664B93146284600F01EF8B04203DB4E
:10207000042000F04DFB04460CB9002070BD202167
:102080002046FEF7D8F80F20E07706480068206069
:10209000044804601422294604F10800FEF7A4F85D
:1020A0002046EBE7EC0000202DE9F84F0546894675
:1020B000002700BF0026B2460020009083461B4840
:1020C000046821E06069E968884207D1A06929694C
:1020D000884203D1A089A988884201D0012000E06C
:1020E000002068B10BF1010B1EB92646CDF800A007
:1020F00006E0E07FF17F884202DC2646CDF800A0B2
:10210000206800B1A2462468002CDBD12EB13046F5
:10211000009911F097FD804647444F4502DABBF124
:10212000010FC7DC3846BDE8F88F0000EC00002046
:1021300070B500250A4804680FE0E07F002805DD3F
:10214000E07F401EE0772546246806E026462468A6
:102150002946304611F076FD00BF002CEDD170BD50
:10216000EC00002070B505462C4600BF002C08D1BD
:1021700000BF0FA340F2CE221CA11FA0FEF7ECFF70
:1021800000BF00BF00BFAC4208D000BF08A340F2B0
:10219000CF2223A118A0FEF7DFFF00BF00BF6069B8
:1021A00010B1606900F0D8FD204611F07DFB70BDD4
:1021B0002E2E2F4D6964646C6577617265732F54A0
:1021C000686972645F50617274792F4C7749502F3F
:1021D0007372632F636F72652F697076342F697025
:1021E000345F667261672E630000000070637220C6
:1021F000213D204E554C4C00417373657274696FDC
:102200006E2022257322206661696C6564206174EA
:10221000206C696E6520256420696E2025730A0094
:10222000706372203D3D20700000000030B5044610
:1022300013B10020744D28607448844202D374485E
:10224000844202D30120107030BDB4F1006F0FD36F
:10225000704884420CD26C480068B0F1006F07D21D
:102260004FF000600860684D286000201070EBE7B8
:10227000684884420ED3684884420BD262480068A2
:10228000644DA84206D2284608605F4D28600020B1
:102290001070D9E7604884420ED3604884420BD264
:1022A000594800685C4DA84206D228460860564D41
:1022B000286000201070C7E7584884420ED3584861
:1022C00084420BD250480068544DA84206D228469A
:1022D00008604D4D286000201070B5E750488442DA
:1022E0000ED34A4884420BD2474800684C4DA8425E
:1022F00006D228460860444D286000201070A3E7ED
:10230000424884420ED3474884420BD23E4800687C
:102310003E4DA84206D2284608603B4D286000206A
:10232000107091E73F4884420ED33F4884420BD25D
:10233000354800683B4DA84206D228460860324D19
:102340002860002010707FE7374884420ED337485A
:1023500084420BD22C480068334DA84206D228464E
:102360000860294D2860002010706DE72F488442D6
:102370000ED32F4884420BD2234800682B4DA8422D
:1023800006D228460860204D2860002010705BE7C8
:10239000274884420ED31E4884420BD21A48006854
:1023A000234DA84206D228460860174D2860002019
:1023B000107049E7164884420ED31E4884420BD25F
:1023C00011480068124DA84206D2284608600E4DFA
:1023D00028600020107037E7164884420ED3B4F10D
:1023E000016F0BD208480068124DA84206D2284659
:1023F0000860054D28600020107025E70020086067
:102400001070012020E700003000002000000208CA
:1024100000000C08004000080080000800C0000810
:102420000000010800000408000006080000080879
:1024300000000A0800000E082DE9F84F8B463748C7
:10244000C06A806800904FF0000900240026A24670
:102450003248D0F82C8000BF5D463FE0D8F800003D
:1024600000F0004010B16FF007073FE06E894FF0B9
:10247000000A23E040F2F4531A1B6B6803EB0A01D5
:10248000009B1819FDF7B0FED8F80C80D8F80000B2
:1024900000F0004010B16FF0070727E0D8F80800FF
:1024A000009040F2F450001B361A40F2F450001B2A
:1024B000824440F2F450001B81440024301940F261
:1024C000F4518842D6D86A6802EB0A01009A1019C2
:1024D0003246FDF789FE3444B1442D68002DBDD14C
:1024E00049460E480EF0E3F9002700BF0B4800688C
:1024F00000F58050406900F0200058B120210748C5
:10250000006800F58050416100210448006800F532
:10251000805041603846BDE8F88F0000BC31002093
:102520000146080601F47F4240EA022001F47F02DE
:1025300040EA122040EA11607047000010B500BF69
:1025400000BF114820F003001049086008460468E5
:102550004FF4C86020800020608020714FF4C86074
:1025600000F088FF0A4908600120096808714FF4EB
:10257000C860074909680880054909684880034818
:1025800000680449086010BDA332002050000020FC
:102590005400002058000020F8B50446214D0020CA
:1025A000009002F031FF002000900FE01E490098DB
:1025B00031F810601B4A022303FB0021324600233E
:1025C0000120FEF755FB0098401C00901548281A82
:1025D0000099B1EB500FE9D322460023294602208F
:1025E000FEF746FB0F48281A022101EB500000902D
:1025F0000FE00D49009831F810600A4A022303FBEE
:102600000021324600230120FEF732FB0098401CD7
:10261000009041F6FF7100988842EAD302F010FF63
:10262000F8BD00000080000800C00008F8B50546AD
:102630002A4C0020009002F0E7FE002000900FE0FE
:102640002749009831F81060244A022303FB002137
:10265000324600230120FEF70BFB0098401C00903F
:10266000201D1E49401A0099B1EB500FE8D30020FD
:1026700000900FE0009855F82060201D0423009A78
:1026800003FB0201324600230220FEF7F1FA009814
:10269000401C009000980428ECD3201D0F49401ADC
:1026A000082101EB500000900FE00D49009831F82F
:1026B00010600A4A022303FB002132460023012056
:1026C000FEF7D6FA0098401C009041F6FF71009882
:1026D0008842EAD302F0B4FEF8BD00000080000892
:1026E00000C0000810B50023846823604368DB1C29
:1026F00023F00301002207E083681B680B608368F6
:10270000196003881944521C43889342F4DC10BDBD
:1027100070B5044600BF092C0ADB00BF09A340F2D4
:10272000571214A11BA0FEF717FD00BF002070BDBB
:1027300000BF224951F82400FEF790FD05462846C7
:10274000F5E700002E2E2F4D6964646C6577617289
:1027500065732F54686972645F50617274792F4C8D
:102760007749502F7372632F636F72652F6D656D9C
:10277000702E63006D656D705F6D616C6C6F633A98
:102780002074797065203C204D454D505F4D415877
:1027900000000000417373657274696F6E2022251A
:1027A0007322206661696C6564206174206C696EB7
:1027B0006520256420696E2025730A00C85500082D
:1027C0002DE9F05F04460E4617469846DDE90AB942
:1027D00000BF002C0BD100BF49A340F2271255A126
:1027E0005BA0FEF7B9FC00BF0020BDE8F09F00BF72
:1027F00000BFB9F1000F0AD100BF41A34FF494729A
:102800005DA153A0FEF7A8FC00BF0020EDE700BFCC
:1028100006B9624E07B9614FB8F1000F01D1DFF878
:102820007C8100206060A060E0605D486061002005
:10283000A08484F82D00E061C4F820B059480078E5
:1028400084F830000C98206143463A4631462046D1
:1028500012F0B4FA2046C84708B10020C5E700BF0F
:1028600094F83000FF2802D1002084F830004FF0A7
:10287000000A4D48056829E000BFA54208D100BF05
:102880001FA340F28B1249A131A0FEF765FC00BFE7
:1028900000BF0AF1010A00BFBAF1FF0F08DD00BF57
:1028A00017A340F28D1246A129A0FEF755FC00BFE8
:1028B00000BF95F8300094F83010884205D194F8A4
:1028C0003000401C84F8300002E02D68002DD3D188
:1028D00000BF002DC4D194F83000FE2803D10020A1
:1028E0003049087004E094F83000401C2D4908700D
:1028F0002D48006820602C480460204675E70000E1
:102900002E2E2F4D6964646C6577617265732F5448
:10291000686972645F50617274792F4C7749502FE7
:102920007372632F636F72652F6E657469662E63B1
:10293000000000006E657469665F6164643A206936
:102940006E76616C6964206E6574696600000000D3
:10295000417373657274696F6E202225732220663D
:1029600061696C6564206174206C696E6520256402
:1029700020696E2025730A006E657469665F616464
:10298000643A204E6F20696E69742066756E6374B8
:10299000696F6E20676976656E0000005856000802
:1029A000B54D010888000020800000206E65746924
:1029B0006620616C7265616479206164646564009D
:1029C000746F6F206D616E79206E65746966732C0B
:1029D000206D61782E20737570706F72746564203D
:1029E0006E756D62657220697320323535000000A6
:1029F00070B504460D462946204601F023FD2946C0
:102A0000204602F0E9FC70BD10B503460868DC689A
:102A1000A04201D1012000E0002030B909B9002016
:102A200000E00868D860012010BD0020FCE7704776
:102A300001490860704700008400002010B504467A
:102A400000BF002C09D100BF10A340F29B321CA193
:102A500023A0FEF781FB00BF10BD00BF94F82D003E
:102A600000F0010078B100BF94F82D0000F0FE00E6
:102A700084F82D0000BF94F82D0000F0080010B17C
:102A80002046FEF7A1FC00BFE6E700002E2E2F4DEA
:102A90006964646C6577617265732F5468697264E8
:102AA0005F50617274792F4C7749502F7372632F86
:102AB000636F72652F6E657469662E630000000097
:102AC0006E657469665F7365745F646F776E3A20D4
:102AD000696E76616C6964206E65746966000000D9
:102AE000417373657274696F6E20222573222066AC
:102AF00061696C6564206174206C696E6520256471
:102B000020696E2025730A0070B504460D46002228
:102B10002946204600F002F870BD00002DE9F0477C
:102B200004460D46904600BF44B900BF1CA340F2C6
:102B3000DF1227A129A0FEF70FFB00BF00BF14B1D1
:102B4000B5F5803F02D30120BDE8F0870DB9002024
:102B5000FAE7AEB22089304480B2B04201DA0120F7
:102B6000F2E794F80C9009F0800038B16068471BD8
:102B700004F11000874209D20120E5E7B8F1000F07
:102B800002D06068471B01E00120DDE767606089D3
:102B9000304460812089304420810020D4E7000047
:102BA0002E2E2F4D6964646C6577617265732F54A6
:102BB000686972645F50617274792F4C7749502F45
:102BC0007372632F636F72652F706275662E630078
:102BD0007020213D204E554C4C0000004173736520
:102BE0007274696F6E2022257322206661696C659C
:102BF00064206174206C696E6520256420696E20F4
:102C000025730A000146002002E0421C90B20968C8
:102C10000029FAD1704700002DE9F05F804689460F
:102C200016461D464FF0000AD34600BFB8F1000F0C
:102C30000BD100BF21A340F20A422CA133A0FEF722
:102C40008BFA00BF0020BDE8F09F00BF00BFB9F1C4
:102C5000000F0AD100BF19A340F20B4235A12BA0EF
:102C6000FEF77AFA00BF0020EDE700BF444620E0FF
:102C700035B16089A84203DC6089281A85B217E063
:102C80006089401B87B2B74200DD37466268511940
:102C900009EB0A003A46FDF7A7FA0BEB07001FFA0B
:102CA00080FB0AEB07001FFA80FAF01B86B20025B2
:102CB00024680EB1002CDBD15846C4E72E2E2F4DD0
:102CC0006964646C6577617265732F5468697264B6
:102CD0005F50617274792F4C7749502F7372632F54
:102CE000636F72652F706275662E63007062756621
:102CF0005F636F70795F7061727469616C3A2069AB
:102D00006E76616C6964206275660000417373655C
:102D10007274696F6E2022257322206661696C656A
:102D200064206174206C696E6520256420696E20C2
:102D300025730A00706275665F636F70795F7061FA
:102D4000727469616C3A20696E76616C69642064A2
:102D500061746170747200002DE9F0470446002C24
:102D60000ED100BF44B900BF35A34FF4377240A164
:102D700042A0FEF7F1F900BF00BF0020BDE8F087D8
:102D8000002658E000BFA07B002808DC00BF2CA371
:102D900040F2F12243A139A0FEF7DEF900BF00BFE7
:102DA000A07B401E00F0FF0884F80E80B8F1000FF1
:102DB0003FD12768207B00F00F05607B00F0020008
:102DC000002814D0A14600BFD9F81000002808D16F
:102DD00000BF1BA340F2FF2238A128A0FEF7BCF9D8
:102DE00000BF00BF2046D9F8101088471DE0022D13
:102DF00004D12146082011F071FE16E0012D04D106
:102E00002146072011F06AFE0FE01DB9204611F09F
:102E1000E1FA0AE000BF00BF09A340F20F3230A17F
:102E200016A0FEF799F900BF00BF701CC6B23C4661
:102E300000E0002400BF002CA4D130469EE7000033
:102E40002E2E2F4D6964646C6577617265732F5403
:102E5000686972645F50617274792F4C7749502FA2
:102E60007372632F636F72652F706275662E6300D5
:102E70007020213D204E554C4C000000417373657D
:102E80007274696F6E2022257322206661696C65F9
:102E900064206174206C696E6520256420696E2051
:102EA00025730A00706275665F667265653A207008
:102EB0002D3E726566203E203000000070632D3E7E
:102EC000637573746F6D5F667265655F66756E635B
:102ED00074696F6E20213D204E554C4C000000005F
:102EE000696E76616C6964207062756620747970B1
:102EF0006500000070B505460C461646002C04DA45
:102F00006142284612F004FC70BD32462146284634
:102F1000FFF704FEF8E770B5DDE90445002606601A
:102F20004160028143810473457301268673002644
:102F3000C67370BD2DE9F04106460F4600BF002E56
:102F400008D100BF2CA34FF4CC7237A13CA0FEF7F0
:102F500003F900BF00BF3089B84201DCBDE8F08151
:102F60003089C01B1FFA80F83D46344613E0608963
:102F7000281A85B22089A0EB08002081246800BFB0
:102F800044B900BF1CA340F2AF1237A12CA0FEF73A
:102F9000E3F800BF00BF6089A842E8DB207B00F0B7
:102FA0000F0000281BD16089A84218D0607B00F078
:102FB0000200002813D1A088001B284481B22046BB
:102FC00011F072FC044600BF44B900BF0AA340F2EE
:102FD000BD122BA11AA0FEF7BFF800BF00BF65818C
:102FE00060892081206810B12068FFF7B5FE0020BD
:102FF000206000BFB2E700002E2E2F4D6964646C84
:103000006577617265732F54686972645F5061728D
:1030100074792F4C7749502F7372632F636F7265E9
:103020002F706275662E6300706275665F726561EF
:103030006C6C6F633A207020213D204E554C4C0043
:10304000417373657274696F6E2022257322206646
:1030500061696C6564206174206C696E652025640B
:1030600020696E2025730A00706275665F72656163
:103070006C6C6F633A207120213D204E554C4C0002
:103080006D656D5F7472696D2072657475726E65C1
:10309000642071203D3D204E554C4C0010B5044637
:1030A000002C12D000BFA07B401CA07300BF00BF4B
:1030B000A07B002808DC00BF04A340F242320FA12D
:1030C00013A0FEF749F800BF00BF10BD2E2E2F4DF4
:1030D0006964646C6577617265732F5468697264A2
:1030E0005F50617274792F4C7749502F7372632F40
:1030F000636F72652F706275662E6300706275660D
:1031000020726566206F766572666C6F77000000CE
:10311000417373657274696F6E2022257322206675
:1031200061696C6564206174206C696E652025643A
:1031300020696E2025730A002DE9F041044600BF86
:103140003B480068844208D200BF3AA340F2DF1235
:1031500044A14AA0FEF700F800BF00BF00BF5148DD
:103160000068844208D300BF32A34FF4F0724EA12E
:1031700042A0FDF7F1FF00BF00BF00BF207900288B
:1031800008D000BF2BA340F2E1124EA13BA0FDF7F7
:10319000E3FF00BF00BF00BF2088B0F5C86F08D9AB
:1031A00000BF24A34FF4F2724DA134A0FDF7D4FF69
:1031B00000BF00BF208800F05DF90546AC4219D081
:1031C0002879B8B937480068854213D04F4800685D
:1031D000A84201D14D480460288820802888B0F595
:1031E000C86F07D0204611F057FB0746288800F02B
:1031F00041F94780608800F03DF90646A64215D0A7
:10320000307998B941480068A04201D13F48066032
:10321000208830802088B0F5C86F07D0304611F084
:103220003BFB0746208800F025F94780BDE8F08188
:10323000500000202E2E2F4D6964646C65776172FA
:1032400065732F54686972645F50617274792F4C92
:103250007749502F7372632F636F72652F6D656DA1
:103260002E630000706C75675F686F6C65733A2041
:103270006D656D203E3D2072616D00004173736588
:103280007274696F6E2022257322206661696C65F5
:1032900064206174206C696E6520256420696E204D
:1032A00025730A0054000020706C75675F686F6CAE
:1032B00065733A206D656D203C2072616D5F656EAF
:1032C00064000000706C75675F686F6C65733A200E
:1032D0006D656D2D3E75736564203D3D20300000A9
:1032E000706C75675F686F6C65733A206D656D2DE6
:1032F0003E6E657874203C3D204D454D5F53495AE4
:10330000455F414C49474E454400000058000020AD
:1033100010B50446601C08B927A048E00CB928A0E5
:1033200045E0A01C08B928A041E0E01C08B928A08D
:103330003DE0201D08B929A039E0601D08B929A089
:1033400035E0A01D08B92BA031E0E01D08B92BA085
:103350002DE004F1080008B92CA028E004F10900D0
:1033600008B92CA023E004F10A0008B92CA01EE043
:1033700004F10B0008B92DA019E004F10C0008B904
:103380002DA014E004F10D0008B92DA00FE004F108
:103390000E0008B92DA00AE004F10F0008B92DA015
:1033A00005E004F1100008B92DA000E021A00146BD
:1033B0002DA0FDF7D1FE10BD4552525F4D454D0089
:1033C0004552525F4F4B00004552525F42554600F6
:1033D0004552525F54494D454F5554004552525F36
:1033E000525445004552525F494E50524F47524544
:1033F000535300004552525F56414C004552525FB4
:10340000574F554C44424C4F434B00004552525F7E
:10341000555345004552525F414C52454144590075
:103420004552525F4953434F4E4E00004552525F42
:10343000434F4E4E000000004552525F4946000087
:103440004552525F41425254000000004552525FC3
:10345000525354004552525F434C53440000000005
:103460004552525F415247004572726F723A2025B1
:10347000730D0A00014602480068084470470000C6
:10348000500000202DE9F04100F02EF8074600BF63
:1034900000BF1248007808B112F010F900BF1048C0
:1034A00004680CB9BDE8F0816068381AB0F1004FCB
:1034B00001D3012000E0002000B1F3E708492068B3
:1034C0000860A568E668074960680860214606202C
:1034D00011F004FB0DB13046A847D9E78900002060
:1034E000D4000020D800002010B50DF0DFFB10BD87
:1034F0002DE9F04106460F4690460620FFF708F9F1
:103500000446002C0CD100BF07D100BF20A3BE226F
:103510002CA13CA0FDF720FE00BF00BFBDE8F0815C
:1035200000202060A760C4F80C8066603F480068F7
:1035300010B93E480460F1E73C4960680968496891
:10354000401AB0F1004F01D3012000E0002028B163
:103550003648006820603548046017E03348056845
:1035600011E0286850B1606829684968401AB0F1D4
:10357000004F01D3012000E0002018B1286820602E
:103580002C6002E02D68002DEBD100BF00BFC5E725
:103590002E2E2F4D6964646C6577617265732F54AC
:1035A000686972645F50617274792F4C7749502F4B
:1035B0007372632F636F72652F74696D656F7574B5
:1035C000732E63007379735F74696D656F75743AF8
:1035D0002074696D656F757420213D204E554C4CEB
:1035E0002C20706F6F6C204D454D505F5359535FC9
:1035F00054494D454F555420697320656D70747959
:1036000000000000417373657274696F6E2022259B
:103610007322206661696C6564206174206C696E38
:103620006520256420696E2025730A00D4000020DF
:1036300010B5012408E0064901EBC40251F834003A
:10364000044912F0EFF8641C032CF4D310BD000001
:103650003C5600085D4001082DE9FF5F04460E4618
:1036600000BF002C0AD100BF42A340F23D224DA171
:1036700053A0FDF771FD00BFBDE8FF9F00BF00BF75
:10368000207D012808D100BF3AA34FF4107256A143
:103690004BA0FDF761FD00BF00BF207D0A2807D1C8
:1036A00021465E4814F038FC204600F0DDFA5FE069
:1036B0004FF0000AD346276DD4F82480D4F89050F8
:1036C000D4F81090207DE8B9E08A38B300BF5448A0
:1036D0000068A04205D152480068C068504908609F
:1036E0000DE04F49086806E0C168A14202D1E168D7
:1036F000C16002E0C0680028F6D100BF00BF002012
:10370000E0600BE0B246B4F816B000BF2146454871
:1037100014F002FC01204449087000BF206F10B172
:10372000206F01F029FCE06E10B1E06E01F024FC86
:10373000606F10B1606F01F01FFCBAF1000F0AD08A
:10374000208B211D23464246CDE9001B02903946BD
:10375000204601F023FB207D0390204600F084FAF0
:1037600000BF1DB16FF00C014846A84700BF00BF65
:1037700000BF81E72E2E2F4D6964646C65776172FE
:1037800065732F54686972645F50617274792F4C4D
:103790007749502F7372632F636F72652F74637054
:1037A0002E6300007463705F6162616E646F6E3AD5
:1037B00020696E76616C69642070636200000000AD
:1037C000417373657274696F6E20222573222066BF
:1037D00061696C6564206174206C696E6520256484
:1037E00020696E2025730A00646F6E277420636160
:1037F0006C6C207463705F61626F72742F7463709D
:103800005F6162616E646F6E20666F72206C6973B7
:1038100074656E2D7063627300000000A0000020CC
:10382000940000209C000020A400002028B1027D0C
:10383000012A02D10246916100BF704770B505466A
:103840000C46164600BF002C08D100BF07A340F26B
:103850000F3212A119A0FDF77FFC00BF00BF204668
:1038600012F002FB6FF00C0070BD00002E2E2F4DE9
:103870006964646C6577617265732F5468697264FA
:103880005F50617274792F4C7749502F7372632F98
:10389000636F72652F7463702E6300007463705FD2
:1038A0006163636570745F6E756C6C3A20696E76E7
:1038B000616C69642070636200000000417373658D
:1038C0007274696F6E2022257322206661696C65AF
:1038D00064206174206C696E6520256420696E2007
:1038E00025730A0070B505460120FEF711FF044656
:1038F0001CBB00F05BFA13F0C9FC0120FEF708FFC7
:103900000446CCB9092013F059FC0120FEF700FF52
:10391000044684B9082013F051FC0120FEF7F8FE9C
:1039200004463CB9284613F015FC0120FEF7F0FED2
:10393000044600BF00BF00BF00BF44B39C21204627
:10394000FCF779FC0C3465724FF48660A4F85800DB
:103950004000E083A083FF2004F8010C4FF40670C0
:10396000E0840620A0866086C01FA0840120A08776
:1039700008480068606108480078A0744FF48660C9
:10398000E0870648A0670648C4F888000C3C20463B
:1039900070BD000090000020A60000208D95010859
:1039A00000DD6D0000B101617047000010B50446F4
:1039B00000BF002C0BD100BF0CA34FF4F47217A171
:1039C0001CA0FDF7C9FB00BF6FF00F0010BD00BFCA
:1039D000207D012805D000BF608B40F0100060837F
:1039E00000BF0121204600F039F8EFE72E2E2F4DC1
:1039F0006964646C6577617265732F546869726479
:103A00005F50617274792F4C7749502F7372632F16
:103A1000636F72652F7463702E6300007463705F50
:103A2000636C6F73653A20696E76616C69642070AF
:103A300063620000417373657274696F6E202225A2
:103A40007322206661696C6564206174206C696E04
:103A50006520256420696E2025730A003EB5044662
:103A60000D4600BF002C08D100BF55A34FF4AF7224
:103A70005FA167A0FDF770FB00BF00BF002D56D00F
:103A8000207D042802D0207D072850D1A06F18B9CE
:103A9000208DB0F5066F4AD000BFA07E00F0100068
:103AA00040B900BF46A34FF4B27263A158A0FDF71E
:103AB00053FB00BF00BF208BE18A221DCDE900210E
:103AC000029023462046626A216D01F067F9204684
:103AD00014F0B4F900BF00BF5E480068A04205D1F1
:103AE0005C480068C0685B4908600DE05949086897
:103AF00006E0C168A14202D1E168C16002E0C0688D
:103B00000028F6D100BF00BF0020E06000BF012008
:103B10005149087000BF51480068A04202D116F018
:103B2000AFFD02E0204600F09FF800203EBD207D62
:103B300020B1012824D002283AD12CE0E08AD8B163
:103B400000BF47480068A04205D145480068C068EA
:103B5000434908600DE04249086806E0C168A14297
:103B600002D1E168C16002E0C0680028F6D100BF60
:103B700000BF0020E06000BF204600F075F81BE0A9
:103B8000204600F00FFA2146364814F0C5F92046C9
:103B900000F0B4F810E000BF21462E4814F0BCF944
:103BA00001202D49087000BF204600F05DF803E0B9
:103BB000204612F019FAB9E700BF0020B6E700006E
:103BC0002E2E2F4D6964646C6577617265732F5476
:103BD000686972645F50617274792F4C7749502F15
:103BE0007372632F636F72652F7463702E630000AE
:103BF0007463705F636C6F73655F73687574646F13
:103C0000776E3A20696E76616C6964207063620039
:103C1000417373657274696F6E202225732220666A
:103C200061696C6564206174206C696E652025642F
:103C300020696E2025730A007063622D3E666C61F8
:103C4000677320262054465F5258434C4F534544D7
:103C5000000000009C000020A4000020D0000020F4
:103C6000940000209800002010B5044600BF207D7D
:103C7000012807D100BF06A3D42211A115A0FDF78A
:103C80006BFA00BF00BF2146012010F027FF10BDD6
:103C90002E2E2F4D6964646C6577617265732F54A5
:103CA000686972645F50617274792F4C7749502F44
:103CB0007372632F636F72652F7463702E630000DD
:103CC0007463705F667265653A204C495354454E83
:103CD00000000000417373657274696F6E202225C5
:103CE0007322206661696C6564206174206C696E62
:103CF0006520256420696E2025730A0010B50446EE
:103D000000BF207D012807D100BF06A3DF2211A13B
:103D100017A0FDF721FA00BF00BF2146022010F0D6
:103D2000DDFE10BD2E2E2F4D6964646C65776172C7
:103D300065732F54686972645F50617274792F4C97
:103D40007749502F7372632F636F72652F7463709E
:103D50002E6300007463705F667265655F6C6973E3
:103D600074656E3A20214C495354454E00000000C2
:103D7000417373657274696F6E2022257322206609
:103D800061696C6564206174206C696E65202564CE
:103D900020696E2025730A0010B50446606F20B1BB
:103DA000606F01F0E9F80020606710BD70B50B4846
:103DB000046810E0E568A07E00F0080048B100BF8C
:103DC000608B4FF6F7710840608300BF204612F009
:103DD0000BF92C4600BF002CECD170BD9C000020DC
:103DE00010B5044600BF002C08D100BF13A340F259
:103DF0005A221FA128A0FDF7AFF900BF00BF30482D
:103E0000007800F01000B8B1A07E00F0100050B9AA
:103E100000BFD4F8900028B16FF00E01D4F89020C4
:103E20002069904700BF2146264814F075F82046C7
:103E3000FFF71AFF012010BD0020FCE72E2E2F4DAA
:103E40006964646C6577617265732F546869726424
:103E50005F50617274792F4C7749502F7372632FC2
:103E6000636F72652F7463705F696E2E630000006C
:103E70007463705F696E7075745F64656C61796599
:103E8000645F636C6F73653A20696E76616C696418
:103E90002070636200000000417373657274696F83
:103EA0006E2022257322206661696C65642061742E
:103EB000206C696E6520256420696E2025730A00D8
:103EC000C90000209C0000202DE9F0410446002696
:103ED00000BF002C08D100BF14A340F6240220A18B
:103EE00026A0FDF739F900BF00BF216D481EFEF77F
:103EF00017FB8046434600223146204613F0F4FB70
:103F000005461DB94FF0FF30BDE8F0813346002271
:103F10002946204613F0E8FC231D22462946204668
:103F200000F0E8FB07463846EEE700002E2E2F4D46
:103F30006964646C6577617265732F546869726433
:103F40005F50617274792F4C7749502F7372632FD1
:103F5000636F72652F7463705F6F75742E630000FA
:103F60007463705F6B656570616C6976653A206932
:103F70006E76616C696420706362000041737365E2
:103F80007274696F6E2022257322206661696C65E8
:103F900064206174206C696E6520256420696E2040
:103FA00025730A0070B5044600BF44B900BF12A3D0
:103FB00040F211121CA11FA0FDF7CEF800BF00BFF8
:103FC00000BF207D012808D000BF0BA34FF48972E9
:103FD00022A118A0FDF7C0F800BF00BF012507E02F
:103FE000244951F825100868214615F031FB6D1C55
:103FF000042DF5D370BD00002E2E2F4D6964646C26
:104000006577617265732F54686972645F5061727D
:1040100074792F4C7749502F7372632F636F7265D9
:104020002F7463702E63000070636220213D204E68
:10403000554C4C00417373657274696F6E20222574
:104040007322206661696C6564206174206C696EFE
:104050006520256420696E2025730A007063622D37
:104060003E7374617465203D3D204C495354454E68
:10407000000000002C5600082DE9FE430546544878
:10408000007800F0040008B1BDE8FE8300BF002DF9
:1040900008D100BF4FA340F281225BA162A0FDF7CF
:1040A0005BF800BF00BF4A48007800F01000B0B1D4
:1040B000674800680088664909684988654ACDE90B
:1040C0000021029064480068644909884218614BE5
:1040D0001B1D63480168284600F060FE75E03C48FF
:1040E000007800F0020000286FD0687DFFF7FAFB2F
:1040F000044674B900BFA86938B14FF0FF320021FF
:10410000AB6928699847804601E06FF00F0800BF4F
:10411000BAE750481038406920604E4810380069AE
:104120006060E88AE0824A480068008820830320B3
:10413000207549480068401C6062606AE062204661
:1041400013F0C8F80646A66526656664E66542482B
:104150000068401E606528692061E567687A00F0A4
:104160000C006072287A207200BF00BF3D480068D2
:10417000E0603C48046000F07BFF00BF01203A494A
:10418000087000BF204613F0C1FD31480068C089A7
:1041900024F8600F20886080603C201D0FF03AFBFF
:1041A0008046608E221D414612F07CF86086122106
:1041B000204612F0E1F8074627B100212046FFF71C
:1041C0004BFA61E7204613F0DDF800BF5CE7000022
:1041D000C80000202E2E2F4D6964646C65776172D3
:1041E00065732F54686972645F50617274792F4CE3
:1041F0007749502F7372632F636F72652F746370EA
:104200005F696E2E630000007463705F6C69737485
:10421000656E5F696E7075743A20696E76616C695F
:104220006420706362000000417373657274696F8B
:104230006E2022257322206661696C65642061749A
:10424000206C696E6520256420696E2025730A0044
:10425000AC00002098320020BC000020C6000020E6
:10426000C00000209C000020A400002070B504467F
:104270000D4600222946204600F002F870BD0000DD
:104280002DE9F041044688461746002500BF002C62
:104290000BD100BF38A340F2593243A14EA0FCF726
:1042A0005BFF00BF6FF00F0660E000BF00BF207D26
:1042B00000280BD000BF30A340F25A3250A146A0D4
:1042C000FCF74AFF00BF6FF00E064FE000BF207DF5
:1042D000012803D125466FF0080647E00220FEF7CB
:1042E00017FA054615B94FF0FF363FE020692861FF
:1042F000E08AE88201202875607D6875607A6872BE
:1043000000202872E07AE872A07AA87220682860FB
:10431000E08AD8B100BF48480068A04205D14648AD
:104320000068C068444908600DE04349086806E039
:10433000C168A14202D1E168C16002E0C068002802
:10434000F6D100BF00BF0020E06000BF2046FFF7AD
:104350008BFC3A48A86100BF39480068E8603848DB
:10436000056000F085FE00BF002600BF07B13E706B
:104370002846BDE8F08100002E2E2F4D6964646C44
:104380006577617265732F54686972645F506172FA
:1043900074792F4C7749502F7372632F636F726556
:1043A0002F7463702E6300007463705F6C697374A4
:1043B000656E5F776974685F6261636B6C6F675F7E
:1043C000616E645F6572723A20696E76616C6964D1
:1043D0002070636200000000417373657274696F3E
:1043E0006E2022257322206661696C6564206174E9
:1043F000206C696E6520256420696E2025730A0093
:104400007463705F6C697374656E5F776974685FFD
:104410006261636B6C6F675F616E645F6572723A55
:104420002070636220616C726561647920636F6ED5
:104430006E65637465640000940000203D380008D8
:104440009800002070B506460D46D6B13068C0B160
:104450000C480168304600F01BF80B4801683046F4
:1044600000F016F86DB1286858B10848046806E0F5
:1044700020683168884201D128682060E468002CF7
:10448000F6D170BD9C000020940000209800002010
:104490002DE9F04105460E46344600BF002D08D1F7
:1044A00000BF0CA34FF4106216A123A0FCF754FE2A
:1044B00000BF00BF0AE020682968884205D1E7688C
:1044C000204611F0D1FC3C4600E0E468002CF2D11B
:1044D000BDE8F0812E2E2F4D6964646C65776172A2
:1044E00065732F54686972645F50617274792F4CE0
:1044F0007749502F7372632F636F72652F746370E7
:104500002E6300007463705F6E657469665F697026
:104510005F616464725F6368616E6765645F706346
:10452000626C6973743A20696E76616C6964206F9D
:104530006C645F6164647200417373657274696F67
:104540006E2022257322206661696C656420617487
:10455000206C696E6520256420696E2025730A0031
:1045600010B5002300BF16480088401C144C208062
:10457000204600884FF6FF74A04203D14FF440401C
:104580000F4C2080002116E00E4850F821000268F0
:104590000DE0D08A0A4C2488A04207D1581C83B26F
:1045A000B3F5804F01DB002010BDDCE7D268002AA4
:1045B000EFD1481CC1B20429E6DB01480088F3E7CB
:1045C0008C0000202C56000870B505460C4600BF34
:1045D000002D08D100BF25A340F21F4230A13AA010
:1045E000FCF7BAFD00BF00BFE96888890FF05EFDE7
:1045F00000F0010020B1204600F0BEFC002433E0B2
:1046000013E0E16888890FF051FD00F0010038B136
:1046100001200FF04BFDE96889890843E96888812A
:1046200026462468304615F025FA4CB1E06840680B
:104630002189084429892E4A12681144081AE0D5B4
:1046400094B128892A4909680844E1684968401AF0
:10465000002809DDE068808825490988401A2881FA
:1046600029896868FEF766FC2C6070BD2E2E2F4DE0
:104670006964646C6577617265732F5468697264EC
:104680005F50617274792F4C7749502F7372632F8A
:10469000636F72652F7463705F696E2E6300000034
:1046A0007463705F6F6F735F696E736572745F734D
:1046B00065676D656E743A20696E76616C69642019
:1046C0006373656700000000417373657274696FFE
:1046D0006E2022257322206661696C6564206174F6
:1046E000206C696E6520256420696E2025730A00A0
:1046F000BC0000202DE9FE4F04460E4692469B4624
:1047000000BF002E08D100BF17A340F2877223A17B
:104710002DA0FCF721FD00BF00BF5A4651462046A0
:1047200000F02CFB054615B96FF0030715E024B126
:1047300094F80B8094F80A9003E04FF0FF084FF0D4
:104740000009062043465A465146CDE9009002959D
:1047500030460EF0C5FE074600BF3046FEF7FCFAB5
:104760003846BDE8FE8F00002E2E2F4D6964646C24
:104770006577617265732F54686972645F50617206
:1047800074792F4C7749502F7372632F636F726562
:104790002F7463705F6F75742E6300007463705FB5
:1047A0006F75747075745F636F6E74726F6C5F7326
:1047B00065676D656E743A20696E76616C69642018
:1047C0007062756600000000417373657274696FF2
:1047D0006E2022257322206661696C6564206174F5
:1047E000206C696E6520256420696E2025730A009F
:1047F0002DE9F84F81460C4617469846DDE90BAB8C
:104800000A9E009400BFB8F1000F07D100BF29A392
:10481000E82235A13DA0FCF79FFC00BF00BF00BF10
:10482000002E07D100BF23A3E92242A137A0FCF745
:1048300093FC00BF00BFBC421BDA0AF0020050B973
:10484000B07E00F04000A0B9BBF1000F03D0F06EC5
:1048500008B9306F68B104F21B2020F00300B842A1
:1048600001D9384603E004F21B2020F0030080B297
:1048700000904FF420724846009910F033FB054633
:1048800015B90020BDE8F88F00BF286840B100BF0F
:1048900008A340F20B122FA11CA0FCF75DFC00BF87
:1048A00000BF6889001BA8F800002C816C81284695
:1048B000E8E700002E2E2F4D6964646C6577617205
:1048C00065732F54686972645F50617274792F4CFC
:1048D0007749502F7372632F636F72652F74637003
:1048E0005F6F75742E6300007463705F706275662D
:1048F0005F707265616C6C6F633A20696E76616C93
:104900006964206F76657273697A650041737365B7
:104910007274696F6E2022257322206661696C654E
:1049200064206174206C696E6520256420696E20A6
:1049300025730A007463705F706275665F707265DC
:10494000616C6C6F633A20696E76616C696420708B
:10495000636200006E65656420756E636861696EF0
:1049600065642070627566002DE9F041044600BF61
:10497000002C0CD100BF29A340F2096233A13DA055
:10498000FCF7EAFB00BF6FF00F00BDE8F08100BF4D
:10499000A06F477BA66F0020A06700BFD4F88400FB
:1049A00040B1002332462146D4F884C02069E04754
:1049B000054606E0002332462146184614F0E6FD7F
:1049C000054600BFF5B907F0200028B3208DB0F5EB
:1049D000066F02D0208D401C208500BFD4F88400D3
:1049E00040B100231A462146D4F884C02069E0472C
:1049F000054600E0002500BF05F10D0060B96FF02D
:104A00000C00C2E705F10D0010B96FF00C00BCE717
:104A1000A6676FF00400B8E70020B6E72E2E2F4DF2
:104A20006964646C6577617265732F546869726438
:104A30005F50617274792F4C7749502F7372632FD6
:104A4000636F72652F7463702E6300007463705F10
:104A500070726F636573735F726566757365645FAB
:104A6000646174613A20696E76616C696420706378
:104A700062000000417373657274696F6E202225B5
:104A80007322206661696C6564206174206C696EB4
:104A90006520256420696E2025730A0070B50446E0
:104AA0000D46002C0FD000BF207D012808D100BF8B
:104AB00005A340F2DF7210A119A0FCF74DFB00BF67
:104AC00000BFC4F8845070BD2E2E2F4D6964646CF5
:104AD0006577617265732F54686972645F506172A3
:104AE00074792F4C7749502F7372632F636F7265FF
:104AF0002F7463702E630000696E76616C696420A8
:104B0000736F636B657420737461746520666F7274
:104B100020726563762063616C6C6261636B000078
:104B2000417373657274696F6E202225732220664B
:104B300061696C6564206174206C696E6520256410
:104B400020696E2025730A002DE9F04104460F46C6
:104B500000BF002C0AD100BF1CA340F2CF3227A116
:104B60002CA0FCF7F9FA00BFBDE8F08100BF00BF40
:104B7000207D012808D100BF14A340F2D2322FA11A
:104B800024A0FCF7E9FA00BF00BF208D384485B2AD
:104B9000B5F5066F02DC208DA84203DD4FF40660F8
:104BA000208500E02585204615F074FD0646B6F503
:104BB000067F08D300BF608B40F00200608300BF17
:104BC000204612F0DFFB00BFCEE700002E2E2F4D57
:104BD0006964646C6577617265732F546869726487
:104BE0005F50617274792F4C7749502F7372632F25
:104BF000636F72652F7463702E6300007463705F5F
:104C00007265637665643A20696E76616C696420CA
:104C100070636200417373657274696F6E20222540
:104C20007322206661696C6564206174206C696E12
:104C30006520256420696E2025730A00646F6E2745
:104C4000742063616C6C207463705F726563766559
:104C50006420666F72206C697374656E2D70636278
:104C60007300000070B5044600BF002C08D100BFDF
:104C700022A340F263622EA136A0FCF76DFA00BFBA
:104C800000BF206F10B96FF0050070BD256F07E001
:104C9000284612F0E1FF10B16FF00500F5E72D682E
:104CA00028680028F4D1284612F0D6FF10B16FF022
:104CB0000500EAE7E06E2860206FE06600202067CC
:104CC00000BF608B40F40060608300BFE968486803
:104CD000FDF726FC0646E96888890FF0E7F900F041
:104CE000030008B1012000E0002029890844304475
:104CF000E0640020606300BFC7E700002E2E2F4D48
:104D00006964646C6577617265732F546869726455
:104D10005F50617274792F4C7749502F7372632FF3
:104D2000636F72652F7463705F6F75742E6300001C
:104D30007463705F7265786D69745F72746F5F70B1
:104D40007265706172653A20696E76616C69642083
:104D500070636200417373657274696F6E202225FF
:104D60007322206661696C6564206174206C696ED1
:104D70006520256420696E2025730A0070B50446FD
:104D80000E4615462CB1207A18B1207A0FF092FF0A
:104D900070BD28460EF03EFDFAE700002DE9F04F09
:104DA00085B083460F4690461D46DDF8389000BF1B
:104DB000002D08D100BF1EA340F2C47229A130A06B
:104DC000FCF7CAF900BF00BF00BFB9F1000F08D15E
:104DD00000BF17A340F2C57233A129A0FCF7BCF9AC
:104DE00000BF00BF002646F2080A3846FDF798FBD0
:104DF00014220490DDE90F018DE8070400223146FA
:104E00004046049B12F0DEFC044614B905B0BDE830
:104E1000F08F334600222146584612F065FD4B467E
:104E20002A4621465846FFF765FC00BFEEE7000022
:104E30002E2E2F4D6964646C6577617265732F54F3
:104E4000686972645F50617274792F4C7749502F92
:104E50007372632F636F72652F7463705F6F757405
:104E60002E6300007463705F7273743A20696E760B
:104E7000616C6964206C6F63616C5F697000000035
:104E8000417373657274696F6E20222573222066E8
:104E900061696C6564206174206C696E65202564AD
:104EA00020696E2025730A007463705F7273743A10
:104EB00020696E76616C69642072656D6F74655FE0
:104EC0006970000070B5054600BF002D08D100BF15
:104ED0000CA340F2826217A11DA0FCF73DF900BFB0
:104EE00000BF0320FDF714FC04460CB9002070BD80
:104EF00095E80F0084E80F006068FEF7CFF82046C1
:104F0000F5E700002E2E2F4D6964646C65776172A1
:104F100065732F54686972645F50617274792F4CA5
:104F20007749502F7372632F636F72652F746370AC
:104F30002E6300007463705F7365675F636F7079E1
:104F40003A20696E76616C696420736567000000C1
:104F5000417373657274696F6E2022257322206617
:104F600061696C6564206174206C696E65202564DC
:104F700020696E2025730A0070B5044605E0256897
:104F8000204614F077FD2C4600BF002CF7D170BDF1
:104F900070B5044600BF002C08D100BF16A340F234
:104FA000EB3222A128A0FCF7D7F800BF00BFE06ECB
:104FB000E8B1E56E00E02D6828680028FBD1E968BB
:104FC00088890FF073F800F0070078B901200FF01E
:104FD0006DF8E96889890843E968888100BF608BBA
:104FE00040F02000608300BF002070BD00BF0121A1
:104FF000204611F0C1F9F8E72E2E2F4D6964646C3C
:105000006577617265732F54686972645F5061726D
:1050100074792F4C7749502F7372632F636F7265C9
:105020002F7463705F6F75742E6300007463705F1C
:1050300073656E645F66696E3A20696E76616C694D
:105040006420706362000000417373657274696F5D
:105050006E2022257322206661696C65642061746C
:10506000206C696E6520256420696E2025730A0016
:1050700010B50948006868B90848006810B90848C0
:10508000006838B101200449086000220549FA206F
:1050900010F0C8FB10BD0000DC0000209C000020C8
:1050A000A000002085B101083EB5044629480078DB
:1050B00000F0040000B13EBD00BF002C08D100BFCD
:1050C00025A340F2EE2231A138A0FCF745F800BF3D
:1050D00000BF2048007800F0020018B33D49606A24
:1050E0000968081A26D4218D606A0844394909687C
:1050F000081A00281EDC384800680088364909680C
:105100004988364ACDE90021029032480068344986
:1051100009884218314B1B1D324801682046FFF7B1
:105120003DFEC8E70B48007800F0010010B12E48A2
:10513000006820622A480088002808DD00BF608BD4
:1051400040F00200608300BF204612F01BF900BF50
:10515000B1E70000C80000202E2E2F4D6964646C5A
:105160006577617265732F54686972645F5061720C
:1051700074792F4C7749502F7372632F636F726568
:105180002F7463705F696E2E630000007463705F3C
:1051900074696D65776169745F696E7075743A20C2
:1051A000696E76616C696420706362004173736537
:1051B0007274696F6E2022257322206661696C65A6
:1051C00064206174206C696E6520256420696E20FE
:1051D00025730A00BC000020AC000020983200209B
:1051E000C6000020C00000209000002010B511F083
:1051F00079FA06480078401CC0B20449087000F0F3
:10520000010008B114F03AFD10BD0000A500002017
:105210002DE9FC5F04464FF0000A00BF002C08D1C6
:1052200000BF37A340F64F0242A14BA0FBF794FF0B
:1052300000BF00BFE56E15B90020BDE8FC9F94F8E3
:105240009A00FF2804DA94F89A00401C84F89A0027
:10525000E96888890EF02AFF00F0010018B128895A
:1052600008B9012000E000208146B9F1000F01D10A
:10527000012000E000208346E86843685A46514612
:10528000204612F031FA064616B94FF0FF30D4E747
:105290007768B9F1000F09D011200EF007FFB98926
:1052A0004CF2FF0211400843B8810DE070681430E1
:1052B0000090696809892A89891A8BB20122686875
:1052C0000099FDF7A9FC00BFE9684868FDF728F9D7
:1052D00000F10108206DB0EB080001D5C4F8508042
:1052E000534600223146204612F0FEFA231D224684
:1052F00031462046FFF7FEF9019001989DE7000036
:105300002E2E2F4D6964646C6577617265732F541E
:10531000686972645F50617274792F4C7749502FBD
:105320007372632F636F72652F7463705F6F757430
:105330002E6300007463705F7A65726F5F77696EC9
:10534000646F775F70726F62653A20696E76616C28
:105350006964207063620000417373657274696FE1
:105360006E2022257322206661696C656420617459
:10537000206C696E6520256420696E2025730A0003
:10538000014600200A782F2A06DD0A783A2A03DA35
:105390000A781207100E09E00A78402A06DD0A781A
:1053A000472A03DA0A78D21F1207100E4A782F2AEA
:1053B00007DD4A783A2A04DA4A78303A0243D0B212
:1053C00009E04A78402A06DD4A78472A03DA4A7813
:1053D000373A0243D0B2704710B5024682B1136823
:1053E00073B169B10B685BB1064B186806E00368DE
:1053F0001468A34201D10B680360C0680028F6D18D
:1054000010BD0000E400002000B587B0FBF77CFC75
:1054100000200190022003900120049002200590BA
:1054200006A901A8FBF7CCFB07B000BD70B5044688
:105430000D4616463246294620460DF09BFB70BDB0
:1054400030B587B00020009043F6FE7118480CF08C
:1054500007F904462246002316490120FBF708FC01
:105460000020019003200390012004900220059069
:1054700006A901A8FBF7A4FB0020009010E00C494E
:10548000009851F820500B4A921C042303FB002182
:105490002A4600230220FBF7EBFB0098401C0090FB
:1054A0000098B0F5805FEAD30BF0E8FA07B030BDA2
:1054B00000800008FEBF0008485454502F312E31A0
:1054C00020323030204F4B0D0A5365727665723AA8
:1054D000206C7749502F312E332E31202868747478
:1054E000703A2F2F736176616E6E61682E6E6F6EEB
:1054F000676E752E6F72672F70726F6A6563747353
:105500002F6C776970290D0A436F6E74656E742D68
:10551000747970653A20746578742F68746D6C0DB9
:105520000A436F6E74656E742D4C656E6774683ACD
:1055300020300D0A436F6E6E656374696F6E3A209A
:105540006B6565702D616C6976650D0A0D0A00FF4B
:10555000FFFFFFFFFF00000000000000200004002C
:10556000F33800205C0000209C0005007639002004
:10557000600000201C000800853C00206400002022
:1055800010001000683D0020680000202000050089
:105590006B3E00206C00002018000F000E3F002022
:1055A00070000020100003007940002074000020EB
:1055B00010001000AC4000207800002060021000B5
:1055C000AF4100207C0000205C55000868550008B1
:1055D00074550008805500088C550008985500083F
:1055E000A4550008B0550008BC550008DCD70108D8
:1055F00004D8010824D80108E4D70108D0D701084D
:10560000B8D70108C4D7010818D80108F0D7010895
:10561000F8D701080CD801080102030405060707A2
:10562000070707070703060C18306078980000206A
:10563000940000209C000020A0000020FA00000040
:10564000ED510008E803000031210008E8030000E4
:10565000E51700080300000000000000FFFFFFFF47
:10566000F1D60108485454502F312E3120323030B9
:10567000204F4B0D0A5365727665723A206C77495C
:10568000502F312E332E312028687474703A2F2F0A
:10569000736176616E6E61682E6E6F6E676E752EC9
:1056A0006F72672F70726F6A656374732F6C77699E
:1056B00070290D0A436F6E74656E742D7479706570
:1056C0003A20746578742F68746D6C0D0A436F6EA0
:1056D00074656E742D4C656E6774683A2025750D7F
:1056E0000A436F6E6E656374696F6E3A206B656511
:1056F000702D616C6976650D0A0D0A00485454508E
:105700002F312E31203430302042616420526571B7
:10571000756573740D0A5365727665723A206C77FD
:1057200049502F312E332E312028687474703A2F4F
:105730002F736176616E6E61682E6E6F6E676E7527
:105740002E6F72672F70726F6A656374732F6C7738
:105750006970290D0A436F6E74656E742D747970CB
:10576000653A20746578742F68746D6C0D0A436F08
:105770006E74656E742D4C656E6774683A2025757D
:105780000D0A436F6E6E656374696F6E3A206B65C8
:1057900065702D616C6976650D0A0D0A00000000C8
:1057A000485454502F312E3120323030204F4B0D81
:1057B0000A5365727665723A206C7749502F312E04
:1057C000332E312028687474703A2F2F73617661FC
:1057D0006E6E61682E6E6F6E676E752E6F72672FBC
:1057E00070726F6A656374732F6C776970290D0A24
:1057F000436F6E74656E742D747970653A202573ED
:105800000D0A436F6E74656E742D4C656E67746817
:105810003A2025750D0A436F6E6E656374696F6E6D
:105820003A206B6565702D616C6976650D0A0D0A0D
:10583000000000007463705F656E71756575655F6B
:10584000666C6167733A206E65656420656974688B
:105850006572205443505F53594E206F7220544359
:10586000505F46494E20696E20666C616773202840
:1058700070726F6772616D6D65722076696F6C61B1
:10588000746573204150492900000000AC5800089D
:10589000000000200401000090110008B059000829
:1058A00004010020B4A70000A011000800000000BF
:1058B0000000000000800008000000000000000060
:1058C00000000000000000000000000000000000D8
:1058D00000000000000000000000000000000000C8
:1058E00000000000000000000000000000000000B8
:1058F00010000000010000000024F400000000007F
:105900000000000000000000000000000000000097
:105910000000000000000000000000000000000087
:105920000000000000000000000000000000000077
:10593000000000000000000000C0000000000000A7
:105940000000000000000000000000000000000057
:10595000000000006E1900000000000000000000C0
:105960000000000000000000000000000000000037
:105970000000000000000000000000000000000027
:1059800000000000000000000000000000C0000057
:105990000000000000000000000000000000000007
:1059A00000000000000000000000000000000000F7
:020000040801F1
:100000002DE9F05F0546002092469B46884606464D
:10001000814640241BE0284641464746224600F0E0
:100020005CF853465A46C01A914110D311461846FF
:10003000224600F043F82D1A67EB01084F4622468E
:100040000120002100F03AF817EB00094E41201E74
:10005000A4F10104DFDC484631462A464346BDE8A8
:10006000F09F000000487047605600080649074AA4
:100070000868504343F23902104408604008704752
:100080000149086070470000F40000206D4EC64131
:1000900030B50B46014600202022012409E021FA58
:1000A00002F59D4205D303FA02F5491B04FA02F555
:1000B0002844151EA2F10102F1DC30BD202A04DB28
:1000C000203A00FA02F1002070479140C2F120036B
:1000D00020FA03F3194390407047202A04DB203AAA
:1000E00021FA02F00021704721FA02F3D040C2F158
:1000F000200291400843194670473A2800D2303810
:1001000020F02002412A01D3A2F13700884201D316
:100110004FF0FF30704700BFFEE77047016801F500
