:020000040800F2
:10000000B8A8002001000108A1100008950E000802
:10001000591B0108750300087D1B01080000000042
:10002000000000000000000000000000A510000813
:1000300049010108000000005D1B01085F1B010869
:100040001B0001081B0001081B0001081B00010820
:100050001B0001081B0001081B0001081B00010810
:100060001B0001081B0001081B0001081B00010800
:100070001B0001081B0001081B0001081B000108F0
:100080001B0001081B0001081B0001081B000108E0
:100090001B0001081B0001081B0001081B000108D0
:1000A0001B0001081B0001081B0001081B000108C0
:1000B0001B0001081B0001081B0001081B000108B0
:1000C0001B0001081B0001081B0001081B000108A0
:1000D0001B0001081B0001081B0001081B00010890
:1000E0001B0001081B0001081B0001081B00010880
:1000F0001B0001081B0001081B0001081B00010870
:100100001B0001081B0001081B0001081B0001085F
:100110001B0001081B0001081B0001081B0001084F
:100120001B0001081B0001081B0001081B0001083F
:100130001B0001081B0001081B0001081B0001082F
:100140001B0001081B0001081B0001081B0001081F
:100150001B0001081B0001081B0001081B0001080F
:100160001B0001081B0001081B0001081B000108FF
:100170001B0001081B0001081B0001080000000013
:100180001B0001081B0001081B0001081B000108DF
:100190001B0001081B0001081B0001081B000108CF
:1001A0001B0001081B0001081B000108DFF810D02C
:1001B00000F0C0F80048004761270008AFF3008056
:1001C000B8A80020D2B201E000F8012B491EFBD2F2
:1001D00070470022F6E710B513460A460446194652
:1001E000FFF7F0FF204610BD2DE9F04791460F467E
:1001F00080460446002614F8015B2DB10FF044FF41
:100200000068405DC007F6D12B2D02D02D2D18D0EF
:10021000641E4A463946204600F03DF827B1396849
:10022000A14201D1C7F8008071054FF002040BD53F
:100230004042002803DD00F0C1FF0460A007BDE8D4
:10024000F08746F48066E4E70028F8DA00F0B6FFAD
:1002500004606FF00040F2E7202A04DB203A00FA45
:1002600002F1002070479140C2F1200320FA03F30D
:10027000194390407047202A04DB203A21FA02F00B
:100280000021704721FA02F3D040C2F120029140D0
:100290000843194670472DE9F05F82460078002731
:1002A00015468B460AF10104B946302801D09DB1AC
:1002B00013E014F8010B0127782803D0582801D047
:1002C00045B10AE00DB1102D07D10027102514F813
:1002D000010B02E0082500E00A250026B0460EE0EA
:1002E00005FB080005FB06F1012701EB10461FFA8C
:1002F00080F8B6F5803F00D3B94614F8010B2946C3
:1003000000F02AF80028EBDABBF1000F05D00FB19E
:10031000641E00E05446CBF80040B9F1000F06D04F
:1003200000F04CFF02210160C81EBDE8F09F48EAC2
:100330000640FAE7064C074D06E0E06840F001038E
:1003400094E8070098471034AC42F6D3FFF732FF29
:100350005C5900087C5900083A2800D2303820F057
:100360002002412A01D3A2F13700884201D34FF085
:10037000FF30704700BFFEE7064A00FB02F105228E
:10038000B1FBF2F1002201E000BF521C8A42FBD314
:100390007047000040900200016801F580518969B2
:1003A00021F00202016801F580518A6170470168FD
:1003B00001F58051896921F40052016801F58051ED
:1003C0008A61704708B508490968C9084FF47A720C
:1003D000B1FBF2F14143009100BF00BF00994A1EFA
:1003E00000920029F9D108BD4C00002038B5044620
:1003F00000200090206800F58050806940F4801152
:10040000206800F580508161206800F58050806987
:1004100000900120FFF7D6FF0099206800F580507A
:10042000816138BD38B5044600200090206800681E
:1004300040F00400216808602068006800900120F6
:10044000FFF7C0FF00982168086038BD38B5044642
:10045000002000902068006840F0080021680860D3
:100460002068006800900120FFF7ACFF0098216829
:10047000086038BD10B5002201B909E0012901D199
:100480000A0205E0022901D10A0201E04FF440729C
:100490000B2800D9001D0E4B1B6823F440730C4C35
:1004A000236023461B681343236023461B6823F005
:1004B000F803236023461B68022444EAC004234354
:1004C000034C236023461B6843F48033236010BD34
:1004D000103C02401C48006800F40070B0B11A489B
:1004E000006820F400701849086000BF08460068E2
:1004F00040F4006008600846006820F4006008606E
:1005000000BF0846006840F4007008600E480068AC
:1005100000F48060B0B10C48006820F480600A49A3
:10052000086000BF0846006840F480500860084634
:10053000006820F48050086000BF0846006840F45E
:100540008060086070470000003C0240084A126862
:1005500022F44072064B1A601A46126842F4007286
:100560001A601A46126842F001021A600160704770
:10057000103C024070B50446002500201449C861B3
:1005800010F080FB054609E0601C38B124B110F082
:1005900079FB401BA04201D9032070BD0D480068C3
:1005A00000F480300028EFD10A48006800F0010014
:1005B00010B10120074908600648006800F4F9708E
:1005C00018B10FF0AFFF0120E7E70020E5E70000DA
:1005D000683200200C3C024070B504460D461646B9
:1005E000002200BF94F84500012801D1022070BD0F
:1005F000012084F8450000BF022084F84400A56271
:1006000000221FE005EB42114FF00040086044F269
:10061000F4504860C2EBC21000EB400006EB8000D3
:100620008860A069012803D1486820F00040486034
:10063000581E904204D905EB42102030C86000E0FB
:10064000CD60521C9A42DDD3206800F58050C56011
:10065000012084F8440000BF002084F8450000BF5A
:1006600000BFC4E770B504460D461646002200BF21
:1006700094F84500012801D1022070BD012084F8C2
:10068000450000BF022084F84400E56200221BE020
:1006900005EB42114FF480100860C2EBC21000EB72
:1006A000400006EB80008860E06918B9086840F4F3
:1006B00040000860581E904204D905EB42102030DB
:1006C000C86000E0CD60521C9A42E1D3206800F57A
:1006D00080500561012084F8440000BF002084F8A8
:1006E000450000BF00BFC8E70146002200BF91F8E7
:1006F0004500012801D102207047012081F8450002
:1007000000BF022081F84400886A006800F00040C1
:10071000002838D1886A006800F48070F0B1886BD6
:10072000401C8863886B012801D1886A08638B6A42
:100730004B63886A0068C0F30D40021FCA63086BF0
:1007400083680B64886AC0688862012081F844006D
:1007500000BF002081F8450000BFCDE7886A00682F
:1007600000F4007048B1886A086300234B630123DA
:100770008B63886AC068886205E0886B401C886368
:10078000886AC0688862012081F8440000BF0020A8
:1007900081F8450000BF0120AEE7000010B586B02B
:1007A0000446142101A8FFF714FD57492068884228
:1007B0007ED100BF00BF002000905448006840F088
:1007C0000070524908600846006800F00070009010
:1007D00000BF00BF00BF002000900846006840F046
:1007E000806008600846006800F08060009000BFEC
:1007F00000BF00BF002000900846006840F0006085
:1008000008600846006800F00060009000BF00BF6C
:1008100000BF00BF002000900846006840F00400C0
:1008200008600846006800F00400009000BF00BFA8
:1008300000BF002000900846006840F001000860FA
:100840000846006800F00100009000BF00BF00BF34
:10085000002000900846006840F00200086008464A
:10086000006800F00200009000BF00BF00BF002041
:1008700000900846006840F04000086008460068A4
:1008800000F04000009000BF00BF32200190022025
:10089000029000200390032004900B20059001A9F2
:1008A0001B4800F069F9862001900220029000E0C8
:1008B00027E000200390032004900B20059001A95D
:1008C000144800F059F94FF40050019002200290B2
:1008D00000200390032004900B20059001A90E48EE
:1008E00000F04AF94FF420500190022002900020BD
:1008F0000390032004900B20059001A9074800F005
:100900003BF906B010BD00000080024030380240C4
:1009100000080240000002400004024000180240AB
:100920002DE9F04104460E4617460025A84694F8E6
:100930004400822802D10220BDE8F081822084F8A0
:1009400044002068056905F01C05208A4FF47841B1
:1009500001EAC0200543481100EA8610054325F04E
:10096000020545F001052068056110F08BF980460D
:1009700012E010F087F9A0EB0800B0F5803F09D332
:10098000012084F8440000BF002084F8450000BF27
:100990000320D1E72068056905F001000028E8D1AF
:1009A0002068406980B23860012084F8440000204B
:1009B000C2E710B5044600BF94F84500012801D1F4
:1009C000022010BD012084F8450000BF022084F8F9
:1009D00044002046FFF7EBFC2046FFF7DDFC2046F5
:1009E0000FF006FD2046FFF701FD20460FF014FD35
:1009F000012084F8440000BF002084F8450000BFB7
:100A000000BFDEE72DE9F04104460E4617460025FB
:100A1000A84694F84400422802D10220BDE8F081A3
:100A2000422084F844002068056905F01C05208AEE
:100A30004FF4784101EAC0200543481100EA8610CE
:100A4000054345F0020545F00105B8B2216848614B
:100A50002068056110F016F9804612E010F012F9D6
:100A6000A0EB0800B0F5803F09D3012084F84400D2
:100A700000BF002084F8450000BF0320CEE72068B7
:100A8000056905F001000028E8D1012084F8440040
:100A90000020C3E72DE9F04104460E46012700255A
:100AA00000BF2648007E012802D10220BDE8F08167
:100AB00001202249087600BF4CF25030FFF75AFD62
:100AC0000746002F32D1401E30602068012810D127
:100AD000207C61680FF0B8FC4CF25030FFF74AFD03
:100AE00007461748006848F2040188431449086023
:100AF0001AE0A56812E0217C2846FFF7BBFC4CF207
:100B00005030FFF737FD07460D48006820F0FA0027
:100B10000B4908600FB1356005E06D1CD4E9021087
:100B20000844A842E7D800BFFFF7D4FC00BF00206C
:100B30000249087600BF3846B8E700006832002056
:100B4000103C024000200949096801F0004159B1F8
:100B50000749064A0C3A11600649116003490968C1
:100B600001F0004101B1012070470000103C02403B
:100B700023016745AB89EFCDF8B502460B4600254A
:100B8000002400200021DFE0012606FA01F51E689E
:100B900006EA0504AC4274D11E7906F00306012E64
:100BA00004D01E7906F00306022E13D190684F0080
:100BB0000326BE40B0434F00DE68BE403043906025
:100BC000506801268E40B0431E79C6F300168E4051
:100BD000304350601E7906F00306032E09D0D0681A
:100BE0004F000326BE40B0434F009E68BE403043D6
:100BF000D0601E7906F00306022E13D1CF0802F151
:100C0000200656F827004E07F70E0F26BE40B043C9
:100C10004F07FF0E1E69BE403043CF0802F1200689
:100C200046F8270010684F000326BE40B0431E79E7
:100C300006F003064F00BE40304310605E6806F4C5
:100C40004036002E7FD000BF00260096404E36680A
:100C500046F480463E4F3E603E46366806F4804687
:100C6000009600BF00BF3B4E8F0856F827008E0746
:100C7000370F0F26BE40B043374EB24202D1002696
:100C80002EE060E0354EB24201D1012628E0344E1C
:100C9000B24201D1022623E0324EB24201D10326F4
:100CA0001EE0314EB24201D1042619E02F4EB2426D
:100CB00001D1052614E02E4EB24201D106260FE0E6
:100CC0002C4EB24201D107260AE02B4EB24201D18E
:100CD000082605E0294EB24201D1092600E00A2685
:100CE0008F073F0FBE4030431A4E8F0846F827004B
:100CF000234E3068A0435E6806F4803606B1204378
:100D00001F4E3060361D3068A0435E6806F4003622
:100D100006B120431A4E361D3060361D3068A043A0
:100D20005E6806F4801606B12043154E0836306022
:100D3000361D3068A0435E6806F4001606B12043F5
:100D40000F4E0C363060491C1029FFF41DAFF8BD62
:100D500044380240083801400000024000040240CC
:100D600000080240000C0240001002400014024043
:100D700000180240001C02400020024000240240F3
:100D8000003C014010B5426921EA020302EA010475
:100D900043EA0443836110BD0AB1816101E00B04A1
:100DA0008361704703480068034909780844014992
:100DB00008607047400000204800002010B50D4832
:100DC000006840F400700B4908600846006840F471
:100DD000806008600846006840F480700860032066
:100DE0000FF0BAFF00200FF053FF00F007F80020CB
:100DF00010BD0000003C02407047000008B500BF75
:100E0000002000900E48006840F480400C490860C3
:100E10000846006800F48040009000BF00BF00BF9B
:100E200000200090081F006840F08050091F0860F3
:100E30000846006800F08050009000BF00BF08BD69
:100E40004438024000BF00BF00BF00BF00BFBFF377
:100E50004F8F00BF00BF00BF0948006800F4E0608A
:100E600008490843001D0649086000BF00BF00BFD5
:100E7000BFF34F8F00BF00BF00BF00BF00BFFDE743
:100E80000CED00E00000FA05014800687047000022
:100E90004C00002000BFFEE70248006800F001009F
:100EA00070470000F0ED00E030B502460B464FF60B
:100EB000FF700021002400BF11E0555C6840002451
:100EC0000AE000F0010525B140104AF20105684032
:100ED00000E04010651CECB2082CF2DB491C994282
:100EE000EBD330BD10B5034800F018FE02F03CFC17
:100EF00010BD0000043200202DE9F0438BB04FF408
:100F000080416448FFF7D0FF05464FF480416248B6
:100F1000FFF7CAFF0646002D62D0002E60D0DFF832
:100F2000748100200490FFF70DFE00200590022040
:100F3000079001200890022009900AA905A8FFF750
:100F4000A9FD8146554B0FCB8DE80F000020049082
:100F500010E004985DF8207008F104000423049A5E
:100F600003FB02013A46002302200FF037FE0498EB
:100F7000401C049004980428EBD343F6FE714548C6
:100F8000FFF792FF0446224600234349891E0120B1
:100F90000FF024FE00200590032007900120089008
:100FA000022009900AA905A8FFF774FD002004900B
:100FB0000FE03849049851F82070374A042303FBA6
:100FC00000213A46002302200FF008FE0498401C3E
:100FD00004900498B0F5805FEBD30FF0F5FD55E079
:100FE0004DB300200490FFF7ADFD002005900220D6
:100FF000079001200890022009900AA905A8FFF790
:1010000049FD002004900FE02349049851F8204046
:10101000204A042303FB00212246002302200FF074
:10102000DDFD0498401C04900498B0F5805FEBD37C
:101030000FF0CAFD2AE04EB300200490FFF782FDB6
:1010400000200590032007900120089002200990BD
:101050000AA905A8FFF71EFD002004900FE00D4926
:10106000049851F820400C4A042303FB0021224637
:10107000002302200FF0B2FD0498401C0490049855
:10108000B0F5805FEBD30FF09FFD00BF0BB0BDE864
:10109000F08300000080000800C0000864B301086D
:1010A00000BFFEE77047000000B593B0302107A8ED
:1010B000FFF78FF8142102A8FFF78BF800BF00207C
:1010C00001902448006840F080502249086008469A
:1010D000006800F08050019000BF00BF00BF0020FA
:1010E00001901D48006840F440401B4908600846D4
:1010F000006800F44040019000BF00BF012007904D
:101100004FF4A020089002200D9041050E9104217B
:101110000F91A8211091022111910721129107A886
:101120000FF048FF08B10FF08BF90F20029002205A
:101130000390002004904FF4A05005904FF480508D
:101140000690052102A80FF01BFE08B10FF078F9F8
:1011500013B000BD40380240007000400FB4084B8F
:1011600010B504A902AA039810F01AFD044602A9BA
:10117000002000F04DF8204610BC5DF814FB000084
:101180001112000802480068C0F3022070470000F6
:101190000CED00E010B5002804DB0A07130E054A29
:1011A000135406E00A07140E034A00F00F031B1F36
:1011B000D45410BD00E400E018ED00E00048704792
:1011C0000001002002E008C8121F08C1002AFAD15D
:1011D00070477047002001E001C1121F002AFBD1B7
:1011E00070472DE9F041044600251E469046C8038D
:1011F00001D5302700E02027880404D505E04146CA
:101200003846B0476D1C641EF9D52846BDE8F0810C
:101210000A68531C0B6010707047000070B50446DC
:101220000D4600BF05F00300002808D000BF08A34A
:101230004FF4B67212A11AA010F0A2FC00BF00BFBA
:101240002E46A06800683060A068066070BD00008F
:101250002E2E2F4D6964646C6577617265732F540F
:10126000686972645F50617274792F4C7749502FAE
:101270007372632F636F72652F6D656D702E6300DF
:101280006D656D705F667265653A206D656D207085
:10129000726F7065726C7920616C69676E6564004D
:1012A000417373657274696F6E2022257322206604
:1012B00061696C6564206174206C696E65202564C9
:1012C00020696E2025730A0070B50546A868046879
:1012D000002C13D02068A968086000BF04F0030048
:1012E000002808D000BF06A34FF48C7210A119A0EB
:1012F00010F046FC00BF00BF204670BD0020FCE798
:101300002E2E2F4D6964646C6577617265732F545E
:10131000686972645F50617274792F4C7749502FFD
:101320007372632F636F72652F6D656D702E63002E
:101330006D656D705F6D616C6C6F633A206D656D8E
:10134000702070726F7065726C7920616C69676E65
:1013500065640000417373657274696F6E202225A5
:101360007322206661696C6564206174206C696E0B
:101370006520256420696E2025730A0010B5044697
:1013800004EB44000C4951F8300060B104EB440117
:10139000094A52F8310001F091FF002004EB4401AA
:1013A000054A42F83100002004EB4401024A02EBF6
:1013B000C101087510BD0000C4670020F0B587B0FA
:1013C00007460D4600BF002D0AD100BF2EA340F2F4
:1013D0008A223BA13EA010F0D3FB00BF07B0F0BDB6
:1013E00000BF7C682088B0F5807F08D1207906286E
:1013F00005D16079042802D16088082803D03846D6
:1014000001F05CFFEAE7D4F80E000690A0690590B1
:10141000686808B9002607E005986968884201D124
:10142000012000E0002006460EB1012000E002206D
:10143000034604F1080206A9284600F0F3F9E08803
:10144000B0F5807F03D0B0F5007F15D113E086B1F1
:10145000022206AB04F10800291DCDE90232CDE9D4
:10146000001005F1260302462231284611F06AFADF
:1014700000E000BF01E000E000BF00BF384601F01F
:101480001DFF00BFAAE700002E2E2F4D6964646C7B
:101490006577617265732F54686972645F50617219
:1014A00074792F4C7749502F7372632F636F726575
:1014B0002F697076342F6574686172702E63000036
:1014C0006E6574696620213D204E554C4C0000002D
:1014D000417373657274696F6E20222573222066D2
:1014E00061696C6564206174206C696E6520256497
:1014F00020696E2025730A002DE9FE4304460F463D
:101500001546A94600BF002C08D100BF5DA340F2DC
:101510001E326AA16DA010F033FB00BF00BF00BFF8
:1015200047B900BF57A340F21F3272A167A010F065
:1015300027FB00BF00BF00BF002D08D100BF51A393
:101540004FF448726EA161A010F01AFB00BF00BFFB
:101550002146286800F08BFC10B1DFF8B48186E0EA
:10156000287800F0F000E02816D101208DF8040062
:1015700000208DF805005E208DF80600687800F0E8
:101580007F008DF80700A8788DF80800E8788DF8BE
:1015900009000DF1040869E02868A1680840D4E951
:1015A0000112114088420ED0288880B24FF6A961FE
:1015B000884208D0E06810B104F10C0903E06FF034
:1015C0000300BDE8FE835348007800EB4000524919
:1015D00001EBC000007D02281BDB4E48007800EBC9
:1015E000400001EBC0008068A04212D1494909784F
:1015F00001EB4101484A02EBC101D9F800004968FA
:10160000884206D1434802783946204610F094FFBC
:10161000D7E7002622E006EB46003F4901EBC00079
:10162000007D022818DB06EB460001EBC000806855
:10163000A04211D106EB4601374A02EBC101D9F8AD
:1016400000004968884207D1324806703246394660
:10165000204610F071FFB4E7701CC6B20A2EDADB28
:101660003A464946204611F01BF8AAE700BF4FF45E
:101670000060434604F1260239460090204600F0FF
:101680007FF99EE72E2E2F4D6964646C6577617239
:1016900065732F54686972645F50617274792F4C5E
:1016A0007749502F7372632F636F72652F6970765D
:1016B000342F6574686172702E6300006E65746902
:1016C0006620213D204E554C4C000000417373654F
:1016D0007274696F6E2022257322206661696C65C1
:1016E00064206174206C696E6520256420696E2019
:1016F00025730A007120213D204E554C4C000000FE
:1017000069706164647220213D204E554C4C00008C
:10171000D4570008E8000020C46700207FB50446C5
:101720000D4616460121074A201D04F126038DE8C7
:101730002500039132461946204611F003F904B002
:1017400070BD0000DA57000870B5002464E004EBB7
:101750004400334901EBC000057D002D5BD004EB54
:10176000440001EBC000408A401C04EB44012C4AB9
:1017700002EBC101488204EB4400114601EBC000BA
:10178000408AB0F5967F0DDA04EB440001EBC0000F
:10179000007D01280AD104EB440001EBC000408A1F
:1017A000052803DB2046FFF7E9FD34E004EB4400A5
:1017B0001B4901EBC000007D032807D1042004EB86
:1017C0004401174A02EBC101087524E004EB440010
:1017D000134901EBC000007D042807D1022004EB6F
:1017E00044010F4A02EBC101087514E004EB440008
:1017F0000B4901EBC000007D01280CD104EB440231
:101800000B4603EBC202111D04EB440203EBC202C0
:10181000906811F05DF9641C0A2C98DB70BD000023
:10182000C46700202DE9F84305460E461746984642
:1018300000BF95F82C00062808D000BF2EA340F268
:10184000A9123BA143A010F09BF900BF00BF5EB1FD
:10185000306848B12946306800F009FB20B930787B
:1018600000F0F000E02803D16FF00F00BDE8F8832E
:101870002A464146304610F0DFFC0446002C01DACF
:1018800060B2F3E7022004EB44013C4A02EBC101E1
:10189000087504EB4400114601EBC000856004EBC1
:1018A000440001EBC0003968C160B98801820020A2
:1018B00004EB440102EBC101488204EB44001146F1
:1018C00051F83000B0B104EB440051F830900020E2
:1018D00004EB440142F831004FF400603B4605F14F
:1018E000260249460090284600F04AF8484601F092
:1018F000E5FC00BF0020B9E72E2E2F4D6964646C13
:101900006577617265732F54686972645F506172A4
:1019100074792F4C7749502F7372632F636F726500
:101920002F697076342F6574686172702E630000C1
:101930006E657469662D3E6877616464725F6C657C
:101940006E203D3D204554485F4857414444525F16
:101950004C454E00417373657274696F6E20222589
:101960007322206661696C6564206174206C696E05
:101970006520256420696E2025730A00C467002055
:101980002DE9F04705460E4617469846DDF82090AB
:10199000484612F0F0FA82460E21304601F086FBEE
:1019A00000B122E07468A4F80CA0D8F80000206010
:1019B000B8F80400A0803868C4F80600B8886081D0
:1019C00000BF95F82C00062808D000BF08A34FF4EC
:1019D000997215A121A010F0D3F800BF00BF3146C5
:1019E0002846AA699047BDE8F0876FF00100FAE742
:1019F0002E2E2F4D6964646C6577617265732F5468
:101A0000686972645F50617274792F4C7749502F06
:101A10007372632F6E657469662F65746865726E84
:101A200065742E63000000006E657469662D3E6863
:101A300077616464725F6C656E206D75737420628B
:101A400065203620666F722065746865726E6574F5
:101A50005F6F7574707574210000000041737365C9
:101A60007274696F6E2022257322206661696C652D
:101A700064206174206C696E6520256420696E2085
:101A800025730A0010B5044600BF44B900BF0CA37B
:101A900040F2132211A115A010F072F800BF00BF90
:101AA000732084F82E0074212F200155194860619D
:101AB0001948A061204600F0CFFC002010BD0000B6
:101AC0002E2E2F4C5749502F5461726765742F6525
:101AD000746865726E657469662E63006E657469FC
:101AE0006620213D204E554C4C000000417373652B
:101AF0007274696F6E2022257322206661696C659D
:101B000064206174206C696E6520256420696E20F4
:101B100025730A00F91400088D25000870B50446E5
:101B2000204612F099F9064606B970BD21463046A6
:101B30002269904705461DB1304601F0BFFB0026E3
:101B400000BFF2E71CB5044600200190009094F815
:101B50002D00C0F38000002854D02E484068A0B368
:101B60004FF4805200212B48FEF74CFF0FF08AF80B
:101B7000019000BF6A4601212648FEF7D1FE0FF012
:101B800081F80199401AB0F57A7F00D924E00098D5
:101B900000F020002028EDD16A4610211D48FEF7F4
:101BA000BFFE009800F0040020B14FF40061194816
:101BB000C16002E000211748C160009800F00200F7
:101BC00020B100211348816014E004E04FF480410B
:101BD000104881600EE000BF0E48C068C0F3CF001F
:101BE0000C498968C1F34F0140EA0102002109480C
:101BF000FEF708FF002107480EF02EFD05480EF005
:101C00001BFF02E00348FEF7D4FE204610F0CEFF93
:101C10001CBD0000BC3100202DE9F04105460E46F8
:101C20000E4C17E060680EF065FA07463A463046FB
:101C300061680EF066FA60B9A0682860E0686860C4
:101C4000E068A8600020E860207C28740020BDE8DF
:101C5000F0812468002CE5D1A01FF8E758D50108D1
:101C60002DE9F84F064688469146B9F1000F09D094
:101C700000205E4908705E49088001235D4A5E4984
:101C800011F0E4FF00200090FEF75CFF10B15BA0B4
:101C90000FF076FF9AE00098305C3A2808D15D4951
:101CA00008700120514908700098401C009086E09F
:101CB0000098411C0091335C4C490A780978491C12
:101CC0004A4C217053498B5420460078012876DD18
:101CD00021460978891E4F4A881802224EA10EF02B
:101CE00010FA00286BD1824600240EE0012101EB9E
:101CF0004401484A881819F019FA46490855084617
:101D0000005D504400F0FF0A641C38490978C81E81
:101D100000EBD071B4EB610FE8DBBAF1000F47D1F3
:101D20003C48C078042808D13A48407939490979B3
:101D300040EA01202E4908803DE03648C07858BB73
:101D4000344880783349497840EA012B2848008894
:101D50004BEA0047314887421DD3314887421AD2A7
:101D6000002511E0042000EB45002A4931F800C0AD
:101D700007EB45016246002301200EF02FFF10B152
:101D800028A00FF0FDFE6D1C2249087800EBD071F1
:101D9000B5EB610FE6DB0EE01E48C07801280AD1E2
:101DA0000EF012FF0020114908700120BDE8F88FE5
:101DB00022A00FF0E5FE00200C49087000BF0B4880
:101DC00000782D2802D100200849087007480078C3
:101DD0002D2803DA00984045FFF65DAF0EF0F4FEC3
:101DE00010B119A00FF0CCFE0020DFE73400002076
:101DF000360000203C00002038000020556E6C6F3B
:101E0000636B20666C617368206572726F720D0A75
:101E100000000000383200200D0A00000000020817
:101E200000000C0850726F6772616D20666C617300
:101E300068206572726F720D0A0000006372632081
:101E40006572726F720D0A004C6F636B20666C6175
:101E50007368206572726F720D0A000070B50546D6
:101E60000C4622460321284611F014F870BD18B51F
:101E700002460092D04300B10AB9012018BD91F882
:101E80002D0000F0020008B90020F7E748689042F2
:101E900001D10020F2E700988B681840D1E90134A5
:101EA0002340984208D1886822EA00008C68E34306
:101EB000984201D10120E1E70020DFE72DE9FE4F44
:101EC00007460C4615469846DDE90C9A0E9EA34639
:101ED00025B10CB1206808B906F1040B43462A4627
:101EE00059463846CDE9009A029600F003F8BDE85D
:101EF000FE8F00002DE9F84F05460F4690469A46A2
:101F0000DDF828B00C9E00BFA87B012808D000BFD8
:101F100037A34FF4557243A145A00FF031FE00BF27
:101F200000BFB8F1000F46D04FF014091421284625
:101F300001F0BCF818B16FF00100BDE8F88F6C68D3
:101F400000BF6889142808D200BF29A34FF4627229
:101F500041A137A00FF014FE00BF00BF84F808A015
:101F60000B986072D8F80000206148464FEAE9718A
:101F700009EB9171C1F3870141F04001217084F8B0
:101F800001B0288911F0F7FF60800020E0803E4812
:101F9000008811F0F0FFA0803B480088401C3A49BF
:101FA00008801FB939480068E06001E03868E060E7
:101FB0000020608109E06889142802DA6FF00100CE
:101FC000BBE76C6820690090E846B08C48B128896E
:101FD000B18C884205DD42463146284610F0F2FFBA
:101FE000ABE742462946304673699847A5E70000AB
:101FF0002E2E2F4D6964646C6577617265732F5462
:10200000686972645F50617274792F4C7749502F00
:102010007372632F636F72652F697076342F6970E6
:10202000342E6300702D3E726566203D3D203100E8
:10203000417373657274696F6E2022257322206666
:1020400061696C6564206174206C696E652025642B
:1020500020696E2025730A00636865636B207468CD
:1020600061742066697273742070627566206361A2
:102070006E20686F6C64207374727563742069706D
:102080005F68647200000000EA0000203058000819
:1020900010B5044600BF002C08D100BF06A34FF4C2
:1020A000317214A116A00FF06BFD00BF00BF2146D6
:1020B000052012F0EBFA10BD2E2E2F4D6964646CD2
:1020C0006577617265732F54686972645F506172DD
:1020D00074792F4C7749502F7372632F636F726539
:1020E0002F697076342F6970345F667261672E6372
:1020F000000000007020213D204E554C4C00000097
:10210000417373657274696F6E2022257322206695
:1021100061696C6564206174206C696E652025645A
:1021200020696E2025730A0070B505460E4604200E
:1021300000F04AFD044664B93146284611F042FDDC
:10214000B04203DB042000F03FFD04460CB9002040
:1021500070BD20212046FEF73CF80F20E0770648AE
:1021600000682060044804601422294604F1080035
:102170000DF0A0FF2046EBE7EC0000202DE9F04732
:1021800004468846002500BFA04507D100BF40A3F4
:10219000AB224EA150A00FF0F3FC00BF00BFB8F17E
:1021A000000F0DD000BFD8F80000A04207D000BF3C
:1021B00037A3AD2252A148A00FF0E2FC00BF00BF40
:1021C0006068D0F80490B9F80400002824D167684A
:1021D000D9F800006060142204F1080178680DF05D
:1021E00069FF0121384610F0E3FE384612F078FE10
:1021F000064600BFA819B0F5803F07DB00BF24A347
:10220000BC2244A134A00FF0BBFC00BF00BFA81942
:1022100085B2384601F052F867681CE0D7F80490A0
:10222000BA46D9F80070504612F05AFE064600BF72
:10223000A819B0F5803F07DB00BF15A3CC2235A15C
:1022400025A00FF09DFC00BF00BFA81985B2504625
:1022500001F034F800BF002FE0D14146204611F0D4
:102260004FFC00BF33480088A84207DA00BF08A32C
:10227000D22231A118A00FF083FC00BF00BF2D486F
:102280000088401B2B4908802846BDE8F0870000E5
:102290002E2E2F4D6964646C6577617265732F54BF
:1022A000686972645F50617274792F4C7749502F5E
:1022B0007372632F636F72652F697076342F697044
:1022C000345F667261672E6300000000707265768D
:1022D00020213D2069707200417373657274696FCB
:1022E0006E2022257322206661696C65642061740A
:1022F000206C696E6520256420696E2025730A00B4
:10230000707265762D3E6E657874203D3D20697053
:102310007200000070627566735F667265656420A6
:102320002B20636C656E203C3D20307866666666C7
:1023300000000000F000002069705F726561737337
:102340005F70627566636F756E74203E3D207062CB
:102350007566735F667265656400000070B5002580
:102360000A4804680FE0E07F002805DDE07F401E9A
:10237000E0772546246806E026462468294630464C
:10238000FFF7FCFE00BF002CEDD170BDEC0000207B
:1023900070B505462C4600BF002C08D100BF0FA326
:1023A00040F2CE221CA11FA00FF0EAFB00BF00BF2D
:1023B00000BFAC4208D000BF08A340F2CF2223A147
:1023C00018A00FF0DDFB00BF00BF606910B16069AD
:1023D00000F074FF2046FFF75BFE70BD2E2E2F4DE0
:1023E0006964646C6577617265732F54686972649F
:1023F0005F50617274792F4C7749502F7372632F3D
:10240000636F72652F697076342F6970345F6672FE
:1024100061672E630000000070637220213D204E32
:10242000554C4C00417373657274696F6E202225A0
:102430007322206661696C6564206174206C696E2A
:102440006520256420696E2025730A007063722060
:102450003D3D207000000000FEB5044600200290C3
:102460004348444908600120486081034148816035
:10247000C910C1600021018200208DF80000802079
:102480008DF80100E1208DF8020000208DF8030096
:102490008DF804008DF805003648C0F814D081612D
:1024A000C1614FF400010162334DD5E900010844D8
:1024B000A9684718CDF802702E480EF06DF906464F
:1024C0002EB994F82D0040F0040084F82D00042368
:1024D0002A4A2B492748FEF7C5F80423294A2A49E6
:1024E0002448FEF779F8062084F82C00214840693A
:1024F000007884F826001F4840694178272001555C
:102500001C4840698178282001551A484069C178E3
:10251000292001551748406901792A20015515489D
:10252000406941792B20015540F2DC5024F8240FFA
:10253000607A40F00A0060720E480EF07DFA607A10
:1025400040F004006072243C02AA1D210948FEF7F5
:10255000E7F9029840F00B0002901D210548029A0D
:10256000FEF750FA02AA1D210248FEF7D9F9FEBD76
:1025700000800240BC310020107AFF1FEC190020BF
:102580009C0100201C0200201C0100202DE9F84FB6
:102590008B463748C06A806800904FF000090024DD
:1025A0000026A2463248D0F82C8000BF5D463FE0AE
:1025B000D8F8000000F0004010B16FF007073FE0CE
:1025C0006E894FF0000A23E040F2F4531A1B6B6847
:1025D00003EB0A01009B18190DF06CFDD8F80C8074
:1025E000D8F8000000F0004010B16FF0070727E0B6
:1025F000D8F80800009040F2F450001B361A40F260
:10260000F450001B824440F2F450001B814400242B
:10261000301940F2F4518842D6D86A6802EB0A01B8
:10262000009A101932460DF045FD3444B1442D682E
:10263000002DBDD149460E480EF027FA002700BFF5
:102640000B48006800F58050406900F0200058B148
:1026500020210748006800F58050416100210448AE
:10266000006800F5805041603846BDE8F88F0000F2
:10267000BC3100202DE9F0410446254668688047BA
:1026800001F0A4F806460D49286809684718B81BE8
:10269000B0F1004F01D3012000E0002030B12968E3
:1026A00088192246064901F0FDF804E02246044953
:1026B000384601F0F7F8BDE8F0810000D8000020AE
:1026C0007526000808B50020009000BF68468042CB
:1026D00008D000BF0BA340F25112164916A00FF00C
:1026E0004FFA00BF00BF00BF00BF00F089F900F043
:1026F0005BFA12F058F802F00BFF01F041FC12F007
:1027000059FF08BD2E2E2F4D6964646C6577617288
:1027100065732F54686972645F50617274792F4CCD
:102720007749502F7372632F636F72652F696E69DB
:10273000742E6300C0580008417373657274696F2A
:102740006E2022257322206661696C6564206174A5
:10275000206C696E6520256420696E2025730A004F
:102760001FB5FEF72BFB4FF49670FDF705FEFEF745
:102770009BFCFEF7C1FB0EF0CDFF744800680068BB
:1027800042F65821884234D071497248FEF78CFBDA
:102790007149088071480088714908806B48006859
:1027A000006844F65821884227D0684800680068CD
:1027B000401C58B96848008869490988884202D095
:1027C000FEF76AFB10B112F0E5FE16E05F48006804
:1027D000006841F6582188420FD15F48008860495F
:1027E0000988884202D0FEF757FB30B112F0D2FEC2
:1027F00003E04FF0FF3000F031F90FF059F859487D
:102800000EF0F6FE0EF03EFA044657A00FF0B8F9AF
:102810009BE00EF037FA05462946594800680DF04E
:10282000DBFEB0F5FA7F07D90EF02CFA54490860A8
:1028300080215448FEF7A6FAFEF754FB434800688F
:10284000006844F65821884219D143480088444919
:102850000988884202D0FEF71FFB80B10EF012FA01
:102860000546294620460DF0B7FE41F288318842E0
:1028700005D94FF0FF3000F0F1F812F08BFE4FF465
:10288000005141480EF0F6F920B90EF0FBF93F492E
:1028900008605AE00EF0F6F9054629463B48006804
:1028A0000DF09AFE41F2883188424ED90022012172
:1028B0003448FEF771FA002280213248FEF76CFAA4
:1028C00000224FF480412F48FEF766FA4FF4FA7069
:1028D0000DF0AEFE012211462A48FEF75DFA4FF4D4
:1028E000FA700DF0A5FE012280212648FEF754FA69
:1028F0004FF4FA700DF09CFE012291032148FEF77F
:102900004BFA4FF4FA700DF093FE002201211D489E
:10291000FEF742FA002280211A48FEF73DFA002213
:102920004FF480411748FEF737FA194B0FCB8DE86B
:102930000F00684600F0DCF84FF4FA700DF078FEF6
:102940000EF0A0F91149086000BF62E708000020FE
:10295000FEFF0900000002080C000020FEFF0B082B
:102960000E00002004010020426F6F746C6F6164E0
:10297000657220737461727465642E0D0A00000024
:102980001000002000040240000802401400002053
:10299000AC570008F0B50B30154D20F007010024AE
:1029A000144A0FE003688B420BD38B4205D95E1AA1
:1029B00043184768C3E9006700E04368136002C03A
:1029C00004E0021D10680028ECD12046002802D146
:1029D000286808B10020F0BD064A07481060074A81
:1029E000121A22F00702C0E9002401202860D7E76C
:1029F000FC000020F8000020BC680020B8880020FF
:102A000010B500BF00BF114820F003001049086056
:102A1000084604684FF4C860208000206080207160
:102A20004FF4C86000F098FE0A4908600120096868
:102A300008714FF4C86007490968088005490968AA
:102A40004880034800680449086010BDA332002094
:102A5000500000205400002058000020F8B5044623
:102A6000214D0020009002F085FE002000900FE034
:102A70001E49009831F810601B4A022303FB002115
:102A80003246002301200EF0A9F80098401C009067
:102A90001548281A0099B1EB500FE9D322460023BC
:102AA000294602200EF09AF80F48281A022101EB5D
:102AB000500000900FE00D49009831F810600A4A6C
:102AC000022303FB00213246002301200EF086F88A
:102AD0000098401C009041F6FF7100988842EAD3AC
:102AE00018F004FCF8BD00000080000800C00008D9
:102AF000F8B505462A4C0020009002F03BFE00206D
:102B000000900FE02749009831F81060244A022312
:102B100003FB00213246002301200EF05FF80098ED
:102B2000401C0090201D1E49401A0099B1EB500F27
:102B3000E8D3002000900FE0009855F82060201D99
:102B40000423009A03FB02013246002302200EF008
:102B500045F80098401C009000980428ECD3201DF4
:102B60000F49401A082101EB500000900FE00D4979
:102B7000009831F810600A4A022303FB0021324614
:102B8000002301200EF02AF80098401C009041F626
:102B9000FF7100988842EAD318F0A8FBF8BD000046
:102BA0000080000800C0000810B5002406E00549B8
:102BB00051F8240011F0C2FD601C84B2092CF6D338
:102BC00010BD0000D8D5010870B5044600BF092C1F
:102BD0000ADB00BF09A340F2571214A11BA00EF09C
:102BE000CFFF00BF002070BD00BF224951F8240074
:102BF000FEF76AFB05462846F5E700002E2E2F4D0E
:102C00006964646C6577617265732F546869726476
:102C10005F50617274792F4C7749502F7372632F14
:102C2000636F72652F6D656D702E63006D656D70DD
:102C30005F6D616C6C6F633A2074797065203C2025
:102C40004D454D505F4D4158000000004173736584
:102C50007274696F6E2022257322206661696C652B
:102C600064206174206C696E6520256420696E2083
:102C700025730A00D8D501082DE9F05F04460E46F9
:102C800017469846DDE90AB900BF002C0BD100BFFA
:102C900049A340F2271255A15BA00EF071FF00BFBF
:102CA0000020BDE8F09F00BF00BFB9F1000F0AD1BE
:102CB00000BF41A34FF494725DA153A00EF060FFDA
:102CC00000BF0020EDE700BF06B9624E07B9614FB3
:102CD000B8F1000F01D1DFF87C8100206060A060B6
:102CE000E0605D4860610020A08484F82D00E06110
:102CF000C4F820B05948007884F830000C9820615E
:102D000043463A463146204611F0BEFD2046C847AC
:102D100008B10020C5E700BF94F83000FF2802D1B9
:102D2000002084F830004FF0000A4D48056829E083
:102D300000BFA54208D100BF1FA340F28B1249A1DA
:102D400031A00EF01DFF00BF00BF0AF1010A00BF55
:102D5000BAF1FF0F08DD00BF17A340F28D1246A1A4
:102D600029A00EF00DFF00BF00BF95F8300094F8C9
:102D70003010884205D194F83000401C84F83000AF
:102D800002E02D68002DD3D100BF002DC4D194F8EE
:102D90003000FE2803D100203049087004E094F888
:102DA0003000401C2D4908702D48006820602C48D8
:102DB0000460204675E700002E2E2F4D6964646C78
:102DC0006577617265732F54686972645F506172D0
:102DD00074792F4C7749502F7372632F636F72652C
:102DE0002F6E657469662E63000000006E6574695D
:102DF000665F6164643A20696E76616C6964206E16
:102E00006574696600000000417373657274696FD0
:102E10006E2022257322206661696C6564206174CE
:102E2000206C696E6520256420696E2025730A0078
:102E30006E657469665F6164643A204E6F20696EE6
:102E400069742066756E6374696F6E206769766554
:102E50006E000000305800088148010888000020FA
:102E6000800000206E6574696620616C7265616423
:102E70007920616464656400746F6F206D616E79A0
:102E8000206E65746966732C206D61782E207375D1
:102E900070706F72746564206E756D626572206902
:102EA0007320323535000000F8B505460C4616464D
:102EB00000BF002C08D100BF18A340F2CB1224A100
:102EC00027A00EF05DFE00BF00BF00BF46B900BFE7
:102ED00012A34FF4E6721EA121A00EF051FE00BF16
:102EE00000BF20686968884201D1012000E000200D
:102EF00090B920680090686830606946304611F0EB
:102F000033FC0CB9002000E02068686001212846ED
:102F100011F04AFC0120F8BD0020FCE72E2E2F4DB9
:102F20006964646C6577617265732F546869726453
:102F30005F50617274792F4C7749502F7372632FF1
:102F4000636F72652F6E657469662E630000000002
:102F5000696E76616C696420706F696E7465720069
:102F6000417373657274696F6E2022257322206627
:102F700061696C6564206174206C696E65202564EC
:102F800020696E2025730A0010B5034608689C6806
:102F9000A04201D1012000E0002030B909B9002091
:102FA00000E008689860012010BD0020FCE70000E8
:102FB00002466AB10748016808E091F83000401CF9
:102FC000C0B2904201D10846704709680029F4D187
:102FD0000020F9E7800000200149086070470000E8
:102FE0008400002000B1C1617047000010B50446A4
:102FF00000BF002C09D100BF0EA34FF454721AA1D8
:1030000020A00EF0BDFD00BF10BD00BF94F82D0044
:1030100000F0010058B900BF94F82D0040F0010005
:1030200084F82D0000BF0321204611F0BDFB00BF36
:10303000EAE700002E2E2F4D6964646C657761729B
:1030400065732F54686972645F50617274792F4C94
:103050007749502F7372632F636F72652F6E65749B
:1030600069662E63000000006E657469665F7365B3
:10307000745F75703A20696E76616C6964206E6564
:1030800074696600417373657274696F6E202225DE
:103090007322206661696C6564206174206C696EBE
:1030A0006520256420696E2025730A0070B50446EA
:1030B0000D4600222946204611F07CFC70BD000020
:1030C0002DE9FC4107460D46144600BF412C0AD0AD
:1030D000012C08D000BF0EA34FF4A57218A11DA0AB
:1030E0000EF04EFD00BF00BF0720FFF76DFD064646
:1030F00016B90020BDE8FC8100202B462A4639463F
:10310000CDE90040304612F079F83046F2E7000091
:103110002E2E2F4D6964646C6577617265732F5430
:10312000686972645F50617274792F4C7749502FCF
:103130007372632F636F72652F706275662E630002
:10314000696E76616C696420706275665F7479700F
:1031500065000000417373657274696F6E202225EB
:103160007322206661696C6564206174206C696EED
:103170006520256420696E2025730A002DE9F05F23
:103180008046894616461D464FF0000AD34600BFCA
:10319000B8F1000F0BD100BF21A340F20A422CA1CD
:1031A00033A00EF0EDFC00BF0020BDE8F09F00BF93
:1031B00000BFB9F1000F0AD100BF19A340F20B42C2
:1031C00035A12BA00EF0DCFC00BF0020EDE700BF16
:1031D000444620E035B16089A84203DC6089281AA2
:1031E00085B217E06089401B87B2B74200DD3746E1
:1031F0006268511909EB0A003A460CF05BFF0BEBD1
:1032000007001FFA80FB0AEB07001FFA80FAF01B89
:1032100086B2002524680EB1002CDBD15846C4E7E5
:103220002E2E2F4D6964646C6577617265732F541F
:10323000686972645F50617274792F4C7749502FBE
:103240007372632F636F72652F706275662E6300F1
:10325000706275665F636F70795F706172746961C7
:103260006C3A20696E76616C696420627566000054
:10327000417373657274696F6E2022257322206614
:1032800061696C6564206174206C696E65202564D9
:1032900020696E2025730A00706275665F636F7027
:1032A000795F7061727469616C3A20696E76616CE5
:1032B0006964206461746170747200002DE9F047E4
:1032C0000446002C0ED100BF44B900BF35A34FF413
:1032D000377240A142A00EF053FC00BF00BF002097
:1032E000BDE8F087002658E000BFA07B002808DC7E
:1032F00000BF2CA340F2F12243A139A00EF040FC04
:1033000000BF00BFA07B401E00F0FF0884F80E80C5
:10331000B8F1000F3FD12768207B00F00F05607BDC
:1033200000F00200002814D0A14600BFD9F8100018
:10333000002808D100BF1BA340F2FF2238A128A01B
:103340000EF01EFC00BF00BF2046D9F810108847C1
:103350001DE0022D04D12146082011F097F916E056
:10336000012D04D12146072011F090F90FE01DB97D
:10337000204610F007FE0AE000BF00BF09A340F29C
:103380000F3230A116A00EF0FBFB00BF00BF701C77
:10339000C6B23C4600E0002400BF002CA4D1304659
:1033A0009EE700002E2E2F4D6964646C6577617274
:1033B00065732F54686972645F50617274792F4C21
:1033C0007749502F7372632F636F72652F70627528
:1033D000662E63007020213D204E554C4C000000AD
:1033E000417373657274696F6E20222573222066A3
:1033F00061696C6564206174206C696E6520256468
:1034000020696E2025730A00706275665F667265BA
:10341000653A20702D3E726566203E203000000027
:1034200070632D3E637573746F6D5F667265655F63
:1034300066756E6374696F6E20213D204E554C4C4D
:1034400000000000696E76616C69642070627566C8
:10345000207479706500000070B504460D460122A5
:103460002946204600F001F870BD70B505460C46AF
:103470001646002C04DA6142284611F025FF70BD83
:1034800032462146284611F095FAF8E72DE9F04139
:1034900006460F4600BF002E08D100BF2CA34FF4F4
:1034A000CC7237A13CA00EF06BFB00BF00BF30898F
:1034B000B84201DCBDE8F0813089C01B1FFA80F8FA
:1034C0003D46344613E06089281A85B22089A0EB76
:1034D00008002081246800BF44B900BF1CA340F24B
:1034E000AF1237A12CA00EF04BFB00BF00BF6089CC
:1034F000A842E8DB207B00F00F0000281BD1608988
:10350000A84218D0607B00F00200002813D1A088E8
:10351000001B284481B2204610F09EFF044600BFE5
:1035200044B900BF0AA340F2BD122BA11AA00EF0AD
:1035300027FB00BF00BF658160892081206810B132
:103540002068FFF7BBFE0020206000BFB2E700004C
:103550002E2E2F4D6964646C6577617265732F54EC
:10356000686972645F50617274792F4C7749502F8B
:103570007372632F636F72652F706275662E6300BE
:10358000706275665F7265616C6C6F633A20702063
:10359000213D204E554C4C00417373657274696F28
:1035A0006E2022257322206661696C656420617437
:1035B000206C696E6520256420696E2025730A00E1
:1035C000706275665F7265616C6C6F633A20712022
:1035D000213D204E554C4C006D656D5F7472696DD8
:1035E0002072657475726E65642071203D3D204EB9
:1035F000554C4C0010B50446601C08B927A048E0A3
:103600000CB928A045E0A01C08B928A041E0E01CA6
:1036100008B928A03DE0201D08B929A039E0601DA7
:1036200008B929A035E0A01D08B92BA031E0E01DA4
:1036300008B92BA02DE004F1080008B92CA028E05F
:1036400004F1090008B92CA023E004F10A0008B92C
:103650002CA01EE004F10B0008B92DA019E004F124
:103660000C0008B92DA014E004F10D0008B92DA03C
:103670000FE004F10E0008B92DA00AE004F10F00DC
:1036800008B92DA005E004F1100008B92DA000E054
:1036900021A001462DA00EF073FA10BD4552525FD5
:1036A0004D454D004552525F4F4B00004552525F11
:1036B000425546004552525F54494D454F555400BE
:1036C0004552525F525445004552525F494E505246
:1036D0004F475245535300004552525F56414C00EC
:1036E0004552525F574F554C44424C4F434B00009C
:1036F0004552525F555345004552525F414C524529
:10370000414459004552525F4953434F4E4E0000C9
:103710004552525F434F4E4E000000004552525FEB
:10372000494600004552525F414252540000000099
:103730004552525F525354004552525F434C5344DA
:10374000000000004552525F415247004572726FBF
:10375000723A2025730D0A000146024800680844A9
:1037600070470000500000202DE9F04100F02EF8D5
:10377000074600BF00BF1248007808B111F026FDCF
:1037800000BF104804680CB9BDE8F0816068381AC1
:10379000B0F1004F01D3012000E0002000B1F3E7B9
:1037A000084920680860A568E668074960680860FD
:1037B0002146062010F06AFF0DB13046A847D9E730
:1037C00089000020D4000020D800002010B50DF0A2
:1037D00059FA10BD2DE9F04104460E46174600BFC8
:1037E000B4F1804F08D300BF09A340F2291215A1FC
:1037F00022A00EF0C5F900BF00BFFFF7E7FF0519D3
:103800003A463146284600F04DF8BDE8F081000008
:103810002E2E2F4D6964646C6577617265732F5429
:10382000686972645F50617274792F4C7749502FC8
:103830007372632F636F72652F74696D656F757432
:10384000732E630054696D656F75742074696D65BE
:1038500020746F6F206C6F6E672C206D617820690B
:1038600073204C5749505F55494E5433325F4D4198
:10387000582F34206D7365637300000041737365C6
:103880007274696F6E2022257322206661696C65EF
:1038900064206174206C696E6520256420696E2047
:1038A00025730A002DE9F04106460F469046062092
:1038B000FFF78AF90446002C0CD100BF07D100BFE6
:1038C00020A3BE222CA13CA00EF05AF900BF00BFDD
:1038D000BDE8F08100202060A760C4F80C8066601D
:1038E0003F48006810B93E480460F1E73C49606811
:1038F00009684968401AB0F1004F01D3012000E087
:10390000002028B13648006820603548046017E080
:103910003348056811E0286850B160682968496833
:10392000401AB0F1004F01D3012000E0002018B18F
:10393000286820602C6002E02D68002DEBD100BFCC
:1039400000BFC5E72E2E2F4D6964646C65776172E8
:1039500065732F54686972645F50617274792F4C7B
:103960007749502F7372632F636F72652F74696D7F
:10397000656F7574732E63007379735F74696D6519
:103980006F75743A2074696D656F757420213D20E0
:103990004E554C4C2C20706F6F6C204D454D505F38
:1039A0005359535F54494D454F5554206973206511
:1039B0006D70747900000000417373657274696FF3
:1039C0006E2022257322206661696C656420617413
:1039D000206C696E6520256420696E2025730A00BD
:1039E000D400002028B1027D012A02D10246916153
:1039F00000BF704770B505460C46164600BF002C48
:103A000008D100BF07A340F20F3212A119A00EF097
:103A1000B7F800BF00BF204612F0CAF96FF00C00E3
:103A200070BD00002E2E2F4D6964646C6577617245
:103A300065732F54686972645F50617274792F4C9A
:103A40007749502F7372632F636F72652F746370A1
:103A50002E6300007463705F6163636570745F6EF2
:103A6000756C6C3A20696E76616C69642070636273
:103A700000000000417373657274696F6E20222527
:103A80007322206661696C6564206174206C696EC4
:103A90006520256420696E2025730A0010B5044650
:103AA00000BF002C0BD100BF0CA34FF4F47217A180
:103AB0001CA00EF065F800BF6FF00F0010BD00BF36
:103AC000207D012805D000BF608B40F0100060838E
:103AD00000BF0121204612F08FFAEFE72E2E2F4D66
:103AE0006964646C6577617265732F546869726488
:103AF0005F50617274792F4C7749502F7372632F26
:103B0000636F72652F7463702E6300007463705F5F
:103B1000636C6F73653A20696E76616C69642070BE
:103B200063620000417373657274696F6E202225B1
:103B30007322206661696C6564206174206C696E13
:103B40006520256420696E2025730A0070B505463E
:103B500000BF45B900BF1EA34FF4CE7228A12BA011
:103B60000EF00EF800BF00BF287D032804D0042803
:103B70000AD0072818D10FE0284615F0FDFF0446AB
:103B80000CB90520287511E0284615F0F5FF04460C
:103B90000CB90520287509E0284615F0EDFF04460C
:103BA0000CB90920287501E0002070BD00BF1CB9C8
:103BB000284613F0F3FD09E0601C38B900BF688B9C
:103BC00040F00800688300BF0020EEE72046ECE7E5
:103BD0002E2E2F4D6964646C6577617265732F5466
:103BE000686972645F50617274792F4C7749502F05
:103BF0007372632F636F72652F7463702E6300009E
:103C000070636220213D204E554C4C00417373651A
:103C10007274696F6E2022257322206661696C655B
:103C200064206174206C696E6520256420696E20B3
:103C300025730A002DE9F05F80460D4691469A46AD
:103C40000A9F00BFB8F1000F07D100BF40A3A32215
:103C50004CA154A00DF094FF00BF00BF00BF002D89
:103C600007D100BF3AA3A42258A14EA00DF088FFAF
:103C700000BF00BF07F0010008B1042000E00020F1
:103C800007F0020109B1002100E00021084407F01B
:103C9000080109B1002100E00021084407F01001EB
:103CA00009B1002100E0002146180320FEF78CFF37
:103CB000041E05D12846FFF701FB0020BDE8F09F58
:103CC000A77200202060656000BF2889B04207DA33
:103CD00000BF1FA3B02246A132A00DF051FF00BFCC
:103CE00000BF2889801B208114212846FFF7DEF9B8
:103CF00020B1204601F0EAF90020DFE76068406863
:103D0000E060B8F8160010F036F9E1680880B8F8FD
:103D1000180010F030F9E1684880504610F01EF9A4
:103D2000E1684860B346F11706EB91718910491DAF
:103D30004FF6FF7202EA013141EA090010F01BF967
:103D4000E16888810020E16848822046B6E70000EB
:103D50002E2E2F4D6964646C6577617265732F54E4
:103D6000686972645F50617274792F4C7749502F83
:103D70007372632F636F72652F7463705F6F7574F6
:103D80002E6300007463705F6372656174655F73B6
:103D900065676D656E743A20696E76616C69642042
:103DA00070636200417373657274696F6E202225BF
:103DB0007322206661696C6564206174206C696E91
:103DC0006520256420696E2025730A007463705F86
:103DD0006372656174655F7365676D656E743A20C3
:103DE000696E76616C69642070627566000000001F
:103DF000702D3E746F745F6C656E203E3D206F7059
:103E0000746C656E0000000070B523480078401C9B
:103E10002149087000BF2148046839E0A07F1E498D
:103E20000978884233D01C480078A077A07E00F043
:103E3000010078B100BF608B40F00200608300BFDA
:103E4000204613F0ABFC00BF608B4FF6FC710840BE
:103E5000608300BFA07E00F0080048B100BF608B07
:103E60004FF6F7710840608300BF2046FFF76EFEF3
:103E7000E568A06F48B1002009490870204614F099
:103E8000CFFC0748007800B1C5E72C4600E0E468A5
:103E9000002CC3D170BD0000A60000209C000020B3
:103EA000A400002010B5044600BF207D012807D1E2
:103EB00000BF06A3D42211A115A00DF061FE00BF22
:103EC00000BF2146012010F0E1FB10BD2E2E2F4D2A
:103ED0006964646C6577617265732F546869726494
:103EE0005F50617274792F4C7749502F7372632F32
:103EF000636F72652F7463702E6300007463705F6C
:103F0000667265653A204C495354454E00000000E6
:103F1000417373657274696F6E2022257322206667
:103F200061696C6564206174206C696E652025642C
:103F300020696E2025730A0010B50446606F20B119
:103F4000606F15F06CFD0020606710BD70B50B4808
:103F5000046810E0E568A07E00F0080048B100BFEA
:103F6000608B4FF6F7710840608300BF2046FFF773
:103F7000EDFD2C4600BF002CECD170BD9C00002054
:103F800010B50CF085F8C0F30D0000F54040014974
:103F9000088010BD8C0000202DE9F0410446002669
:103FA00000BF002C08D100BF14A340F6240220A1BA
:103FB00026A00DF0E5FD00BF00BF216D481E0FF0EB
:103FC000CDFF8046434600223146204613F098FD3F
:103FD00005461DB94FF0FF30BDE8F08133460022A1
:103FE0002946204613F0FAFD231D22462946204685
:103FF00000F086FA07463846EEE700002E2E2F4DD9
:104000006964646C6577617265732F546869726462
:104010005F50617274792F4C7749502F7372632F00
:10402000636F72652F7463705F6F75742E63000029
:104030007463705F6B656570616C6976653A206961
:104040006E76616C69642070636200004173736511
:104050007274696F6E2022257322206661696C6517
:1040600064206174206C696E6520256420696E206F
:1040700025730A002DE9F041054600BF082D0AD03E
:10408000092D08D000BF13A340F2DD621DA121A0BD
:104090000DF076FD00BF00BF00270026274804680A
:1040A0000EE0207DA8420AD12549206A0968081A35
:1040B000B84204D32249206A09680F1A2646E468E8
:1040C000002CEED11EB10021304611F087FDBDE875
:1040D000F08100002E2E2F4D6964646C657761724B
:1040E00065732F54686972645F50617274792F4CE4
:1040F0007749502F7372632F636F72652F746370EB
:104100002E630000696E76616C696420737461745B
:1041100065000000417373657274696F6E2022251B
:104120007322206661696C6564206174206C696E1D
:104130006520256420696E2025730A009C000020FC
:104140009000002070B5044600BF44B900BF12A320
:1041500040F211121CA11FA00DF012FD00BF00BF04
:1041600000BF207D012808D000BF0BA34FF4897247
:1041700022A118A00DF004FD00BF00BF012507E03B
:10418000244951F825100868214615F021FA6D1CC4
:10419000042DF5D370BD00002E2E2F4D6964646C84
:1041A0006577617265732F54686972645F506172DC
:1041B00074792F4C7749502F7372632F636F726538
:1041C0002F7463702E63000070636220213D204EC7
:1041D000554C4C00417373657274696F6E202225D3
:1041E0007322206661696C6564206174206C696E5D
:1041F0006520256420696E2025730A007063622D96
:104200003E7374617465203D3D204C495354454EC6
:1042100000000000205800082DE9F04104468846BF
:104220001746002500BF002C0BD100BF38A340F279
:10423000593243A14EA00DF0A3FC00BF6FF00F0652
:1042400060E000BF00BF207D00280BD000BF30A37E
:1042500040F25A3250A146A00DF092FC00BF6FF020
:104260000E064FE000BF207D012803D125466FF0E8
:10427000080647E00220FEF7A7FC054615B94FF0F7
:10428000FF363FE020692861E08AE8820120287536
:10429000607D6875607A687200202872E07AE87242
:1042A000A07AA87220682860E08AD8B100BF484888
:1042B0000068A04205D146480068C06844490860CB
:1042C0000DE04349086806E0C168A14202D1E168F7
:1042D000C16002E0C0680028F6D100BF00BF002026
:1042E000E06000BF2046FFF7DDFD3A48A86100BF4F
:1042F00039480068E8603848056016F005FA00BFE4
:10430000002600BF07B13E702846BDE8F0810000DE
:104310002E2E2F4D6964646C6577617265732F541E
:10432000686972645F50617274792F4C7749502FBD
:104330007372632F636F72652F7463702E63000056
:104340007463705F6C697374656E5F776974685FBE
:104350006261636B6C6F675F616E645F6572723A16
:1043600020696E76616C69642070636200000000F1
:10437000417373657274696F6E2022257322206603
:1043800061696C6564206174206C696E65202564C8
:1043900020696E2025730A007463705F6C69737402
:1043A000656E5F776974685F6261636B6C6F675F8E
:1043B000616E645F6572723A2070636220616C7234
:1043C0006561647920636F6E6E6563746564000077
:1043D00094000020F5390008980000202DE9F05FD6
:1043E00082460D4617469846DDF830B005F11400B8
:1043F000384481B24FF42072222010F04FFB064661
:10440000002E34D000BF718905F11400814208DA12
:1044100000BF18A340F2237223A12FA00DF0B0FB20
:1044200000BF00BF74680A980FF0A5FD20800B98AC
:104430000FF0A1FD6080C4F8048050460FF08EFD9F
:10444000A060A946E91705EB91718910491D4FF647
:10445000FF7202EA013141EA0B000FF08CFDA081EE
:104460000D980FF088FDE0810020208260823046A8
:10447000BDE8F09F2E2E2F4D6964646C65776172E4
:1044800065732F54686972645F50617274792F4C40
:104490007749502F7372632F636F72652F74637047
:1044A0005F6F75742E630000636865636B207468CA
:1044B000617420666972737420706275662063612E
:1044C0006E20686F6C6420737472756374207463FB
:1044D000705F686472000000417373657274696F85
:1044E0006E2022257322206661696C6564206174E8
:1044F000206C696E6520256420696E2025730A0092
:104500002DE9FE4F04460E4692469B4600BF002E04
:1045100008D100BF17A340F2877223A12DA00DF090
:104520002FFB00BF00BF5A465146204615F068FADF
:10453000054615B96FF0030715E024B194F80B8018
:1045400094F80A9003E04FF0FF084FF000090620AE
:1045500043465A465146CDE9009002953046FDF754
:10456000ADFC074600BF3046FEF7A8FE3846BDE862
:10457000FE8F00002E2E2F4D6964646C657761728A
:1045800065732F54686972645F50617274792F4C3F
:104590007749502F7372632F636F72652F74637046
:1045A0005F6F75742E6300007463705F6F75747055
:1045B00075745F636F6E74726F6C5F7365676D6542
:1045C0006E743A20696E76616C69642070627566FB
:1045D00000000000417373657274696F6E202225BC
:1045E0007322206661696C6564206174206C696E59
:1045F0006520256420696E2025730A002DE9F041AD
:10460000054600BF002D08D100BF28A340F27D72EF
:1046100033A13AA00DF0B4FA00BF00BF41480088B2
:10462000002840D000204049088036E012F006F90A
:10463000074627B1012F04D0022F1FD102E0BDE8A9
:10464000F08128E012F0FAF8042806D136480088F4
:10465000801C34490988884200DDF0E712F0EEF84A
:10466000060212F0EBF80643B6F5067F00DC16B939
:104670004FF4067000E0304668860CE012F0DEF879
:104680000446022C00DADAE7A01E2749098808440C
:104690002549088000BF00BF00BF2348008821498A
:1046A00009888842C2DB00BFC9E700002E2E2F4DCB
:1046B0006964646C6577617265732F5468697264AC
:1046C0005F50617274792F4C7749502F7372632F4A
:1046D000636F72652F7463705F696E2E63000000F4
:1046E0007463705F70617273656F70743A20696E85
:1046F00076616C69642070636200000041737365C9
:104700007274696F6E2022257322206661696C6560
:1047100064206174206C696E6520256420696E20B8
:1047200025730A00B0000020B80000202DE9F84FE2
:1047300081460C4617469846DDE90BAB0A9E00946D
:1047400000BFB8F1000F07D100BF29A3E82235A1AF
:104750003DA00DF015FA00BF00BF00BF002E07D12D
:1047600000BF23A3E92242A137A00DF009FA00BF40
:1047700000BFBC421BDA0AF0020050B9B07E00F064
:104780004000A0B9BBF1000F03D0F06E08B9306F44
:1047900068B104F21B2020F00300B84201D938466A
:1047A00003E004F21B2020F0030080B200904FF4DD
:1047B00020724846009910F071F9054615B900209D
:1047C000BDE8F88F00BF286840B100BF08A340F2E1
:1047D0000B122FA11CA00DF0D3F900BF00BF6889F8
:1047E000001BA8F800002C816C812846E8E7000037
:1047F0002E2E2F4D6964646C6577617265732F543A
:10480000686972645F50617274792F4C7749502FD8
:104810007372632F636F72652F7463705F6F75744B
:104820002E6300007463705F706275665F707265FE
:10483000616C6C6F633A20696E76616C6964206F9D
:1048400076657273697A6500417373657274696F16
:104850006E2022257322206661696C656420617474
:10486000206C696E6520256420696E2025730A001E
:104870007463705F706275665F707265616C6C6F97
:10488000633A20696E76616C69642070636200002F
:104890006E65656420756E636861696E656420701D
:1048A0006275660010B5044600BF002C09D100BF38
:1048B00016A340F6510221A127A00DF061F900BF17
:1048C00010BD00BF207DF8B1207D0A281CD0207DBE
:1048D000012819D0A06F20B1A06FFEF7EFFC0020D7
:1048E000A067606F10B12046FFF726FB4FF0FF3046
:1048F0002086E06E15F093F8206F15F090F80020F8
:10490000E0662067A4F8680000BFD9E72E2E2F4D7F
:104910006964646C6577617265732F546869726449
:104920005F50617274792F4C7749502F7372632FE7
:10493000636F72652F7463702E6300007463705F21
:104940007063625F70757267653A20696E76616C3C
:104950006964207063620000417373657274696FEB
:104960006E2022257322206661696C656420617463
:10497000206C696E6520256420696E2025730A000D
:1049800070B505460C4600BF002C08D100BF3AA305
:1049900040F6830244A14BA00DF0F2F800BF00BF27
:1049A00000BF002D08D100BF33A340F684024FA101
:1049B00044A00DF0E5F800BF00BF00BF2868A0428A
:1049C00003D12868C06828600CE0286806E0C16848
:1049D000A14202D1E168C16002E0C0680028F6D1BE
:1049E00000BF00BF0020E06000BF2046FFF75AFF75
:1049F000207D0A280FD0207D01280CD0A07E00F059
:104A0000010040B100BF608B40F00200608300BF36
:104A1000204612F0C3FE207D012826D000BFE06EA4
:104A200040B100BF14A340F6930238A125A00DF0B9
:104A3000A7F800BF00BF00BF206F40B100BF0EA3AA
:104A400040F6940237A11FA00DF09AF800BF00BFF6
:104A500000BF606F40B100BF07A340F6960238A1C7
:104A600018A00DF08DF800BF00BF00202075E08277
:104A700000BF00BF70BD00002E2E2F4D6964646C16
:104A80006577617265732F54686972645F506172F3
:104A900074792F4C7749502F7372632F636F72654F
:104AA0002F7463702E6300007463705F7063625FC5
:104AB00072656D6F76653A20696E76616C69642007
:104AC00070636200417373657274696F6E20222592
:104AD0007322206661696C6564206174206C696E64
:104AE0006520256420696E2025730A007463705F59
:104AF0007063625F72656D6F76653A20696E76618C
:104B00006C6964207063626C69737400756E7365A0
:104B10006E74207365676D656E7473206C65616B70
:104B2000696E6700756E61636B6564207365676DA0
:104B3000656E7473206C65616B696E6700000000C0
:104B40006F6F736571207365676D656E7473206C2C
:104B500065616B696E67000070B504460D46002CF8
:104B60000FD000BF207D012808D100BF05A340F26F
:104B7000DF7210A119A00DF003F800BF00BFC4F848
:104B8000845070BD2E2E2F4D6964646C6577617200
:104B900065732F54686972645F50617274792F4C29
:104BA0007749502F7372632F636F72652F74637030
:104BB0002E630000696E76616C696420736F636BAD
:104BC000657420737461746520666F72207265630A
:104BD000762063616C6C6261636B00004173736586
:104BE0007274696F6E2022257322206661696C657C
:104BF00064206174206C696E6520256420696E20D4
:104C000025730A002DE9F04107460D4614461E465D
:104C100000BF002D0CD100BF0EA34FF4D36219A129
:104C20001FA00CF0ADFF00BF6FF00F00BDE8F081DA
:104C300000BF3CB12189284600F046F82046FEF727
:104C40003DFB04E01EB92846FEF728FFEEE70020F2
:104C5000ECE700002E2E2F4D6964646C657761725D
:104C600065732F54686972645F50617274792F4C58
:104C70007749502F7372632F636F72652F7463705F
:104C80002E6300007463705F726563765F6E756C8F
:104C90006C3A20696E76616C696420706362000012
:104CA000417373657274696F6E20222573222066CA
:104CB00061696C6564206174206C696E652025648F
:104CC00020696E2025730A002DE9F04104460F4645
:104CD00000BF002C0AD100BF1CA340F2CF3227A195
:104CE0002CA00CF04DFF00BFBDE8F08100BF00BF5D
:104CF000207D012808D100BF14A340F2D2322FA199
:104D000024A00CF03DFF00BF00BF208D384485B2C9
:104D1000B5F5066F02DC208DA84203DD4FF4066076
:104D2000208500E02585204600F092FA0646B6F57B
:104D3000067F08D300BF608B40F00200608300BF95
:104D4000204612F02BFD00BFCEE700002E2E2F4D87
:104D50006964646C6577617265732F546869726405
:104D60005F50617274792F4C7749502F7372632FA3
:104D7000636F72652F7463702E6300007463705FDD
:104D80007265637665643A20696E76616C69642049
:104D900070636200417373657274696F6E202225BF
:104DA0007322206661696C6564206174206C696E91
:104DB0006520256420696E2025730A00646F6E27C4
:104DC000742063616C6C207463705F7265637665D8
:104DD0006420666F72206C697374656E2D706362F7
:104DE0007300000010B5044600BF002C08D100BFBE
:104DF00020A340F2F9622CA133A00CF0C1FE00BF49
:104E000000BF206FA0B3A07E00F0040080BB20464E
:104E100014F038FC60BBB4F84810B4F8602091423C
:104E200002DAB4F8481001E0B4F86010084601EB6B
:104E3000D071C1F34F01A4F84A10B4F84A00618E52
:104E40004900884204D2608E4004000CA4F84A0055
:104E5000B4F84A00618E032202FB0100A4F8480066
:104E600000BF608B40F00400608300BF00202086FC
:104E700010BD00002E2E2F4D6964646C6577617241
:104E800065732F54686972645F50617274792F4C36
:104E90007749502F7372632F636F72652F7463703D
:104EA0005F6F75742E6300007463705F7265786D58
:104EB00069745F666173743A20696E76616C6964C7
:104EC0002070636200000000417373657274696F43
:104ED0006E2022257322206661696C6564206174EE
:104EE000206C696E6520256420696E2025730A0098
:104EF0002DE9F04F85B083460F4690461D46DDF8FC
:104F0000389000BF002D08D100BF1EA340F2C4722C
:104F100029A130A00CF034FE00BF00BF00BFB9F1E2
:104F2000000F08D100BF17A340F2C57233A129A01A
:104F30000CF026FE00BF00BF002646F2080A3846E5
:104F40000FF00CF814220490DDE90F018DE807043E
:104F5000002231464046049BFFF740FA044614B94C
:104F600005B0BDE8F08F334600222146584612F0C6
:104F700035FE4B462A4621465846FFF7C1FA00BF88
:104F8000EEE700002E2E2F4D6964646C6577617228
:104F900065732F54686972645F50617274792F4C25
:104FA0007749502F7372632F636F72652F7463702C
:104FB0005F6F75742E6300007463705F7273743A70
:104FC00020696E76616C6964206C6F63616C5F69E7
:104FD00070000000417373657274696F6E20222542
:104FE0007322206661696C6564206174206C696E4F
:104FF0006520256420696E2025730A007463705F44
:105000007273743A20696E76616C69642072656DA2
:105010006F74655F6970000070B5054600BF002DB4
:1050200008D100BF0CA340F2826217A11DA00CF0B2
:10503000A7FD00BF00BF0320FDF7C6FD04460CB965
:10504000002070BD95E80F0084E80F00606810F044
:10505000EDF82046F5E700002E2E2F4D6964646CB4
:105060006577617265732F54686972645F5061720D
:1050700074792F4C7749502F7372632F636F726569
:105080002F7463702E6300007463705F7365675FD5
:10509000636F70793A20696E76616C69642073651C
:1050A00067000000417373657274696F6E2022257A
:1050B0007322206661696C6564206174206C696E7E
:1050C0006520256420696E2025730A0010B504460A
:1050D00044B1606810B16068FEF7F0F82146032023
:1050E0000FF0D4FA10BD00003EB504462948007800
:1050F00000F0040000B13EBD00BF002C08D100BF8D
:1051000025A340F2EE2231A138A00CF039FD00BFFA
:1051100000BF2048007800F0020018B33D49606AE3
:105120000968081A26D4218D606A0844394909683B
:10513000081A00281EDC38480068008836490968CB
:105140004988364ACDE90021029032480068344946
:1051500009884218314B1B1D324801682046FFF771
:10516000C7FEC8E70B48007800F0010010B12E48D8
:10517000006820622A480088002808DD00BF608B94
:1051800040F00200608300BF204612F007FB00BF22
:10519000B1E70000C80000202E2E2F4D6964646C1A
:1051A0006577617265732F54686972645F506172CC
:1051B00074792F4C7749502F7372632F636F726528
:1051C0002F7463705F696E2E630000007463705FFC
:1051D00074696D65776169745F696E7075743A2082
:1051E000696E76616C6964207063620041737365F7
:1051F0007274696F6E2022257322206661696C6566
:1052000064206174206C696E6520256420696E20BD
:1052100025730A00BC000020AC000020983200205A
:10522000C6000020C00000209000002010B5FEF74E
:10523000EBFD06480078401CC0B20449087000F03D
:10524000010008B114F05EFD10BD0000A5000020B3
:1052500070B5044600BF002C08D100BF1CA340F26B
:10526000A63227A12FA00CF08BFC00BF00BF218D20
:10527000606A4518608EE16AB0F5866F02DD4FF412
:10528000866000E0608E0844281A04D4208D608572
:10529000E06A281A70BDE16A606A401A002802DDDF
:1052A0000020608512E0616AE06A461A00BFB6F528
:1052B000803F08D300BF06A340F2B63223A119A055
:1052C0000CF05EFC00BF00BF668500BF0020E1E778
:1052D0002E2E2F4D6964646C6577617265732F544F
:1052E000686972645F50617274792F4C7749502FEE
:1052F0007372632F636F72652F7463702E63000087
:105300007463705F7570646174655F7263765F610A
:105310006E6E5F776E643A20696E76616C696420A8
:1053200070636200417373657274696F6E20222529
:105330007322206661696C6564206174206C696EFB
:105340006520256420696E2025730A006E65775FED
:105350007263765F616E6E5F776E64203C3D2030D5
:1053600078666666660000002DE9FC5F04464FF033
:10537000000A00BF002C08D100BF37A340F64F023F
:1053800042A14BA00CF0FCFB00BF00BFE56E15B9BD
:105390000020BDE8FC9F94F89A00FF2804DA94F8F6
:1053A0009A00401C84F89A00E96888890EF0E3FDB1
:1053B00000F0010018B1288908B9012000E00020A0
:1053C0008146B9F1000F01D1012000E000208346A1
:1053D000E86843685A465146204612F091FB06465B
:1053E00016B94FF0FF30D4E77768B9F1000F09D054
:1053F00011200EF0C0FDB9894CF2FF0211400843A4
:10540000B8810DE0706814300090696809892A89B4
:10541000891A8BB2012268680099FDF7AFFE00BFC0
:10542000E96848680EF09AFD00F10108206DB0EBC4
:10543000080001D5C4F8508053460022314620466A
:1054400012F0CCFB231D224631462046FFF758F8C8
:10545000019001989DE700002E2E2F4D6964646C29
:105460006577617265732F54686972645F50617209
:1054700074792F4C7749502F7372632F636F726565
:105480002F7463705F6F75742E6300007463705FB8
:105490007A65726F5F77696E646F775F70726F6243
:1054A000653A20696E76616C696420706362000001
:1054B000417373657274696F6E20222573222066B2
:1054C00061696C6564206174206C696E6520256477
:1054D00020696E2025730A0010B50446FFF7A6FE6A
:1054E0000748006810B90748006828B1002206493B
:1054F000FA20FEF76FF902E000200449086010BDB1
:105500009C000020A0000020D9540008DC000020EE
:1055100010B50AF0BDFDC0F30D0000F54040014993
:10552000088010BDE00000202DE9FE4F05460E4624
:105530000020019000BF002D07D100BF61A3CF2242
:105540006CA172A00CF01CFB00BF00BF00BF002EBE
:1055500007D100BF5BA3D02276A16CA00CF010FB9A
:1055600000BF00BF6889082803DA2846FDF7A6FEB9
:10557000A6E0D5F804A0764A11685069FCF777FCDC
:105580008146BAF800000EF0F6FC8346BAF8020035
:105590000EF0F1FC029000240027A0466D4804683C
:1055A00038E0618A0298814232D14A46314620462B
:1055B00015F0E8FD60B3207C00F00400A8B9B8F154
:1055C000000F01D1A04610E0B9F1000F0DD06048E6
:1055D0004069401C48B9D8F800007168884204D07E
:1055E00020687168884200D1A046A08A58450FD132
:1055F000606820B1564960680969884208D137B1AE
:10560000E068F86053480068E0605248046003E0D6
:105610002746E468002CC4D100BF04B9444614B145
:105620000120019008E04A4970684969884201D127
:10563000012000E000200190019800283CD00821C2
:1056400028460FF041FE70B100BF00BF1DA34FF40C
:10565000B87241A12DA00CF093FA00BF00BF2846FC
:10566000FDF72CFE2CE07CB1A06948B1CDF800B06C
:10567000374B10332A462146D4E906C0E0471EE0E6
:105680002846FDF71BFE1BE0B9F1000F10D1304892
:10569000007D00F0F000E0280AD02D488089083015
:1056A00001B22846FDF7D8FE03212846FCF7D6FBB9
:1056B0002846FDF703FE02E02846FDF7FFFD00BF88
:1056C000BDE8FE8F2E2E2F4D6964646C6577617284
:1056D00065732F54686972645F50617274792F4CDE
:1056E0007749502F7372632F636F72652F756470E3
:1056F0002E6300007564705F696E7075743A20697E
:105700006E76616C696420706275660041737365C2
:105710007274696F6E2022257322206661696C6540
:1057200064206174206C696E6520256420696E2098
:1057300025730A007564705F696E7075743A20692C
:105740006E76616C6964206E6574696600000000A5
:1057500088320020E4000020706275665F72656D1B
:105760006F76655F686561646572206661696C6506
:10577000640A000000B587B0FBF7E4F9002001904F
:1057800002200390012004900220059006A901A8A0
:10579000FBF780F907B000BD70B504460D4616460C
:1057A000324629462046FCF75BFA70BDC0A804FBD0
:1057B000FFFFFF00C0A80401F60100000000000088
:1057C00000000000010203040607080900000000B1
:1057D00001020304FFFFFFFFFFFF000000000000C5
:1057E000B4D80108DCD80108FCD80108BCD80108ED
:1057F000A8D8010890D801089CD80108F0D8010861
:10580000C8D80108D0D80108E4D80108010203046F
:1058100005060707070707070703060C1830607817
:1058200098000020940000209C000020A000002090
:1058300000000000FFFFFFFF0040404040404040AC
:105840004040414141414140404040404040404053
:1058500040404040404040404005020202020202F7
:105860000202020202020202022020202020202046
:10587000202020020202020202029090909090905A
:105880001010101010101010101010101010101018
:10589000101010100202020202028888888888888C
:1058A0000808080808080808080808080808080878
:1058B00008080808020202024000000039580008E7
:1058C0004C5749505F434F4E53545F43415354200C
:1058D0006E6F7420696D706C656D656E74656420A3
:1058E000636F72726563746C792E20436865636BB5
:1058F00020796F7572206C77495020706F72742E0A
:10590000000000007463705F656E71756575655F9A
:10591000666C6167733A206E6565642065697468BA
:105920006572205443505F53594E206F7220544388
:10593000505F46494E20696E20666C61677320286F
:1059400070726F6772616D6D65722076696F6C61E0
:105950007465732041504929000000007C590008FB
:105960000000002004010000C4110008805A000853
:1059700004010020B4A70000D411000800000000BA
:10598000000000000080000800000000000000008F
:105990000000000000000000000000000000000007
:1059A00000000000000000000000000000000000F7
:1059B00000000000000000000000000000000000E7
:1059C00010000000010000000024F40000000000AE
:1059D00000000000000000000000000000000000C7
:1059E00000000000000000000000000000000000B7
:1059F00000000000000000000000000000000000A7
:105A0000000000000000000000C0000000000000D6
:105A10000000000000000000000000000000000086
:105A2000000000006E1900000000000000000000EF
:105A30000000000000000000000000000000000066
:105A40000000000000000000000000000000000056
:105A500000000000000000000000000000C0000086
:105A60000000000000000000000000000000000036
:105A70000000000000000000000000000000000026
:020000040801F1
:100000000648804706480047FEE7FEE7FEE7FEE7B2
:10001000FEE7FEE7FEE7FEE7FEE7FEE7691B0108F5
:10002000AD0100082DE9F05F0546002092469B4691
:1000300088460646814640241BE0284641464746FE
:100040002246F0F718F953465A46C01A914110D388
